{
  "address": "0x5FbDB2315678afecb367f032d93F642f64180aa3",
  "abi": [
    {
      "inputs": [],
      "name": "HealthChain__MedicalRecordNotFound",
      "type": "error"
    },
    {
      "inputs": [],
      "name": "HealthChain__cantAccessData",
      "type": "error"
    },
    {
      "inputs": [],
      "name": "HealthChain__notYourData",
      "type": "error"
    },
    {
      "inputs": [],
      "name": "HealthChain__requestNotApprovedYet",
      "type": "error"
    },
    {
      "inputs": [],
      "name": "HealthChain__requestNotFound",
      "type": "error"
    },
    {
      "inputs": [],
      "name": "HealthChain__youAlreadyHaveAnAccount",
      "type": "error"
    },
    {
      "anonymous": false,
      "inputs": [
        {
          "indexed": false,
          "internalType": "address",
          "name": "id",
          "type": "address"
        },
        {
          "indexed": false,
          "internalType": "string",
          "name": "name",
          "type": "string"
        },
        {
          "indexed": false,
          "internalType": "string",
          "name": "surname",
          "type": "string"
        }
      ],
      "name": "doctorCreated",
      "type": "event"
    },
    {
      "anonymous": false,
      "inputs": [
        {
          "indexed": false,
          "internalType": "address",
          "name": "id",
          "type": "address"
        },
        {
          "indexed": false,
          "internalType": "string",
          "name": "name",
          "type": "string"
        },
        {
          "indexed": false,
          "internalType": "string",
          "name": "surname",
          "type": "string"
        }
      ],
      "name": "doctorUpdated",
      "type": "event"
    },
    {
      "anonymous": false,
      "inputs": [
        {
          "indexed": false,
          "internalType": "uint256",
          "name": "medicalRecordId",
          "type": "uint256"
        },
        {
          "indexed": false,
          "internalType": "address",
          "name": "patientAddress",
          "type": "address"
        },
        {
          "indexed": false,
          "internalType": "address",
          "name": "doctorAddress",
          "type": "address"
        }
      ],
      "name": "medicalRecordCreated",
      "type": "event"
    },
    {
      "anonymous": false,
      "inputs": [
        {
          "indexed": false,
          "internalType": "uint256",
          "name": "medicalRecordId",
          "type": "uint256"
        },
        {
          "indexed": false,
          "internalType": "address",
          "name": "patientAddress",
          "type": "address"
        },
        {
          "indexed": false,
          "internalType": "address",
          "name": "doctorAddress",
          "type": "address"
        }
      ],
      "name": "medicalRecordUpdated",
      "type": "event"
    },
    {
      "anonymous": false,
      "inputs": [
        {
          "indexed": false,
          "internalType": "address",
          "name": "id",
          "type": "address"
        },
        {
          "indexed": false,
          "internalType": "string",
          "name": "name",
          "type": "string"
        },
        {
          "indexed": false,
          "internalType": "string",
          "name": "surname",
          "type": "string"
        }
      ],
      "name": "patientCreated",
      "type": "event"
    },
    {
      "anonymous": false,
      "inputs": [
        {
          "indexed": false,
          "internalType": "address",
          "name": "id",
          "type": "address"
        },
        {
          "indexed": false,
          "internalType": "string",
          "name": "name",
          "type": "string"
        },
        {
          "indexed": false,
          "internalType": "string",
          "name": "surname",
          "type": "string"
        }
      ],
      "name": "patientUpdated",
      "type": "event"
    },
    {
      "anonymous": false,
      "inputs": [
        {
          "indexed": false,
          "internalType": "uint256",
          "name": "requestId",
          "type": "uint256"
        },
        {
          "indexed": false,
          "internalType": "address",
          "name": "patientAddress",
          "type": "address"
        }
      ],
      "name": "requestApproved",
      "type": "event"
    },
    {
      "anonymous": false,
      "inputs": [
        {
          "indexed": false,
          "internalType": "uint256",
          "name": "requestId",
          "type": "uint256"
        },
        {
          "indexed": false,
          "internalType": "address",
          "name": "patientAddress",
          "type": "address"
        },
        {
          "indexed": false,
          "internalType": "address",
          "name": "doctorAddress",
          "type": "address"
        }
      ],
      "name": "requestCreated",
      "type": "event"
    },
    {
      "anonymous": false,
      "inputs": [
        {
          "indexed": false,
          "internalType": "uint256",
          "name": "requestId",
          "type": "uint256"
        },
        {
          "indexed": false,
          "internalType": "address",
          "name": "patientAddress",
          "type": "address"
        }
      ],
      "name": "requestRejected",
      "type": "event"
    },
    {
      "inputs": [
        {
          "internalType": "string",
          "name": "name",
          "type": "string"
        },
        {
          "internalType": "string",
          "name": "surname",
          "type": "string"
        },
        {
          "internalType": "string",
          "name": "dateOfBirth",
          "type": "string"
        },
        {
          "internalType": "string",
          "name": "email",
          "type": "string"
        },
        {
          "internalType": "string",
          "name": "telephone",
          "type": "string"
        },
        {
          "internalType": "string",
          "name": "zipCode",
          "type": "string"
        },
        {
          "internalType": "string",
          "name": "city",
          "type": "string"
        },
        {
          "internalType": "string",
          "name": "country",
          "type": "string"
        }
      ],
      "name": "createDoctor",
      "outputs": [],
      "stateMutability": "nonpayable",
      "type": "function"
    },
    {
      "inputs": [
        {
          "internalType": "uint256",
          "name": "requestId",
          "type": "uint256"
        },
        {
          "internalType": "address",
          "name": "patientId",
          "type": "address"
        },
        {
          "internalType": "string",
          "name": "fileName",
          "type": "string"
        },
        {
          "internalType": "string",
          "name": "hospital",
          "type": "string"
        },
        {
          "internalType": "string",
          "name": "details",
          "type": "string"
        }
      ],
      "name": "createMedicalRecord",
      "outputs": [],
      "stateMutability": "nonpayable",
      "type": "function"
    },
    {
      "inputs": [
        {
          "internalType": "string",
          "name": "name",
          "type": "string"
        },
        {
          "internalType": "string",
          "name": "surname",
          "type": "string"
        },
        {
          "internalType": "string",
          "name": "dateOfBirth",
          "type": "string"
        },
        {
          "internalType": "string",
          "name": "email",
          "type": "string"
        },
        {
          "internalType": "string",
          "name": "telephone",
          "type": "string"
        },
        {
          "internalType": "string",
          "name": "telephone2",
          "type": "string"
        },
        {
          "internalType": "string",
          "name": "doctorTelephone",
          "type": "string"
        },
        {
          "internalType": "string",
          "name": "zipCode",
          "type": "string"
        },
        {
          "internalType": "string",
          "name": "city",
          "type": "string"
        },
        {
          "internalType": "string",
          "name": "country",
          "type": "string"
        }
      ],
      "name": "createPatient",
      "outputs": [],
      "stateMutability": "nonpayable",
      "type": "function"
    },
    {
      "inputs": [
        {
          "internalType": "address",
          "name": "patientAddress",
          "type": "address"
        }
      ],
      "name": "createRequest",
      "outputs": [],
      "stateMutability": "nonpayable",
      "type": "function"
    },
    {
      "inputs": [
        {
          "internalType": "address",
          "name": "doctorId",
          "type": "address"
        }
      ],
      "name": "getDoctorData",
      "outputs": [
        {
          "components": [
            {
              "internalType": "address",
              "name": "id",
              "type": "address"
            },
            {
              "internalType": "string",
              "name": "name",
              "type": "string"
            },
            {
              "internalType": "string",
              "name": "surname",
              "type": "string"
            },
            {
              "internalType": "string",
              "name": "dateOfBirth",
              "type": "string"
            },
            {
              "internalType": "string",
              "name": "email",
              "type": "string"
            },
            {
              "internalType": "string",
              "name": "telephone",
              "type": "string"
            },
            {
              "internalType": "string",
              "name": "zipCode",
              "type": "string"
            },
            {
              "internalType": "string",
              "name": "city",
              "type": "string"
            },
            {
              "internalType": "string",
              "name": "country",
              "type": "string"
            }
          ],
          "internalType": "struct HealthChain.Doctor",
          "name": "",
          "type": "tuple"
        }
      ],
      "stateMutability": "view",
      "type": "function"
    },
    {
      "inputs": [
        {
          "internalType": "uint256",
          "name": "medicalRecordId",
          "type": "uint256"
        },
        {
          "internalType": "address",
          "name": "patientId",
          "type": "address"
        }
      ],
      "name": "getMedicalRecordById",
      "outputs": [
        {
          "components": [
            {
              "internalType": "uint256",
              "name": "id",
              "type": "uint256"
            },
            {
              "internalType": "uint256",
              "name": "timeAdded",
              "type": "uint256"
            },
            {
              "internalType": "address",
              "name": "patientId",
              "type": "address"
            },
            {
              "internalType": "address",
              "name": "doctorId",
              "type": "address"
            },
            {
              "internalType": "string",
              "name": "fileName",
              "type": "string"
            },
            {
              "internalType": "string",
              "name": "hospital",
              "type": "string"
            },
            {
              "internalType": "string",
              "name": "details",
              "type": "string"
            }
          ],
          "internalType": "struct HealthChain.MedicalRecord",
          "name": "",
          "type": "tuple"
        }
      ],
      "stateMutability": "view",
      "type": "function"
    },
    {
      "inputs": [
        {
          "internalType": "address",
          "name": "patientId",
          "type": "address"
        }
      ],
      "name": "getMedicalRecords",
      "outputs": [
        {
          "components": [
            {
              "internalType": "uint256",
              "name": "id",
              "type": "uint256"
            },
            {
              "internalType": "uint256",
              "name": "timeAdded",
              "type": "uint256"
            },
            {
              "internalType": "address",
              "name": "patientId",
              "type": "address"
            },
            {
              "internalType": "address",
              "name": "doctorId",
              "type": "address"
            },
            {
              "internalType": "string",
              "name": "fileName",
              "type": "string"
            },
            {
              "internalType": "string",
              "name": "hospital",
              "type": "string"
            },
            {
              "internalType": "string",
              "name": "details",
              "type": "string"
            }
          ],
          "internalType": "struct HealthChain.MedicalRecord[]",
          "name": "",
          "type": "tuple[]"
        }
      ],
      "stateMutability": "view",
      "type": "function"
    },
    {
      "inputs": [
        {
          "internalType": "address",
          "name": "patientId",
          "type": "address"
        }
      ],
      "name": "getPatientData",
      "outputs": [
        {
          "components": [
            {
              "internalType": "address",
              "name": "id",
              "type": "address"
            },
            {
              "internalType": "string",
              "name": "name",
              "type": "string"
            },
            {
              "internalType": "string",
              "name": "surname",
              "type": "string"
            },
            {
              "internalType": "string",
              "name": "dateOfBirth",
              "type": "string"
            },
            {
              "internalType": "string",
              "name": "email",
              "type": "string"
            },
            {
              "internalType": "string",
              "name": "telephone",
              "type": "string"
            },
            {
              "internalType": "string",
              "name": "telephone2",
              "type": "string"
            },
            {
              "internalType": "string",
              "name": "doctorTelephone",
              "type": "string"
            },
            {
              "internalType": "string",
              "name": "zipCode",
              "type": "string"
            },
            {
              "internalType": "string",
              "name": "city",
              "type": "string"
            },
            {
              "internalType": "string",
              "name": "country",
              "type": "string"
            }
          ],
          "internalType": "struct HealthChain.Patient",
          "name": "",
          "type": "tuple"
        }
      ],
      "stateMutability": "view",
      "type": "function"
    },
    {
      "inputs": [
        {
          "internalType": "address",
          "name": "patientId",
          "type": "address"
        }
      ],
      "name": "getPatientsDoctorNumber",
      "outputs": [
        {
          "internalType": "string",
          "name": "",
          "type": "string"
        }
      ],
      "stateMutability": "view",
      "type": "function"
    },
    {
      "inputs": [
        {
          "internalType": "address",
          "name": "patientId",
          "type": "address"
        }
      ],
      "name": "getRequests",
      "outputs": [
        {
          "components": [
            {
              "internalType": "uint256",
              "name": "requestId",
              "type": "uint256"
            },
            {
              "internalType": "address",
              "name": "patientAddress",
              "type": "address"
            },
            {
              "internalType": "address",
              "name": "doctorAddress",
              "type": "address"
            },
            {
              "internalType": "uint256",
              "name": "timestamp",
              "type": "uint256"
            },
            {
              "internalType": "enum HealthChain.RequestStatus",
              "name": "status",
              "type": "uint8"
            }
          ],
          "internalType": "struct HealthChain.Request[]",
          "name": "",
          "type": "tuple[]"
        }
      ],
      "stateMutability": "view",
      "type": "function"
    },
    {
      "inputs": [
        {
          "internalType": "uint256",
          "name": "requestId",
          "type": "uint256"
        },
        {
          "internalType": "bool",
          "name": "approved",
          "type": "bool"
        }
      ],
      "name": "respondToRequest",
      "outputs": [],
      "stateMutability": "nonpayable",
      "type": "function"
    },
    {
      "inputs": [
        {
          "internalType": "address",
          "name": "doctorId",
          "type": "address"
        },
        {
          "internalType": "string",
          "name": "name",
          "type": "string"
        },
        {
          "internalType": "string",
          "name": "surname",
          "type": "string"
        },
        {
          "internalType": "string",
          "name": "dateOfBirth",
          "type": "string"
        },
        {
          "internalType": "string",
          "name": "email",
          "type": "string"
        },
        {
          "internalType": "string",
          "name": "telephone",
          "type": "string"
        },
        {
          "internalType": "string",
          "name": "zipCode",
          "type": "string"
        },
        {
          "internalType": "string",
          "name": "city",
          "type": "string"
        },
        {
          "internalType": "string",
          "name": "country",
          "type": "string"
        }
      ],
      "name": "updateDoctor",
      "outputs": [],
      "stateMutability": "nonpayable",
      "type": "function"
    },
    {
      "inputs": [
        {
          "internalType": "address",
          "name": "patientId",
          "type": "address"
        },
        {
          "internalType": "uint256",
          "name": "medicalRecordId",
          "type": "uint256"
        },
        {
          "internalType": "uint256",
          "name": "requestId",
          "type": "uint256"
        },
        {
          "internalType": "string",
          "name": "fileName",
          "type": "string"
        },
        {
          "internalType": "string",
          "name": "hospital",
          "type": "string"
        },
        {
          "internalType": "string",
          "name": "details",
          "type": "string"
        }
      ],
      "name": "updateMedicalRecord",
      "outputs": [],
      "stateMutability": "nonpayable",
      "type": "function"
    },
    {
      "inputs": [
        {
          "internalType": "address",
          "name": "patientId",
          "type": "address"
        },
        {
          "internalType": "string",
          "name": "name",
          "type": "string"
        },
        {
          "internalType": "string",
          "name": "surname",
          "type": "string"
        },
        {
          "internalType": "string",
          "name": "dateOfBirth",
          "type": "string"
        },
        {
          "internalType": "string",
          "name": "email",
          "type": "string"
        },
        {
          "internalType": "string",
          "name": "telephone",
          "type": "string"
        },
        {
          "internalType": "string",
          "name": "telephone2",
          "type": "string"
        },
        {
          "internalType": "string",
          "name": "doctorTelephone",
          "type": "string"
        },
        {
          "internalType": "string",
          "name": "zipCode",
          "type": "string"
        },
        {
          "internalType": "string",
          "name": "city",
          "type": "string"
        },
        {
          "internalType": "string",
          "name": "country",
          "type": "string"
        }
      ],
      "name": "updatePatient",
      "outputs": [],
      "stateMutability": "nonpayable",
      "type": "function"
    }
  ],
  "transactionHash": "0x7eb56479a70729072b4b8ee5db0be509c68a87686356fe65b707da33466d9cfc",
  "args": [],
  "numDeployments": 1,
  "solcInputHash": "bb48688ddc28edf95a0adbace2be6d8a",
  "bytecode": "0x608060405234801561001057600080fd5b50615132806100206000396000f3fe608060405234801561001057600080fd5b50600436106100ea5760003560e01c80639e2e516a1161008c578063b4e1256311610066578063b4e125631461026b578063ba2d3f3814610287578063c67feeac146102a3578063f05f672f146102bf576100ea565b80639e2e516a146101ef578063a42a0de21461020b578063afd8297c1461023b576100ea565b80632e8ff13c116100c85780632e8ff13c1461014357806340af39a81461017357806348e818521461018f578063804e44f3146101bf576100ea565b806314ee93a2146100ef5780631da0ec511461010b5780632997addc14610127575b600080fd5b61010960048036038101906101049190613951565b6102ef565b005b61012560048036038101906101209190613afa565b610635565b005b610141600480360381019061013c9190613bc9565b610b88565b005b61015d60048036038101906101589190613951565b610deb565b60405161016a9190613f59565b60405180910390f35b61018d60048036038101906101889190613f7b565b6113cd565b005b6101a960048036038101906101a49190613951565b611701565b6040516101b6919061423f565b60405180910390f35b6101d960048036038101906101d49190613951565b611e6f565b6040516101e691906143fe565b60405180910390f35b61020960048036038101906102049190614420565b612072565b005b610225600480360381019061022091906145ca565b61234b565b60405161023291906146b4565b60405180910390f35b61025560048036038101906102509190613951565b612768565b6040516102629190614842565b60405180910390f35b61028560048036038101906102809190614864565b612ae6565b005b6102a1600480360381019061029c9190614a93565b612e55565b005b6102bd60048036038101906102b89190614ad3565b6131c2565b005b6102d960048036038101906102d49190613951565b613630565b6040516102e69190614bfe565b60405180910390f35b3373ffffffffffffffffffffffffffffffffffffffff16600160003373ffffffffffffffffffffffffffffffffffffffff1673ffffffffffffffffffffffffffffffffffffffff16815260200190815260200160002060000160009054906101000a900473ffffffffffffffffffffffffffffffffffffffff1673ffffffffffffffffffffffffffffffffffffffff161461038957600080fd5b808073ffffffffffffffffffffffffffffffffffffffff166000808373ffffffffffffffffffffffffffffffffffffffff1673ffffffffffffffffffffffffffffffffffffffff16815260200190815260200160002060000160009054906101000a900473ffffffffffffffffffffffffffffffffffffffff1673ffffffffffffffffffffffffffffffffffffffff161461042357600080fd5b60004233604051602001610438929190614c89565b6040516020818303038152906040528051906020012060001c9050600360008473ffffffffffffffffffffffffffffffffffffffff1673ffffffffffffffffffffffffffffffffffffffff1681526020019081526020016000206040518060a001604052808381526020018573ffffffffffffffffffffffffffffffffffffffff1681526020013373ffffffffffffffffffffffffffffffffffffffff168152602001428152602001600060028111156104f5576104f461429c565b5b81525090806001815401808255809150506001900390600052602060002090600502016000909190919091506000820151816000015560208201518160010160006101000a81548173ffffffffffffffffffffffffffffffffffffffff021916908373ffffffffffffffffffffffffffffffffffffffff16021790555060408201518160020160006101000a81548173ffffffffffffffffffffffffffffffffffffffff021916908373ffffffffffffffffffffffffffffffffffffffff1602179055506060820151816003015560808201518160040160006101000a81548160ff021916908360028111156105ee576105ed61429c565b5b021790555050507fdc9c1562357b214dca4098ed4b4971f2c4f1250d8829987448c12abc7b9f001681843360405161062893929190614cd3565b60405180910390a1505050565b3373ffffffffffffffffffffffffffffffffffffffff16600160003373ffffffffffffffffffffffffffffffffffffffff1673ffffffffffffffffffffffffffffffffffffffff16815260200190815260200160002060000160009054906101000a900473ffffffffffffffffffffffffffffffffffffffff1673ffffffffffffffffffffffffffffffffffffffff16146106cf57600080fd5b838073ffffffffffffffffffffffffffffffffffffffff166000808373ffffffffffffffffffffffffffffffffffffffff1673ffffffffffffffffffffffffffffffffffffffff16815260200190815260200160002060000160009054906101000a900473ffffffffffffffffffffffffffffffffffffffff1673ffffffffffffffffffffffffffffffffffffffff161461076957600080fd5b6000600360008773ffffffffffffffffffffffffffffffffffffffff1673ffffffffffffffffffffffffffffffffffffffff16815260200190815260200160002090506000805b8280549050811015610b4657888382815481106107d0576107cf614d0a565b5b90600052602060002090600502016000015414801561085e57503373ffffffffffffffffffffffffffffffffffffffff1683828154811061081457610813614d0a565b5b906000526020600020906005020160020160009054906101000a900473ffffffffffffffffffffffffffffffffffffffff1673ffffffffffffffffffffffffffffffffffffffff16145b80156108bf5750600160028111156108795761087861429c565b5b83828154811061088c5761088b614d0a565b5b906000526020600020906005020160040160009054906101000a900460ff1660028111156108bd576108bc61429c565b5b145b15610b33576001915060008382815481106108dd576108dc614d0a565b5b906000526020600020906005020160040160006101000a81548160ff021916908360028111156109105761090f61429c565b5b02179055506000423360405160200161092a929190614c89565b6040516020818303038152906040528051906020012060001c9050600260008a73ffffffffffffffffffffffffffffffffffffffff1673ffffffffffffffffffffffffffffffffffffffff1681526020019081526020016000206040518060e001604052808381526020014281526020018b73ffffffffffffffffffffffffffffffffffffffff1681526020013373ffffffffffffffffffffffffffffffffffffffff1681526020018a8152602001898152602001888152509080600181540180825580915050600190039060005260206000209060070201600090919091909150600082015181600001556020820151816001015560408201518160020160006101000a81548173ffffffffffffffffffffffffffffffffffffffff021916908373ffffffffffffffffffffffffffffffffffffffff16021790555060608201518160030160006101000a81548173ffffffffffffffffffffffffffffffffffffffff021916908373ffffffffffffffffffffffffffffffffffffffff1602179055506080820151816004019081610ac39190614f45565b5060a0820151816005019081610ad99190614f45565b5060c0820151816006019081610aef9190614f45565b5050507f376ba5f7b0478da4e779373c3279fbc87e2b4298e93d4018376ded0bdc7471ee818a33604051610b2593929190614cd3565b60405180910390a150610b46565b8080610b3e90615046565b9150506107b0565b5080610b7e576040517fae97f79000000000000000000000000000000000000000000000000000000000815260040160405180910390fd5b5050505050505050565b8a8073ffffffffffffffffffffffffffffffffffffffff166000808373ffffffffffffffffffffffffffffffffffffffff1673ffffffffffffffffffffffffffffffffffffffff16815260200190815260200160002060000160009054906101000a900473ffffffffffffffffffffffffffffffffffffffff1673ffffffffffffffffffffffffffffffffffffffff1614610c2257600080fd5b60008060003373ffffffffffffffffffffffffffffffffffffffff1673ffffffffffffffffffffffffffffffffffffffff16815260200190815260200160002090508c73ffffffffffffffffffffffffffffffffffffffff168160000160009054906101000a900473ffffffffffffffffffffffffffffffffffffffff1673ffffffffffffffffffffffffffffffffffffffff1614610ced576040517f57c0ff9e00000000000000000000000000000000000000000000000000000000815260040160405180910390fd5b8b816001019081610cfe9190614f45565b508a816002019081610d109190614f45565b5089816003019081610d229190614f45565b5088816004019081610d349190614f45565b5087816005019081610d469190614f45565b5086816006019081610d589190614f45565b5085816007019081610d6a9190614f45565b5084816008019081610d7c9190614f45565b5083816009019081610d8e9190614f45565b508281600a019081610da09190614f45565b507fb9155cf7f016b79957e9d131dc5d56a394abf9933886292c9e760fe98e4c55d48d8d8d604051610dd49392919061508e565b60405180910390a150505050505050505050505050565b610df36137a4565b818073ffffffffffffffffffffffffffffffffffffffff16600160008373ffffffffffffffffffffffffffffffffffffffff1673ffffffffffffffffffffffffffffffffffffffff16815260200190815260200160002060000160009054906101000a900473ffffffffffffffffffffffffffffffffffffffff1673ffffffffffffffffffffffffffffffffffffffff1614610e8e57600080fd5b6000600160008573ffffffffffffffffffffffffffffffffffffffff1673ffffffffffffffffffffffffffffffffffffffff168152602001908152602001600020604051806101200160405290816000820160009054906101000a900473ffffffffffffffffffffffffffffffffffffffff1673ffffffffffffffffffffffffffffffffffffffff1673ffffffffffffffffffffffffffffffffffffffff168152602001600182018054610f4190614d68565b80601f0160208091040260200160405190810160405280929190818152602001828054610f6d90614d68565b8015610fba5780601f10610f8f57610100808354040283529160200191610fba565b820191906000526020600020905b815481529060010190602001808311610f9d57829003601f168201915b50505050508152602001600282018054610fd390614d68565b80601f0160208091040260200160405190810160405280929190818152602001828054610fff90614d68565b801561104c5780601f106110215761010080835404028352916020019161104c565b820191906000526020600020905b81548152906001019060200180831161102f57829003601f168201915b5050505050815260200160038201805461106590614d68565b80601f016020809104026020016040519081016040528092919081815260200182805461109190614d68565b80156110de5780601f106110b3576101008083540402835291602001916110de565b820191906000526020600020905b8154815290600101906020018083116110c157829003601f168201915b505050505081526020016004820180546110f790614d68565b80601f016020809104026020016040519081016040528092919081815260200182805461112390614d68565b80156111705780601f1061114557610100808354040283529160200191611170565b820191906000526020600020905b81548152906001019060200180831161115357829003601f168201915b5050505050815260200160058201805461118990614d68565b80601f01602080910402602001604051908101604052809291908181526020018280546111b590614d68565b80156112025780601f106111d757610100808354040283529160200191611202565b820191906000526020600020905b8154815290600101906020018083116111e557829003601f168201915b5050505050815260200160068201805461121b90614d68565b80601f016020809104026020016040519081016040528092919081815260200182805461124790614d68565b80156112945780601f1061126957610100808354040283529160200191611294565b820191906000526020600020905b81548152906001019060200180831161127757829003601f168201915b505050505081526020016007820180546112ad90614d68565b80601f01602080910402602001604051908101604052809291908181526020018280546112d990614d68565b80156113265780601f106112fb57610100808354040283529160200191611326565b820191906000526020600020905b81548152906001019060200180831161130957829003601f168201915b5050505050815260200160088201805461133f90614d68565b80601f016020809104026020016040519081016040528092919081815260200182805461136b90614d68565b80156113b85780601f1061138d576101008083540402835291602001916113b8565b820191906000526020600020905b81548152906001019060200180831161139b57829003601f168201915b50505050508152505090508092505050919050565b3373ffffffffffffffffffffffffffffffffffffffff16600160003373ffffffffffffffffffffffffffffffffffffffff1673ffffffffffffffffffffffffffffffffffffffff16815260200190815260200160002060000160009054906101000a900473ffffffffffffffffffffffffffffffffffffffff1673ffffffffffffffffffffffffffffffffffffffff1614806114f557503373ffffffffffffffffffffffffffffffffffffffff166000803373ffffffffffffffffffffffffffffffffffffffff1673ffffffffffffffffffffffffffffffffffffffff16815260200190815260200160002060000160009054906101000a900473ffffffffffffffffffffffffffffffffffffffff1673ffffffffffffffffffffffffffffffffffffffff16145b1561152c576040517f06d6763e00000000000000000000000000000000000000000000000000000000815260040160405180910390fd5b6040518061012001604052803373ffffffffffffffffffffffffffffffffffffffff16815260200189815260200188815260200187815260200186815260200185815260200184815260200183815260200182815250600160003373ffffffffffffffffffffffffffffffffffffffff1673ffffffffffffffffffffffffffffffffffffffff16815260200190815260200160002060008201518160000160006101000a81548173ffffffffffffffffffffffffffffffffffffffff021916908373ffffffffffffffffffffffffffffffffffffffff160217905550602082015181600101908161161d9190614f45565b5060408201518160020190816116339190614f45565b5060608201518160030190816116499190614f45565b50608082015181600401908161165f9190614f45565b5060a08201518160050190816116759190614f45565b5060c082015181600601908161168b9190614f45565b5060e08201518160070190816116a19190614f45565b506101008201518160080190816116b89190614f45565b509050507f4c228560b35aca1b4219ad14c68cd752e8944c36ee85f6c9b024da620b0e89403389896040516116ef9392919061508e565b60405180910390a15050505050505050565b611709613806565b818073ffffffffffffffffffffffffffffffffffffffff166000808373ffffffffffffffffffffffffffffffffffffffff1673ffffffffffffffffffffffffffffffffffffffff16815260200190815260200160002060000160009054906101000a900473ffffffffffffffffffffffffffffffffffffffff1673ffffffffffffffffffffffffffffffffffffffff16146117a357600080fd5b8273ffffffffffffffffffffffffffffffffffffffff163373ffffffffffffffffffffffffffffffffffffffff1603611e375760008060008573ffffffffffffffffffffffffffffffffffffffff1673ffffffffffffffffffffffffffffffffffffffff168152602001908152602001600020604051806101600160405290816000820160009054906101000a900473ffffffffffffffffffffffffffffffffffffffff1673ffffffffffffffffffffffffffffffffffffffff1673ffffffffffffffffffffffffffffffffffffffff16815260200160018201805461188890614d68565b80601f01602080910402602001604051908101604052809291908181526020018280546118b490614d68565b80156119015780601f106118d657610100808354040283529160200191611901565b820191906000526020600020905b8154815290600101906020018083116118e457829003601f168201915b5050505050815260200160028201805461191a90614d68565b80601f016020809104026020016040519081016040528092919081815260200182805461194690614d68565b80156119935780601f1061196857610100808354040283529160200191611993565b820191906000526020600020905b81548152906001019060200180831161197657829003601f168201915b505050505081526020016003820180546119ac90614d68565b80601f01602080910402602001604051908101604052809291908181526020018280546119d890614d68565b8015611a255780601f106119fa57610100808354040283529160200191611a25565b820191906000526020600020905b815481529060010190602001808311611a0857829003601f168201915b50505050508152602001600482018054611a3e90614d68565b80601f0160208091040260200160405190810160405280929190818152602001828054611a6a90614d68565b8015611ab75780601f10611a8c57610100808354040283529160200191611ab7565b820191906000526020600020905b815481529060010190602001808311611a9a57829003601f168201915b50505050508152602001600582018054611ad090614d68565b80601f0160208091040260200160405190810160405280929190818152602001828054611afc90614d68565b8015611b495780601f10611b1e57610100808354040283529160200191611b49565b820191906000526020600020905b815481529060010190602001808311611b2c57829003601f168201915b50505050508152602001600682018054611b6290614d68565b80601f0160208091040260200160405190810160405280929190818152602001828054611b8e90614d68565b8015611bdb5780601f10611bb057610100808354040283529160200191611bdb565b820191906000526020600020905b815481529060010190602001808311611bbe57829003601f168201915b50505050508152602001600782018054611bf490614d68565b80601f0160208091040260200160405190810160405280929190818152602001828054611c2090614d68565b8015611c6d5780601f10611c4257610100808354040283529160200191611c6d565b820191906000526020600020905b815481529060010190602001808311611c5057829003601f168201915b50505050508152602001600882018054611c8690614d68565b80601f0160208091040260200160405190810160405280929190818152602001828054611cb290614d68565b8015611cff5780601f10611cd457610100808354040283529160200191611cff565b820191906000526020600020905b815481529060010190602001808311611ce257829003601f168201915b50505050508152602001600982018054611d1890614d68565b80601f0160208091040260200160405190810160405280929190818152602001828054611d4490614d68565b8015611d915780601f10611d6657610100808354040283529160200191611d91565b820191906000526020600020905b815481529060010190602001808311611d7457829003601f168201915b50505050508152602001600a82018054611daa90614d68565b80601f0160208091040260200160405190810160405280929190818152602001828054611dd690614d68565b8015611e235780601f10611df857610100808354040283529160200191611e23565b820191906000526020600020905b815481529060010190602001808311611e0657829003601f168201915b505050505081525050905080925050611e69565b6040517fd05e4aeb00000000000000000000000000000000000000000000000000000000815260040160405180910390fd5b50919050565b60608173ffffffffffffffffffffffffffffffffffffffff163373ffffffffffffffffffffffffffffffffffffffff160361203b57600360008373ffffffffffffffffffffffffffffffffffffffff1673ffffffffffffffffffffffffffffffffffffffff168152602001908152602001600020805480602002602001604051908101604052809291908181526020016000905b8282101561203057838290600052602060002090600502016040518060a0016040529081600082015481526020016001820160009054906101000a900473ffffffffffffffffffffffffffffffffffffffff1673ffffffffffffffffffffffffffffffffffffffff1673ffffffffffffffffffffffffffffffffffffffff1681526020016002820160009054906101000a900473ffffffffffffffffffffffffffffffffffffffff1673ffffffffffffffffffffffffffffffffffffffff1673ffffffffffffffffffffffffffffffffffffffff168152602001600382015481526020016004820160009054906101000a900460ff16600281111561200b5761200a61429c565b5b600281111561201d5761201c61429c565b5b8152505081526020019060010190611f03565b50505050905061206d565b6040517f57c0ff9e00000000000000000000000000000000000000000000000000000000815260040160405180910390fd5b919050565b3373ffffffffffffffffffffffffffffffffffffffff16600160003373ffffffffffffffffffffffffffffffffffffffff1673ffffffffffffffffffffffffffffffffffffffff16815260200190815260200160002060000160009054906101000a900473ffffffffffffffffffffffffffffffffffffffff1673ffffffffffffffffffffffffffffffffffffffff161461210c57600080fd5b888073ffffffffffffffffffffffffffffffffffffffff16600160008373ffffffffffffffffffffffffffffffffffffffff1673ffffffffffffffffffffffffffffffffffffffff16815260200190815260200160002060000160009054906101000a900473ffffffffffffffffffffffffffffffffffffffff1673ffffffffffffffffffffffffffffffffffffffff16146121a757600080fd5b6000600160003373ffffffffffffffffffffffffffffffffffffffff1673ffffffffffffffffffffffffffffffffffffffff16815260200190815260200160002090508a73ffffffffffffffffffffffffffffffffffffffff168160000160009054906101000a900473ffffffffffffffffffffffffffffffffffffffff1673ffffffffffffffffffffffffffffffffffffffff1614612273576040517f57c0ff9e00000000000000000000000000000000000000000000000000000000815260040160405180910390fd5b898160010190816122849190614f45565b50888160020190816122969190614f45565b50878160030190816122a89190614f45565b50868160040190816122ba9190614f45565b50858160050190816122cc9190614f45565b50848160060190816122de9190614f45565b50838160070190816122f09190614f45565b50828160080190816123029190614f45565b507ff30e1da68c9578cb8eb176920ac0459c9a8744c373b44a2981dcf5b6ba4bf0198b8b8b6040516123369392919061508e565b60405180910390a15050505050505050505050565b612353613876565b6000600260008473ffffffffffffffffffffffffffffffffffffffff1673ffffffffffffffffffffffffffffffffffffffff168152602001908152602001600020805480602002602001604051908101604052809291908181526020016000905b8282101561265c57838290600052602060002090600702016040518060e001604052908160008201548152602001600182015481526020016002820160009054906101000a900473ffffffffffffffffffffffffffffffffffffffff1673ffffffffffffffffffffffffffffffffffffffff1673ffffffffffffffffffffffffffffffffffffffff1681526020016003820160009054906101000a900473ffffffffffffffffffffffffffffffffffffffff1673ffffffffffffffffffffffffffffffffffffffff1673ffffffffffffffffffffffffffffffffffffffff1681526020016004820180546124a790614d68565b80601f01602080910402602001604051908101604052809291908181526020018280546124d390614d68565b80156125205780601f106124f557610100808354040283529160200191612520565b820191906000526020600020905b81548152906001019060200180831161250357829003601f168201915b5050505050815260200160058201805461253990614d68565b80601f016020809104026020016040519081016040528092919081815260200182805461256590614d68565b80156125b25780601f10612587576101008083540402835291602001916125b2565b820191906000526020600020905b81548152906001019060200180831161259557829003601f168201915b505050505081526020016006820180546125cb90614d68565b80601f01602080910402602001604051908101604052809291908181526020018280546125f790614d68565b80156126445780601f1061261957610100808354040283529160200191612644565b820191906000526020600020905b81548152906001019060200180831161262757829003601f168201915b505050505081525050815260200190600101906123b4565b5050505090508273ffffffffffffffffffffffffffffffffffffffff163373ffffffffffffffffffffffffffffffffffffffff16036127305760005b81518110156126fd57848282815181106126b5576126b4614d0a565b5b602002602001015160000151036126ea578181815181106126d9576126d8614d0a565b5b602002602001015192505050612762565b80806126f590615046565b915050612698565b506040517f7c2ee70a00000000000000000000000000000000000000000000000000000000815260040160405180910390fd5b6040517fd05e4aeb00000000000000000000000000000000000000000000000000000000815260040160405180910390fd5b92915050565b60608173ffffffffffffffffffffffffffffffffffffffff163373ffffffffffffffffffffffffffffffffffffffff1603612aaf57600260008373ffffffffffffffffffffffffffffffffffffffff1673ffffffffffffffffffffffffffffffffffffffff168152602001908152602001600020805480602002602001604051908101604052809291908181526020016000905b82821015612aa457838290600052602060002090600702016040518060e001604052908160008201548152602001600182015481526020016002820160009054906101000a900473ffffffffffffffffffffffffffffffffffffffff1673ffffffffffffffffffffffffffffffffffffffff1673ffffffffffffffffffffffffffffffffffffffff1681526020016003820160009054906101000a900473ffffffffffffffffffffffffffffffffffffffff1673ffffffffffffffffffffffffffffffffffffffff1673ffffffffffffffffffffffffffffffffffffffff1681526020016004820180546128ef90614d68565b80601f016020809104026020016040519081016040528092919081815260200182805461291b90614d68565b80156129685780601f1061293d57610100808354040283529160200191612968565b820191906000526020600020905b81548152906001019060200180831161294b57829003601f168201915b5050505050815260200160058201805461298190614d68565b80601f01602080910402602001604051908101604052809291908181526020018280546129ad90614d68565b80156129fa5780601f106129cf576101008083540402835291602001916129fa565b820191906000526020600020905b8154815290600101906020018083116129dd57829003601f168201915b50505050508152602001600682018054612a1390614d68565b80601f0160208091040260200160405190810160405280929190818152602001828054612a3f90614d68565b8015612a8c5780601f10612a6157610100808354040283529160200191612a8c565b820191906000526020600020905b815481529060010190602001808311612a6f57829003601f168201915b505050505081525050815260200190600101906127fc565b505050509050612ae1565b6040517fd05e4aeb00000000000000000000000000000000000000000000000000000000815260040160405180910390fd5b919050565b3373ffffffffffffffffffffffffffffffffffffffff166000803373ffffffffffffffffffffffffffffffffffffffff1673ffffffffffffffffffffffffffffffffffffffff16815260200190815260200160002060000160009054906101000a900473ffffffffffffffffffffffffffffffffffffffff1673ffffffffffffffffffffffffffffffffffffffff161480612c0e57503373ffffffffffffffffffffffffffffffffffffffff16600160003373ffffffffffffffffffffffffffffffffffffffff1673ffffffffffffffffffffffffffffffffffffffff16815260200190815260200160002060000160009054906101000a900473ffffffffffffffffffffffffffffffffffffffff1673ffffffffffffffffffffffffffffffffffffffff16145b15612c45576040517f06d6763e00000000000000000000000000000000000000000000000000000000815260040160405180910390fd5b6040518061016001604052803373ffffffffffffffffffffffffffffffffffffffff1681526020018b81526020018a8152602001898152602001888152602001878152602001868152602001858152602001848152602001838152602001828152506000803373ffffffffffffffffffffffffffffffffffffffff1673ffffffffffffffffffffffffffffffffffffffff16815260200190815260200160002060008201518160000160006101000a81548173ffffffffffffffffffffffffffffffffffffffff021916908373ffffffffffffffffffffffffffffffffffffffff1602179055506020820151816001019081612d419190614f45565b506040820151816002019081612d579190614f45565b506060820151816003019081612d6d9190614f45565b506080820151816004019081612d839190614f45565b5060a0820151816005019081612d999190614f45565b5060c0820151816006019081612daf9190614f45565b5060e0820151816007019081612dc59190614f45565b50610100820151816008019081612ddc9190614f45565b50610120820151816009019081612df39190614f45565b5061014082015181600a019081612e0a9190614f45565b509050507f2ebd0466e7f37c1b237d3558e4b06b95b9eac254029aab5b1ba131bf543943c5338b8b604051612e419392919061508e565b60405180910390a150505050505050505050565b3373ffffffffffffffffffffffffffffffffffffffff166000803373ffffffffffffffffffffffffffffffffffffffff1673ffffffffffffffffffffffffffffffffffffffff16815260200190815260200160002060000160009054906101000a900473ffffffffffffffffffffffffffffffffffffffff1673ffffffffffffffffffffffffffffffffffffffff1614612eee57600080fd5b6000600360003373ffffffffffffffffffffffffffffffffffffffff1673ffffffffffffffffffffffffffffffffffffffff16815260200190815260200160002090506000805b82805490508110156131845784838281548110612f5557612f54614d0a565b5b906000526020600020906005020160000154148015612fe357503373ffffffffffffffffffffffffffffffffffffffff16838281548110612f9957612f98614d0a565b5b906000526020600020906005020160010160009054906101000a900473ffffffffffffffffffffffffffffffffffffffff1673ffffffffffffffffffffffffffffffffffffffff16145b8015613045575060016002811115612ffe57612ffd61429c565b5b83828154811061301157613010614d0a565b5b906000526020600020906005020160040160009054906101000a900460ff1660028111156130425761304161429c565b5b14155b15613171576001915060011515841515036130e557600183828154811061306f5761306e614d0a565b5b906000526020600020906005020160040160006101000a81548160ff021916908360028111156130a2576130a161429c565b5b02179055507f018d20fd47cfe9d9fbbb820b1382a761202af36a6ac915250998f3bf6fbd3d7d85336040516130d89291906150d3565b60405180910390a161316c565b60028382815481106130fa576130f9614d0a565b5b906000526020600020906005020160040160006101000a81548160ff0219169083600281111561312d5761312c61429c565b5b02179055507f8a72a3ba2466ad2f9a4ce076580545941f36596a0d91500a2f6e6b2e291d1f0d85336040516131639291906150d3565b60405180910390a15b613184565b808061317c90615046565b915050612f35565b50806131bc576040517fcbf74bb600000000000000000000000000000000000000000000000000000000815260040160405180910390fd5b50505050565b3373ffffffffffffffffffffffffffffffffffffffff16600160003373ffffffffffffffffffffffffffffffffffffffff1673ffffffffffffffffffffffffffffffffffffffff16815260200190815260200160002060000160009054906101000a900473ffffffffffffffffffffffffffffffffffffffff1673ffffffffffffffffffffffffffffffffffffffff161461325c57600080fd5b6000600360008873ffffffffffffffffffffffffffffffffffffffff1673ffffffffffffffffffffffffffffffffffffffff16815260200190815260200160002090506000805b828054905081101561342057868382815481106132c3576132c2614d0a565b5b90600052602060002090600502016000015414801561335157503373ffffffffffffffffffffffffffffffffffffffff1683828154811061330757613306614d0a565b5b906000526020600020906005020160020160009054906101000a900473ffffffffffffffffffffffffffffffffffffffff1673ffffffffffffffffffffffffffffffffffffffff16145b80156133b257506001600281111561336c5761336b61429c565b5b83828154811061337f5761337e614d0a565b5b906000526020600020906005020160040160009054906101000a900460ff1660028111156133b0576133af61429c565b5b145b1561340d576001915060008382815481106133d0576133cf614d0a565b5b906000526020600020906005020160040160006101000a81548160ff021916908360028111156134035761340261429c565b5b0217905550613420565b808061341890615046565b9150506132a3565b5080613458576040517fae97f79000000000000000000000000000000000000000000000000000000000815260040160405180910390fd5b6000600260008a73ffffffffffffffffffffffffffffffffffffffff1673ffffffffffffffffffffffffffffffffffffffff16815260200190815260200160002090506000805b82805490508110156135ec57898382815481106134bf576134be614d0a565b5b906000526020600020906007020160000154036135d95760019150878382815481106134ee576134ed614d0a565b5b9060005260206000209060070201600401908161350b9190614f45565b50868382815481106135205761351f614d0a565b5b9060005260206000209060070201600501908161353d9190614f45565b508583828154811061355257613551614d0a565b5b9060005260206000209060070201600601908161356f9190614f45565b504283828154811061358457613583614d0a565b5b9060005260206000209060070201600101819055507f2db782a0c3495e8ab207b4c5b1b4274529d615e5e061b512e440d4c070634d188a8c336040516135cc93929190614cd3565b60405180910390a16135ec565b80806135e490615046565b91505061349f565b5080613624576040517f7c2ee70a00000000000000000000000000000000000000000000000000000000815260040160405180910390fd5b50505050505050505050565b6060818073ffffffffffffffffffffffffffffffffffffffff166000808373ffffffffffffffffffffffffffffffffffffffff1673ffffffffffffffffffffffffffffffffffffffff16815260200190815260200160002060000160009054906101000a900473ffffffffffffffffffffffffffffffffffffffff1673ffffffffffffffffffffffffffffffffffffffff16146136cc57600080fd5b60008060008573ffffffffffffffffffffffffffffffffffffffff1673ffffffffffffffffffffffffffffffffffffffff168152602001908152602001600020600701805461371a90614d68565b80601f016020809104026020016040519081016040528092919081815260200182805461374690614d68565b80156137935780601f1061376857610100808354040283529160200191613793565b820191906000526020600020905b81548152906001019060200180831161377657829003601f168201915b505050505090508092505050919050565b604051806101200160405280600073ffffffffffffffffffffffffffffffffffffffff16815260200160608152602001606081526020016060815260200160608152602001606081526020016060815260200160608152602001606081525090565b604051806101600160405280600073ffffffffffffffffffffffffffffffffffffffff168152602001606081526020016060815260200160608152602001606081526020016060815260200160608152602001606081526020016060815260200160608152602001606081525090565b6040518060e001604052806000815260200160008152602001600073ffffffffffffffffffffffffffffffffffffffff168152602001600073ffffffffffffffffffffffffffffffffffffffff1681526020016060815260200160608152602001606081525090565b6000604051905090565b600080fd5b600080fd5b600073ffffffffffffffffffffffffffffffffffffffff82169050919050565b600061391e826138f3565b9050919050565b61392e81613913565b811461393957600080fd5b50565b60008135905061394b81613925565b92915050565b600060208284031215613967576139666138e9565b5b60006139758482850161393c565b91505092915050565b6000819050919050565b6139918161397e565b811461399c57600080fd5b50565b6000813590506139ae81613988565b92915050565b600080fd5b600080fd5b6000601f19601f8301169050919050565b7f4e487b7100000000000000000000000000000000000000000000000000000000600052604160045260246000fd5b613a07826139be565b810181811067ffffffffffffffff82111715613a2657613a256139cf565b5b80604052505050565b6000613a396138df565b9050613a4582826139fe565b919050565b600067ffffffffffffffff821115613a6557613a646139cf565b5b613a6e826139be565b9050602081019050919050565b82818337600083830152505050565b6000613a9d613a9884613a4a565b613a2f565b905082815260208101848484011115613ab957613ab86139b9565b5b613ac4848285613a7b565b509392505050565b600082601f830112613ae157613ae06139b4565b5b8135613af1848260208601613a8a565b91505092915050565b600080600080600060a08688031215613b1657613b156138e9565b5b6000613b248882890161399f565b9550506020613b358882890161393c565b945050604086013567ffffffffffffffff811115613b5657613b556138ee565b5b613b6288828901613acc565b935050606086013567ffffffffffffffff811115613b8357613b826138ee565b5b613b8f88828901613acc565b925050608086013567ffffffffffffffff811115613bb057613baf6138ee565b5b613bbc88828901613acc565b9150509295509295909350565b60008060008060008060008060008060006101608c8e031215613bef57613bee6138e9565b5b6000613bfd8e828f0161393c565b9b505060208c013567ffffffffffffffff811115613c1e57613c1d6138ee565b5b613c2a8e828f01613acc565b9a505060408c013567ffffffffffffffff811115613c4b57613c4a6138ee565b5b613c578e828f01613acc565b99505060608c013567ffffffffffffffff811115613c7857613c776138ee565b5b613c848e828f01613acc565b98505060808c013567ffffffffffffffff811115613ca557613ca46138ee565b5b613cb18e828f01613acc565b97505060a08c013567ffffffffffffffff811115613cd257613cd16138ee565b5b613cde8e828f01613acc565b96505060c08c013567ffffffffffffffff811115613cff57613cfe6138ee565b5b613d0b8e828f01613acc565b95505060e08c013567ffffffffffffffff811115613d2c57613d2b6138ee565b5b613d388e828f01613acc565b9450506101008c013567ffffffffffffffff811115613d5a57613d596138ee565b5b613d668e828f01613acc565b9350506101208c013567ffffffffffffffff811115613d8857613d876138ee565b5b613d948e828f01613acc565b9250506101408c013567ffffffffffffffff811115613db657613db56138ee565b5b613dc28e828f01613acc565b9150509295989b509295989b9093969950565b613dde81613913565b82525050565b600081519050919050565b600082825260208201905092915050565b60005b83811015613e1e578082015181840152602081019050613e03565b60008484015250505050565b6000613e3582613de4565b613e3f8185613def565b9350613e4f818560208601613e00565b613e58816139be565b840191505092915050565b600061012083016000830151613e7c6000860182613dd5565b5060208301518482036020860152613e948282613e2a565b91505060408301518482036040860152613eae8282613e2a565b91505060608301518482036060860152613ec88282613e2a565b91505060808301518482036080860152613ee28282613e2a565b91505060a083015184820360a0860152613efc8282613e2a565b91505060c083015184820360c0860152613f168282613e2a565b91505060e083015184820360e0860152613f308282613e2a565b915050610100830151848203610100860152613f4c8282613e2a565b9150508091505092915050565b60006020820190508181036000830152613f738184613e63565b905092915050565b600080600080600080600080610100898b031215613f9c57613f9b6138e9565b5b600089013567ffffffffffffffff811115613fba57613fb96138ee565b5b613fc68b828c01613acc565b985050602089013567ffffffffffffffff811115613fe757613fe66138ee565b5b613ff38b828c01613acc565b975050604089013567ffffffffffffffff811115614014576140136138ee565b5b6140208b828c01613acc565b965050606089013567ffffffffffffffff811115614041576140406138ee565b5b61404d8b828c01613acc565b955050608089013567ffffffffffffffff81111561406e5761406d6138ee565b5b61407a8b828c01613acc565b94505060a089013567ffffffffffffffff81111561409b5761409a6138ee565b5b6140a78b828c01613acc565b93505060c089013567ffffffffffffffff8111156140c8576140c76138ee565b5b6140d48b828c01613acc565b92505060e089013567ffffffffffffffff8111156140f5576140f46138ee565b5b6141018b828c01613acc565b9150509295985092959890939650565b60006101608301600083015161412a6000860182613dd5565b50602083015184820360208601526141428282613e2a565b9150506040830151848203604086015261415c8282613e2a565b915050606083015184820360608601526141768282613e2a565b915050608083015184820360808601526141908282613e2a565b91505060a083015184820360a08601526141aa8282613e2a565b91505060c083015184820360c08601526141c48282613e2a565b91505060e083015184820360e08601526141de8282613e2a565b9150506101008301518482036101008601526141fa8282613e2a565b9150506101208301518482036101208601526142168282613e2a565b9150506101408301518482036101408601526142328282613e2a565b9150508091505092915050565b600060208201905081810360008301526142598184614111565b905092915050565b600081519050919050565b600082825260208201905092915050565b6000819050602082019050919050565b6142968161397e565b82525050565b7f4e487b7100000000000000000000000000000000000000000000000000000000600052602160045260246000fd5b600381106142dc576142db61429c565b5b50565b60008190506142ed826142cb565b919050565b60006142fd826142df565b9050919050565b61430d816142f2565b82525050565b60a082016000820151614329600085018261428d565b50602082015161433c6020850182613dd5565b50604082015161434f6040850182613dd5565b506060820151614362606085018261428d565b5060808201516143756080850182614304565b50505050565b60006143878383614313565b60a08301905092915050565b6000602082019050919050565b60006143ab82614261565b6143b5818561426c565b93506143c08361427d565b8060005b838110156143f15781516143d8888261437b565b97506143e383614393565b9250506001810190506143c4565b5085935050505092915050565b6000602082019050818103600083015261441881846143a0565b905092915050565b60008060008060008060008060006101208a8c031215614443576144426138e9565b5b60006144518c828d0161393c565b99505060208a013567ffffffffffffffff811115614472576144716138ee565b5b61447e8c828d01613acc565b98505060408a013567ffffffffffffffff81111561449f5761449e6138ee565b5b6144ab8c828d01613acc565b97505060608a013567ffffffffffffffff8111156144cc576144cb6138ee565b5b6144d88c828d01613acc565b96505060808a013567ffffffffffffffff8111156144f9576144f86138ee565b5b6145058c828d01613acc565b95505060a08a013567ffffffffffffffff811115614526576145256138ee565b5b6145328c828d01613acc565b94505060c08a013567ffffffffffffffff811115614553576145526138ee565b5b61455f8c828d01613acc565b93505060e08a013567ffffffffffffffff8111156145805761457f6138ee565b5b61458c8c828d01613acc565b9250506101008a013567ffffffffffffffff8111156145ae576145ad6138ee565b5b6145ba8c828d01613acc565b9150509295985092959850929598565b600080604083850312156145e1576145e06138e9565b5b60006145ef8582860161399f565b92505060206146008582860161393c565b9150509250929050565b600060e083016000830151614622600086018261428d565b506020830151614635602086018261428d565b5060408301516146486040860182613dd5565b50606083015161465b6060860182613dd5565b50608083015184820360808601526146738282613e2a565b91505060a083015184820360a086015261468d8282613e2a565b91505060c083015184820360c08601526146a78282613e2a565b9150508091505092915050565b600060208201905081810360008301526146ce818461460a565b905092915050565b600081519050919050565b600082825260208201905092915050565b6000819050602082019050919050565b600060e08301600083015161471a600086018261428d565b50602083015161472d602086018261428d565b5060408301516147406040860182613dd5565b5060608301516147536060860182613dd5565b506080830151848203608086015261476b8282613e2a565b91505060a083015184820360a08601526147858282613e2a565b91505060c083015184820360c086015261479f8282613e2a565b9150508091505092915050565b60006147b88383614702565b905092915050565b6000602082019050919050565b60006147d8826146d6565b6147e281856146e1565b9350836020820285016147f4856146f2565b8060005b85811015614830578484038952815161481185826147ac565b945061481c836147c0565b925060208a019950506001810190506147f8565b50829750879550505050505092915050565b6000602082019050818103600083015261485c81846147cd565b905092915050565b6000806000806000806000806000806101408b8d031215614888576148876138e9565b5b60008b013567ffffffffffffffff8111156148a6576148a56138ee565b5b6148b28d828e01613acc565b9a505060208b013567ffffffffffffffff8111156148d3576148d26138ee565b5b6148df8d828e01613acc565b99505060408b013567ffffffffffffffff811115614900576148ff6138ee565b5b61490c8d828e01613acc565b98505060608b013567ffffffffffffffff81111561492d5761492c6138ee565b5b6149398d828e01613acc565b97505060808b013567ffffffffffffffff81111561495a576149596138ee565b5b6149668d828e01613acc565b96505060a08b013567ffffffffffffffff811115614987576149866138ee565b5b6149938d828e01613acc565b95505060c08b013567ffffffffffffffff8111156149b4576149b36138ee565b5b6149c08d828e01613acc565b94505060e08b013567ffffffffffffffff8111156149e1576149e06138ee565b5b6149ed8d828e01613acc565b9350506101008b013567ffffffffffffffff811115614a0f57614a0e6138ee565b5b614a1b8d828e01613acc565b9250506101208b013567ffffffffffffffff811115614a3d57614a3c6138ee565b5b614a498d828e01613acc565b9150509295989b9194979a5092959850565b60008115159050919050565b614a7081614a5b565b8114614a7b57600080fd5b50565b600081359050614a8d81614a67565b92915050565b60008060408385031215614aaa57614aa96138e9565b5b6000614ab88582860161399f565b9250506020614ac985828601614a7e565b9150509250929050565b60008060008060008060c08789031215614af057614aef6138e9565b5b6000614afe89828a0161393c565b9650506020614b0f89828a0161399f565b9550506040614b2089828a0161399f565b945050606087013567ffffffffffffffff811115614b4157614b406138ee565b5b614b4d89828a01613acc565b935050608087013567ffffffffffffffff811115614b6e57614b6d6138ee565b5b614b7a89828a01613acc565b92505060a087013567ffffffffffffffff811115614b9b57614b9a6138ee565b5b614ba789828a01613acc565b9150509295509295509295565b600082825260208201905092915050565b6000614bd082613de4565b614bda8185614bb4565b9350614bea818560208601613e00565b614bf3816139be565b840191505092915050565b60006020820190508181036000830152614c188184614bc5565b905092915050565b6000819050919050565b614c3b614c368261397e565b614c20565b82525050565b60008160601b9050919050565b6000614c5982614c41565b9050919050565b6000614c6b82614c4e565b9050919050565b614c83614c7e82613913565b614c60565b82525050565b6000614c958285614c2a565b602082019150614ca58284614c72565b6014820191508190509392505050565b614cbe8161397e565b82525050565b614ccd81613913565b82525050565b6000606082019050614ce86000830186614cb5565b614cf56020830185614cc4565b614d026040830184614cc4565b949350505050565b7f4e487b7100000000000000000000000000000000000000000000000000000000600052603260045260246000fd5b7f4e487b7100000000000000000000000000000000000000000000000000000000600052602260045260246000fd5b60006002820490506001821680614d8057607f821691505b602082108103614d9357614d92614d39565b5b50919050565b60008190508160005260206000209050919050565b60006020601f8301049050919050565b600082821b905092915050565b600060088302614dfb7fffffffffffffffffffffffffffffffffffffffffffffffffffffffffffffffff82614dbe565b614e058683614dbe565b95508019841693508086168417925050509392505050565b6000819050919050565b6000614e42614e3d614e388461397e565b614e1d565b61397e565b9050919050565b6000819050919050565b614e5c83614e27565b614e70614e6882614e49565b848454614dcb565b825550505050565b600090565b614e85614e78565b614e90818484614e53565b505050565b5b81811015614eb457614ea9600082614e7d565b600181019050614e96565b5050565b601f821115614ef957614eca81614d99565b614ed384614dae565b81016020851015614ee2578190505b614ef6614eee85614dae565b830182614e95565b50505b505050565b600082821c905092915050565b6000614f1c60001984600802614efe565b1980831691505092915050565b6000614f358383614f0b565b9150826002028217905092915050565b614f4e82613de4565b67ffffffffffffffff811115614f6757614f666139cf565b5b614f718254614d68565b614f7c828285614eb8565b600060209050601f831160018114614faf5760008415614f9d578287015190505b614fa78582614f29565b86555061500f565b601f198416614fbd86614d99565b60005b82811015614fe557848901518255600182019150602085019450602081019050614fc0565b868310156150025784890151614ffe601f891682614f0b565b8355505b6001600288020188555050505b505050505050565b7f4e487b7100000000000000000000000000000000000000000000000000000000600052601160045260246000fd5b60006150518261397e565b91507fffffffffffffffffffffffffffffffffffffffffffffffffffffffffffffffff820361508357615082615017565b5b600182019050919050565b60006060820190506150a36000830186614cc4565b81810360208301526150b58185614bc5565b905081810360408301526150c98184614bc5565b9050949350505050565b60006040820190506150e86000830185614cb5565b6150f56020830184614cc4565b939250505056fea2646970667358221220574f7e57b0649b71388627cce627e7046e491c8f60d377d1273a4ecabbf1c6b264736f6c63430008120033",
  "devdoc": {
    "author": "Alberto Toscano",
    "kind": "dev",
    "methods": {},
    "title": "HealthChain",
    "version": 1
  },
  "userdoc": {
    "kind": "user",
    "methods": {},
    "notice": "HealthChain is a decentralized health records management system. It allows doctors to create and update medical records for their patients, while ensuring patient privacy and control over their data. Patients can grant access to their medical records to specific doctors by approving requests.",
    "version": 1
  },
  "storageLayout": {
    "storage": [
      {
        "astId": 92,
        "contract": "contracts/Healthchain.sol:HealthChain",
        "label": "s_patients",
        "offset": 0,
        "slot": "0",
        "type": "t_mapping(t_address,t_struct(Patient)60_storage)"
      },
      {
        "astId": 97,
        "contract": "contracts/Healthchain.sol:HealthChain",
        "label": "s_doctors",
        "offset": 0,
        "slot": "1",
        "type": "t_mapping(t_address,t_struct(Doctor)37_storage)"
      },
      {
        "astId": 103,
        "contract": "contracts/Healthchain.sol:HealthChain",
        "label": "s_medicalRecords",
        "offset": 0,
        "slot": "2",
        "type": "t_mapping(t_address,t_array(t_struct(MedicalRecord)75_storage)dyn_storage)"
      },
      {
        "astId": 109,
        "contract": "contracts/Healthchain.sol:HealthChain",
        "label": "s_requests",
        "offset": 0,
        "slot": "3",
        "type": "t_mapping(t_address,t_array(t_struct(Request)87_storage)dyn_storage)"
      }
    ],
    "types": {
      "t_address": {
        "encoding": "inplace",
        "label": "address",
        "numberOfBytes": "20"
      },
      "t_array(t_struct(MedicalRecord)75_storage)dyn_storage": {
        "base": "t_struct(MedicalRecord)75_storage",
        "encoding": "dynamic_array",
        "label": "struct HealthChain.MedicalRecord[]",
        "numberOfBytes": "32"
      },
      "t_array(t_struct(Request)87_storage)dyn_storage": {
        "base": "t_struct(Request)87_storage",
        "encoding": "dynamic_array",
        "label": "struct HealthChain.Request[]",
        "numberOfBytes": "32"
      },
      "t_enum(RequestStatus)18": {
        "encoding": "inplace",
        "label": "enum HealthChain.RequestStatus",
        "numberOfBytes": "1"
      },
      "t_mapping(t_address,t_array(t_struct(MedicalRecord)75_storage)dyn_storage)": {
        "encoding": "mapping",
        "key": "t_address",
        "label": "mapping(address => struct HealthChain.MedicalRecord[])",
        "numberOfBytes": "32",
        "value": "t_array(t_struct(MedicalRecord)75_storage)dyn_storage"
      },
      "t_mapping(t_address,t_array(t_struct(Request)87_storage)dyn_storage)": {
        "encoding": "mapping",
        "key": "t_address",
        "label": "mapping(address => struct HealthChain.Request[])",
        "numberOfBytes": "32",
        "value": "t_array(t_struct(Request)87_storage)dyn_storage"
      },
      "t_mapping(t_address,t_struct(Doctor)37_storage)": {
        "encoding": "mapping",
        "key": "t_address",
        "label": "mapping(address => struct HealthChain.Doctor)",
        "numberOfBytes": "32",
        "value": "t_struct(Doctor)37_storage"
      },
      "t_mapping(t_address,t_struct(Patient)60_storage)": {
        "encoding": "mapping",
        "key": "t_address",
        "label": "mapping(address => struct HealthChain.Patient)",
        "numberOfBytes": "32",
        "value": "t_struct(Patient)60_storage"
      },
      "t_string_storage": {
        "encoding": "bytes",
        "label": "string",
        "numberOfBytes": "32"
      },
      "t_struct(Doctor)37_storage": {
        "encoding": "inplace",
        "label": "struct HealthChain.Doctor",
        "members": [
          {
            "astId": 20,
            "contract": "contracts/Healthchain.sol:HealthChain",
            "label": "id",
            "offset": 0,
            "slot": "0",
            "type": "t_address"
          },
          {
            "astId": 22,
            "contract": "contracts/Healthchain.sol:HealthChain",
            "label": "name",
            "offset": 0,
            "slot": "1",
            "type": "t_string_storage"
          },
          {
            "astId": 24,
            "contract": "contracts/Healthchain.sol:HealthChain",
            "label": "surname",
            "offset": 0,
            "slot": "2",
            "type": "t_string_storage"
          },
          {
            "astId": 26,
            "contract": "contracts/Healthchain.sol:HealthChain",
            "label": "dateOfBirth",
            "offset": 0,
            "slot": "3",
            "type": "t_string_storage"
          },
          {
            "astId": 28,
            "contract": "contracts/Healthchain.sol:HealthChain",
            "label": "email",
            "offset": 0,
            "slot": "4",
            "type": "t_string_storage"
          },
          {
            "astId": 30,
            "contract": "contracts/Healthchain.sol:HealthChain",
            "label": "telephone",
            "offset": 0,
            "slot": "5",
            "type": "t_string_storage"
          },
          {
            "astId": 32,
            "contract": "contracts/Healthchain.sol:HealthChain",
            "label": "zipCode",
            "offset": 0,
            "slot": "6",
            "type": "t_string_storage"
          },
          {
            "astId": 34,
            "contract": "contracts/Healthchain.sol:HealthChain",
            "label": "city",
            "offset": 0,
            "slot": "7",
            "type": "t_string_storage"
          },
          {
            "astId": 36,
            "contract": "contracts/Healthchain.sol:HealthChain",
            "label": "country",
            "offset": 0,
            "slot": "8",
            "type": "t_string_storage"
          }
        ],
        "numberOfBytes": "288"
      },
      "t_struct(MedicalRecord)75_storage": {
        "encoding": "inplace",
        "label": "struct HealthChain.MedicalRecord",
        "members": [
          {
            "astId": 62,
            "contract": "contracts/Healthchain.sol:HealthChain",
            "label": "id",
            "offset": 0,
            "slot": "0",
            "type": "t_uint256"
          },
          {
            "astId": 64,
            "contract": "contracts/Healthchain.sol:HealthChain",
            "label": "timeAdded",
            "offset": 0,
            "slot": "1",
            "type": "t_uint256"
          },
          {
            "astId": 66,
            "contract": "contracts/Healthchain.sol:HealthChain",
            "label": "patientId",
            "offset": 0,
            "slot": "2",
            "type": "t_address"
          },
          {
            "astId": 68,
            "contract": "contracts/Healthchain.sol:HealthChain",
            "label": "doctorId",
            "offset": 0,
            "slot": "3",
            "type": "t_address"
          },
          {
            "astId": 70,
            "contract": "contracts/Healthchain.sol:HealthChain",
            "label": "fileName",
            "offset": 0,
            "slot": "4",
            "type": "t_string_storage"
          },
          {
            "astId": 72,
            "contract": "contracts/Healthchain.sol:HealthChain",
            "label": "hospital",
            "offset": 0,
            "slot": "5",
            "type": "t_string_storage"
          },
          {
            "astId": 74,
            "contract": "contracts/Healthchain.sol:HealthChain",
            "label": "details",
            "offset": 0,
            "slot": "6",
            "type": "t_string_storage"
          }
        ],
        "numberOfBytes": "224"
      },
      "t_struct(Patient)60_storage": {
        "encoding": "inplace",
        "label": "struct HealthChain.Patient",
        "members": [
          {
            "astId": 39,
            "contract": "contracts/Healthchain.sol:HealthChain",
            "label": "id",
            "offset": 0,
            "slot": "0",
            "type": "t_address"
          },
          {
            "astId": 41,
            "contract": "contracts/Healthchain.sol:HealthChain",
            "label": "name",
            "offset": 0,
            "slot": "1",
            "type": "t_string_storage"
          },
          {
            "astId": 43,
            "contract": "contracts/Healthchain.sol:HealthChain",
            "label": "surname",
            "offset": 0,
            "slot": "2",
            "type": "t_string_storage"
          },
          {
            "astId": 45,
            "contract": "contracts/Healthchain.sol:HealthChain",
            "label": "dateOfBirth",
            "offset": 0,
            "slot": "3",
            "type": "t_string_storage"
          },
          {
            "astId": 47,
            "contract": "contracts/Healthchain.sol:HealthChain",
            "label": "email",
            "offset": 0,
            "slot": "4",
            "type": "t_string_storage"
          },
          {
            "astId": 49,
            "contract": "contracts/Healthchain.sol:HealthChain",
            "label": "telephone",
            "offset": 0,
            "slot": "5",
            "type": "t_string_storage"
          },
          {
            "astId": 51,
            "contract": "contracts/Healthchain.sol:HealthChain",
            "label": "telephone2",
            "offset": 0,
            "slot": "6",
            "type": "t_string_storage"
          },
          {
            "astId": 53,
            "contract": "contracts/Healthchain.sol:HealthChain",
            "label": "doctorTelephone",
            "offset": 0,
            "slot": "7",
            "type": "t_string_storage"
          },
          {
            "astId": 55,
            "contract": "contracts/Healthchain.sol:HealthChain",
            "label": "zipCode",
            "offset": 0,
            "slot": "8",
            "type": "t_string_storage"
          },
          {
            "astId": 57,
            "contract": "contracts/Healthchain.sol:HealthChain",
            "label": "city",
            "offset": 0,
            "slot": "9",
            "type": "t_string_storage"
          },
          {
            "astId": 59,
            "contract": "contracts/Healthchain.sol:HealthChain",
            "label": "country",
            "offset": 0,
            "slot": "10",
            "type": "t_string_storage"
          }
        ],
        "numberOfBytes": "352"
      },
      "t_struct(Request)87_storage": {
        "encoding": "inplace",
        "label": "struct HealthChain.Request",
        "members": [
          {
            "astId": 77,
            "contract": "contracts/Healthchain.sol:HealthChain",
            "label": "requestId",
            "offset": 0,
            "slot": "0",
            "type": "t_uint256"
          },
          {
            "astId": 79,
            "contract": "contracts/Healthchain.sol:HealthChain",
            "label": "patientAddress",
            "offset": 0,
            "slot": "1",
            "type": "t_address"
          },
          {
            "astId": 81,
            "contract": "contracts/Healthchain.sol:HealthChain",
            "label": "doctorAddress",
            "offset": 0,
            "slot": "2",
            "type": "t_address"
          },
          {
            "astId": 83,
            "contract": "contracts/Healthchain.sol:HealthChain",
            "label": "timestamp",
            "offset": 0,
            "slot": "3",
            "type": "t_uint256"
          },
          {
            "astId": 86,
            "contract": "contracts/Healthchain.sol:HealthChain",
            "label": "status",
            "offset": 0,
            "slot": "4",
            "type": "t_enum(RequestStatus)18"
          }
        ],
        "numberOfBytes": "160"
      },
      "t_uint256": {
        "encoding": "inplace",
        "label": "uint256",
        "numberOfBytes": "32"
      }
    }
  }
}