{
  "address": "0xE1Ad0b51b062aCA90046A4e9e46c19D977Aa736f",
  "abi": [
    {
      "inputs": [],
      "name": "HealthChain__MedicalRecordNotFound",
      "type": "error"
    },
    {
      "inputs": [],
      "name": "HealthChain__cantAccessData",
      "type": "error"
    },
    {
      "inputs": [],
      "name": "HealthChain__notYourData",
      "type": "error"
    },
    {
      "inputs": [],
      "name": "HealthChain__requestNotApprovedYet",
      "type": "error"
    },
    {
      "inputs": [],
      "name": "HealthChain__requestNotFound",
      "type": "error"
    },
    {
      "inputs": [],
      "name": "HealthChain__youAlreadyHaveAnAccount",
      "type": "error"
    },
    {
      "anonymous": false,
      "inputs": [
        {
          "indexed": false,
          "internalType": "address",
          "name": "id",
          "type": "address"
        },
        {
          "indexed": false,
          "internalType": "string",
          "name": "name",
          "type": "string"
        },
        {
          "indexed": false,
          "internalType": "string",
          "name": "surname",
          "type": "string"
        }
      ],
      "name": "doctorCreated",
      "type": "event"
    },
    {
      "anonymous": false,
      "inputs": [
        {
          "indexed": false,
          "internalType": "address",
          "name": "id",
          "type": "address"
        },
        {
          "indexed": false,
          "internalType": "string",
          "name": "name",
          "type": "string"
        },
        {
          "indexed": false,
          "internalType": "string",
          "name": "surname",
          "type": "string"
        }
      ],
      "name": "doctorUpdated",
      "type": "event"
    },
    {
      "anonymous": false,
      "inputs": [
        {
          "indexed": false,
          "internalType": "uint256",
          "name": "medicalRecordId",
          "type": "uint256"
        },
        {
          "indexed": false,
          "internalType": "address",
          "name": "patientId",
          "type": "address"
        },
        {
          "indexed": false,
          "internalType": "address",
          "name": "doctorId",
          "type": "address"
        }
      ],
      "name": "medicalRecordCreated",
      "type": "event"
    },
    {
      "anonymous": false,
      "inputs": [
        {
          "indexed": false,
          "internalType": "uint256",
          "name": "medicalRecordId",
          "type": "uint256"
        },
        {
          "indexed": false,
          "internalType": "address",
          "name": "patientId",
          "type": "address"
        },
        {
          "indexed": false,
          "internalType": "address",
          "name": "doctorId",
          "type": "address"
        }
      ],
      "name": "medicalRecordUpdated",
      "type": "event"
    },
    {
      "anonymous": false,
      "inputs": [
        {
          "indexed": false,
          "internalType": "address",
          "name": "id",
          "type": "address"
        },
        {
          "indexed": false,
          "internalType": "string",
          "name": "name",
          "type": "string"
        },
        {
          "indexed": false,
          "internalType": "string",
          "name": "surname",
          "type": "string"
        }
      ],
      "name": "patientCreated",
      "type": "event"
    },
    {
      "anonymous": false,
      "inputs": [
        {
          "indexed": false,
          "internalType": "address",
          "name": "id",
          "type": "address"
        },
        {
          "indexed": false,
          "internalType": "string",
          "name": "name",
          "type": "string"
        },
        {
          "indexed": false,
          "internalType": "string",
          "name": "surname",
          "type": "string"
        }
      ],
      "name": "patientUpdated",
      "type": "event"
    },
    {
      "anonymous": false,
      "inputs": [
        {
          "indexed": false,
          "internalType": "uint256",
          "name": "requestId",
          "type": "uint256"
        },
        {
          "indexed": false,
          "internalType": "address",
          "name": "patientId",
          "type": "address"
        }
      ],
      "name": "requestApproved",
      "type": "event"
    },
    {
      "anonymous": false,
      "inputs": [
        {
          "indexed": false,
          "internalType": "uint256",
          "name": "requestId",
          "type": "uint256"
        },
        {
          "indexed": false,
          "internalType": "address",
          "name": "patientId",
          "type": "address"
        },
        {
          "indexed": false,
          "internalType": "address",
          "name": "doctorId",
          "type": "address"
        }
      ],
      "name": "requestCreated",
      "type": "event"
    },
    {
      "anonymous": false,
      "inputs": [
        {
          "indexed": false,
          "internalType": "uint256",
          "name": "requestId",
          "type": "uint256"
        },
        {
          "indexed": false,
          "internalType": "address",
          "name": "patientId",
          "type": "address"
        }
      ],
      "name": "requestRejected",
      "type": "event"
    },
    {
      "inputs": [
        {
          "internalType": "string",
          "name": "name",
          "type": "string"
        },
        {
          "internalType": "string",
          "name": "surname",
          "type": "string"
        },
        {
          "internalType": "string",
          "name": "dateOfBirth",
          "type": "string"
        },
        {
          "internalType": "string",
          "name": "email",
          "type": "string"
        },
        {
          "internalType": "string",
          "name": "telephone",
          "type": "string"
        },
        {
          "internalType": "string",
          "name": "zipCode",
          "type": "string"
        },
        {
          "internalType": "string",
          "name": "city",
          "type": "string"
        },
        {
          "internalType": "string",
          "name": "country",
          "type": "string"
        }
      ],
      "name": "createDoctor",
      "outputs": [],
      "stateMutability": "nonpayable",
      "type": "function"
    },
    {
      "inputs": [
        {
          "internalType": "uint256",
          "name": "requestId",
          "type": "uint256"
        },
        {
          "internalType": "address",
          "name": "patientId",
          "type": "address"
        },
        {
          "internalType": "string",
          "name": "fileName",
          "type": "string"
        },
        {
          "internalType": "string",
          "name": "hospital",
          "type": "string"
        },
        {
          "internalType": "string",
          "name": "details",
          "type": "string"
        }
      ],
      "name": "createMedicalRecord",
      "outputs": [],
      "stateMutability": "nonpayable",
      "type": "function"
    },
    {
      "inputs": [
        {
          "internalType": "address",
          "name": "doctorId",
          "type": "address"
        },
        {
          "internalType": "string",
          "name": "name",
          "type": "string"
        },
        {
          "internalType": "string",
          "name": "surname",
          "type": "string"
        },
        {
          "internalType": "string",
          "name": "dateOfBirth",
          "type": "string"
        },
        {
          "internalType": "string",
          "name": "email",
          "type": "string"
        },
        {
          "internalType": "string",
          "name": "telephone",
          "type": "string"
        },
        {
          "internalType": "string",
          "name": "telephone2",
          "type": "string"
        },
        {
          "internalType": "string",
          "name": "zipCode",
          "type": "string"
        },
        {
          "internalType": "string",
          "name": "city",
          "type": "string"
        },
        {
          "internalType": "string",
          "name": "country",
          "type": "string"
        }
      ],
      "name": "createPatient",
      "outputs": [],
      "stateMutability": "nonpayable",
      "type": "function"
    },
    {
      "inputs": [
        {
          "internalType": "address",
          "name": "patientAddress",
          "type": "address"
        }
      ],
      "name": "createRequest",
      "outputs": [],
      "stateMutability": "nonpayable",
      "type": "function"
    },
    {
      "inputs": [
        {
          "internalType": "address",
          "name": "doctorId",
          "type": "address"
        }
      ],
      "name": "getDoctorData",
      "outputs": [
        {
          "components": [
            {
              "internalType": "address",
              "name": "id",
              "type": "address"
            },
            {
              "internalType": "string",
              "name": "name",
              "type": "string"
            },
            {
              "internalType": "string",
              "name": "surname",
              "type": "string"
            },
            {
              "internalType": "string",
              "name": "dateOfBirth",
              "type": "string"
            },
            {
              "internalType": "string",
              "name": "email",
              "type": "string"
            },
            {
              "internalType": "string",
              "name": "telephone",
              "type": "string"
            },
            {
              "internalType": "string",
              "name": "zipCode",
              "type": "string"
            },
            {
              "internalType": "string",
              "name": "city",
              "type": "string"
            },
            {
              "internalType": "string",
              "name": "country",
              "type": "string"
            }
          ],
          "internalType": "struct HealthChain.Doctor",
          "name": "",
          "type": "tuple"
        }
      ],
      "stateMutability": "view",
      "type": "function"
    },
    {
      "inputs": [
        {
          "internalType": "uint256",
          "name": "medicalRecordId",
          "type": "uint256"
        },
        {
          "internalType": "address",
          "name": "patientId",
          "type": "address"
        }
      ],
      "name": "getMedicalRecordById",
      "outputs": [
        {
          "components": [
            {
              "internalType": "uint256",
              "name": "id",
              "type": "uint256"
            },
            {
              "internalType": "uint256",
              "name": "timeAdded",
              "type": "uint256"
            },
            {
              "internalType": "address",
              "name": "patientId",
              "type": "address"
            },
            {
              "internalType": "address",
              "name": "doctorId",
              "type": "address"
            },
            {
              "internalType": "string",
              "name": "fileName",
              "type": "string"
            },
            {
              "internalType": "string",
              "name": "hospital",
              "type": "string"
            },
            {
              "internalType": "string",
              "name": "details",
              "type": "string"
            }
          ],
          "internalType": "struct HealthChain.MedicalRecord",
          "name": "",
          "type": "tuple"
        }
      ],
      "stateMutability": "view",
      "type": "function"
    },
    {
      "inputs": [
        {
          "internalType": "address",
          "name": "patientId",
          "type": "address"
        }
      ],
      "name": "getMedicalRecords",
      "outputs": [
        {
          "components": [
            {
              "internalType": "uint256",
              "name": "id",
              "type": "uint256"
            },
            {
              "internalType": "uint256",
              "name": "timeAdded",
              "type": "uint256"
            },
            {
              "internalType": "address",
              "name": "patientId",
              "type": "address"
            },
            {
              "internalType": "address",
              "name": "doctorId",
              "type": "address"
            },
            {
              "internalType": "string",
              "name": "fileName",
              "type": "string"
            },
            {
              "internalType": "string",
              "name": "hospital",
              "type": "string"
            },
            {
              "internalType": "string",
              "name": "details",
              "type": "string"
            }
          ],
          "internalType": "struct HealthChain.MedicalRecord[]",
          "name": "",
          "type": "tuple[]"
        }
      ],
      "stateMutability": "view",
      "type": "function"
    },
    {
      "inputs": [
        {
          "internalType": "address",
          "name": "patientId",
          "type": "address"
        }
      ],
      "name": "getPatientData",
      "outputs": [
        {
          "components": [
            {
              "internalType": "address",
              "name": "id",
              "type": "address"
            },
            {
              "internalType": "address",
              "name": "doctorId",
              "type": "address"
            },
            {
              "internalType": "string",
              "name": "name",
              "type": "string"
            },
            {
              "internalType": "string",
              "name": "surname",
              "type": "string"
            },
            {
              "internalType": "string",
              "name": "dateOfBirth",
              "type": "string"
            },
            {
              "internalType": "string",
              "name": "email",
              "type": "string"
            },
            {
              "internalType": "string",
              "name": "telephone",
              "type": "string"
            },
            {
              "internalType": "string",
              "name": "telephone2",
              "type": "string"
            },
            {
              "internalType": "string",
              "name": "zipCode",
              "type": "string"
            },
            {
              "internalType": "string",
              "name": "city",
              "type": "string"
            },
            {
              "internalType": "string",
              "name": "country",
              "type": "string"
            }
          ],
          "internalType": "struct HealthChain.Patient",
          "name": "",
          "type": "tuple"
        }
      ],
      "stateMutability": "view",
      "type": "function"
    },
    {
      "inputs": [
        {
          "internalType": "address",
          "name": "patientId",
          "type": "address"
        }
      ],
      "name": "getPatientsDoctorAddress",
      "outputs": [
        {
          "internalType": "address",
          "name": "",
          "type": "address"
        }
      ],
      "stateMutability": "view",
      "type": "function"
    },
    {
      "inputs": [
        {
          "internalType": "address",
          "name": "patientId",
          "type": "address"
        }
      ],
      "name": "getRequests",
      "outputs": [
        {
          "components": [
            {
              "internalType": "uint256",
              "name": "requestId",
              "type": "uint256"
            },
            {
              "internalType": "address",
              "name": "patientId",
              "type": "address"
            },
            {
              "internalType": "address",
              "name": "doctorId",
              "type": "address"
            },
            {
              "internalType": "uint256",
              "name": "timestamp",
              "type": "uint256"
            },
            {
              "internalType": "enum HealthChain.RequestStatus",
              "name": "status",
              "type": "uint8"
            }
          ],
          "internalType": "struct HealthChain.Request[]",
          "name": "",
          "type": "tuple[]"
        }
      ],
      "stateMutability": "view",
      "type": "function"
    },
    {
      "inputs": [
        {
          "internalType": "uint256",
          "name": "requestId",
          "type": "uint256"
        },
        {
          "internalType": "bool",
          "name": "approved",
          "type": "bool"
        }
      ],
      "name": "respondToRequest",
      "outputs": [],
      "stateMutability": "nonpayable",
      "type": "function"
    },
    {
      "inputs": [
        {
          "internalType": "address",
          "name": "doctorId",
          "type": "address"
        },
        {
          "internalType": "string",
          "name": "name",
          "type": "string"
        },
        {
          "internalType": "string",
          "name": "surname",
          "type": "string"
        },
        {
          "internalType": "string",
          "name": "dateOfBirth",
          "type": "string"
        },
        {
          "internalType": "string",
          "name": "email",
          "type": "string"
        },
        {
          "internalType": "string",
          "name": "telephone",
          "type": "string"
        },
        {
          "internalType": "string",
          "name": "zipCode",
          "type": "string"
        },
        {
          "internalType": "string",
          "name": "city",
          "type": "string"
        },
        {
          "internalType": "string",
          "name": "country",
          "type": "string"
        }
      ],
      "name": "updateDoctor",
      "outputs": [],
      "stateMutability": "nonpayable",
      "type": "function"
    },
    {
      "inputs": [
        {
          "internalType": "address",
          "name": "patientId",
          "type": "address"
        },
        {
          "internalType": "uint256",
          "name": "medicalRecordId",
          "type": "uint256"
        },
        {
          "internalType": "uint256",
          "name": "requestId",
          "type": "uint256"
        },
        {
          "internalType": "string",
          "name": "fileName",
          "type": "string"
        },
        {
          "internalType": "string",
          "name": "hospital",
          "type": "string"
        },
        {
          "internalType": "string",
          "name": "details",
          "type": "string"
        }
      ],
      "name": "updateMedicalRecord",
      "outputs": [],
      "stateMutability": "nonpayable",
      "type": "function"
    },
    {
      "inputs": [
        {
          "internalType": "address",
          "name": "patientId",
          "type": "address"
        },
        {
          "internalType": "address",
          "name": "doctorId",
          "type": "address"
        },
        {
          "internalType": "string",
          "name": "name",
          "type": "string"
        },
        {
          "internalType": "string",
          "name": "surname",
          "type": "string"
        },
        {
          "internalType": "string",
          "name": "dateOfBirth",
          "type": "string"
        },
        {
          "internalType": "string",
          "name": "email",
          "type": "string"
        },
        {
          "internalType": "string",
          "name": "telephone",
          "type": "string"
        },
        {
          "internalType": "string",
          "name": "telephone2",
          "type": "string"
        },
        {
          "internalType": "string",
          "name": "zipCode",
          "type": "string"
        },
        {
          "internalType": "string",
          "name": "city",
          "type": "string"
        },
        {
          "internalType": "string",
          "name": "country",
          "type": "string"
        }
      ],
      "name": "updatePatient",
      "outputs": [],
      "stateMutability": "nonpayable",
      "type": "function"
    }
  ],
  "transactionHash": "0xee8efbdb5b0fbfe3da7aef30000a5bbc0a51d8c45b44b7678be133a0450b9e1b",
  "args": [],
  "numDeployments": 4,
  "solcInputHash": "9fdae48820b88b83057c72c52055b8b7",
  "bytecode": "0x608060405234801561001057600080fd5b506150d5806100206000396000f3fe608060405234801561001057600080fd5b50600436106100ea5760003560e01c8063804e44f31161008c578063afd8297c11610066578063afd8297c1461026b578063ba2d3f381461029b578063c67feeac146102b7578063c7c71371146102d3576100ea565b8063804e44f3146101ef5780639e2e516a1461021f578063a42a0de21461023b576100ea565b80632e8ff13c116100c85780632e8ff13c1461014357806331f7574f1461017357806340af39a8146101a357806348e81852146101bf576100ea565b806314ee93a2146100ef5780631ccbcc111461010b5780631da0ec5114610127575b600080fd5b6101096004803603810190610104919061393a565b6102ef565b005b61012560048036038101906101209190613aad565b610635565b005b610141600480360381019061013c9190613cbe565b6109eb565b005b61015d6004803603810190610158919061393a565b610f3e565b60405161016a9190613f11565b60405180910390f35b61018d6004803603810190610188919061393a565b611520565b60405161019a9190613f42565b60405180910390f35b6101bd60048036038101906101b89190613f5d565b61162c565b005b6101d960048036038101906101d4919061393a565b611960565b6040516101e6919061421a565b60405180910390f35b6102096004803603810190610204919061393a565b612092565b60405161021691906143d9565b60405180910390f35b610239600480360381019061023491906143fb565b612295565b005b610255600480360381019061025091906145a5565b61256e565b604051610262919061468f565b60405180910390f35b6102856004803603810190610280919061393a565b61298b565b604051610292919061481d565b60405180910390f35b6102b560048036038101906102b09190614877565b612d09565b005b6102d160048036038101906102cc91906148b7565b613075565b005b6102ed60048036038101906102e89190614998565b6134e3565b005b3373ffffffffffffffffffffffffffffffffffffffff16600160003373ffffffffffffffffffffffffffffffffffffffff1673ffffffffffffffffffffffffffffffffffffffff16815260200190815260200160002060000160009054906101000a900473ffffffffffffffffffffffffffffffffffffffff1673ffffffffffffffffffffffffffffffffffffffff161461038957600080fd5b808073ffffffffffffffffffffffffffffffffffffffff166000808373ffffffffffffffffffffffffffffffffffffffff1673ffffffffffffffffffffffffffffffffffffffff16815260200190815260200160002060000160009054906101000a900473ffffffffffffffffffffffffffffffffffffffff1673ffffffffffffffffffffffffffffffffffffffff161461042357600080fd5b60004233604051602001610438929190614bf1565b6040516020818303038152906040528051906020012060001c9050600360008473ffffffffffffffffffffffffffffffffffffffff1673ffffffffffffffffffffffffffffffffffffffff1681526020019081526020016000206040518060a001604052808381526020018573ffffffffffffffffffffffffffffffffffffffff1681526020013373ffffffffffffffffffffffffffffffffffffffff168152602001428152602001600060038111156104f5576104f4614277565b5b81525090806001815401808255809150506001900390600052602060002090600502016000909190919091506000820151816000015560208201518160010160006101000a81548173ffffffffffffffffffffffffffffffffffffffff021916908373ffffffffffffffffffffffffffffffffffffffff16021790555060408201518160020160006101000a81548173ffffffffffffffffffffffffffffffffffffffff021916908373ffffffffffffffffffffffffffffffffffffffff1602179055506060820151816003015560808201518160040160006101000a81548160ff021916908360038111156105ee576105ed614277565b5b021790555050507fdc9c1562357b214dca4098ed4b4971f2c4f1250d8829987448c12abc7b9f001681843360405161062893929190614c2c565b60405180910390a1505050565b3373ffffffffffffffffffffffffffffffffffffffff166000803373ffffffffffffffffffffffffffffffffffffffff1673ffffffffffffffffffffffffffffffffffffffff16815260200190815260200160002060000160009054906101000a900473ffffffffffffffffffffffffffffffffffffffff1673ffffffffffffffffffffffffffffffffffffffff16148061075d57503373ffffffffffffffffffffffffffffffffffffffff16600160003373ffffffffffffffffffffffffffffffffffffffff1673ffffffffffffffffffffffffffffffffffffffff16815260200190815260200160002060000160009054906101000a900473ffffffffffffffffffffffffffffffffffffffff1673ffffffffffffffffffffffffffffffffffffffff16145b15610794576040517f06d6763e00000000000000000000000000000000000000000000000000000000815260040160405180910390fd5b6040518061016001604052803373ffffffffffffffffffffffffffffffffffffffff1681526020018b73ffffffffffffffffffffffffffffffffffffffff1681526020018a8152602001898152602001888152602001878152602001868152602001858152602001848152602001838152602001828152506000803373ffffffffffffffffffffffffffffffffffffffff1673ffffffffffffffffffffffffffffffffffffffff16815260200190815260200160002060008201518160000160006101000a81548173ffffffffffffffffffffffffffffffffffffffff021916908373ffffffffffffffffffffffffffffffffffffffff16021790555060208201518160010160006101000a81548173ffffffffffffffffffffffffffffffffffffffff021916908373ffffffffffffffffffffffffffffffffffffffff16021790555060408201518160020190816108ed9190614e6f565b5060608201518160030190816109039190614e6f565b5060808201518160040190816109199190614e6f565b5060a082015181600501908161092f9190614e6f565b5060c08201518160060190816109459190614e6f565b5060e082015181600701908161095b9190614e6f565b506101008201518160080190816109729190614e6f565b506101208201518160090190816109899190614e6f565b5061014082015181600a0190816109a09190614e6f565b509050507f2ebd0466e7f37c1b237d3558e4b06b95b9eac254029aab5b1ba131bf543943c5338a8a6040516109d793929190614f8b565b60405180910390a150505050505050505050565b3373ffffffffffffffffffffffffffffffffffffffff16600160003373ffffffffffffffffffffffffffffffffffffffff1673ffffffffffffffffffffffffffffffffffffffff16815260200190815260200160002060000160009054906101000a900473ffffffffffffffffffffffffffffffffffffffff1673ffffffffffffffffffffffffffffffffffffffff1614610a8557600080fd5b838073ffffffffffffffffffffffffffffffffffffffff166000808373ffffffffffffffffffffffffffffffffffffffff1673ffffffffffffffffffffffffffffffffffffffff16815260200190815260200160002060000160009054906101000a900473ffffffffffffffffffffffffffffffffffffffff1673ffffffffffffffffffffffffffffffffffffffff1614610b1f57600080fd5b6000600360008773ffffffffffffffffffffffffffffffffffffffff1673ffffffffffffffffffffffffffffffffffffffff16815260200190815260200160002090506000805b8280549050811015610efc5788838281548110610b8657610b85614fd0565b5b906000526020600020906005020160000154148015610c1457503373ffffffffffffffffffffffffffffffffffffffff16838281548110610bca57610bc9614fd0565b5b906000526020600020906005020160020160009054906101000a900473ffffffffffffffffffffffffffffffffffffffff1673ffffffffffffffffffffffffffffffffffffffff16145b8015610c75575060016003811115610c2f57610c2e614277565b5b838281548110610c4257610c41614fd0565b5b906000526020600020906005020160040160009054906101000a900460ff166003811115610c7357610c72614277565b5b145b15610ee957600191506003838281548110610c9357610c92614fd0565b5b906000526020600020906005020160040160006101000a81548160ff02191690836003811115610cc657610cc5614277565b5b021790555060004233604051602001610ce0929190614bf1565b6040516020818303038152906040528051906020012060001c9050600260008a73ffffffffffffffffffffffffffffffffffffffff1673ffffffffffffffffffffffffffffffffffffffff1681526020019081526020016000206040518060e001604052808381526020014281526020018b73ffffffffffffffffffffffffffffffffffffffff1681526020013373ffffffffffffffffffffffffffffffffffffffff1681526020018a8152602001898152602001888152509080600181540180825580915050600190039060005260206000209060070201600090919091909150600082015181600001556020820151816001015560408201518160020160006101000a81548173ffffffffffffffffffffffffffffffffffffffff021916908373ffffffffffffffffffffffffffffffffffffffff16021790555060608201518160030160006101000a81548173ffffffffffffffffffffffffffffffffffffffff021916908373ffffffffffffffffffffffffffffffffffffffff1602179055506080820151816004019081610e799190614e6f565b5060a0820151816005019081610e8f9190614e6f565b5060c0820151816006019081610ea59190614e6f565b5050507f376ba5f7b0478da4e779373c3279fbc87e2b4298e93d4018376ded0bdc7471ee818a33604051610edb93929190614c2c565b60405180910390a150610efc565b8080610ef49061502e565b915050610b66565b5080610f34576040517fae97f79000000000000000000000000000000000000000000000000000000000815260040160405180910390fd5b5050505050505050565b610f46613777565b818073ffffffffffffffffffffffffffffffffffffffff16600160008373ffffffffffffffffffffffffffffffffffffffff1673ffffffffffffffffffffffffffffffffffffffff16815260200190815260200160002060000160009054906101000a900473ffffffffffffffffffffffffffffffffffffffff1673ffffffffffffffffffffffffffffffffffffffff1614610fe157600080fd5b6000600160008573ffffffffffffffffffffffffffffffffffffffff1673ffffffffffffffffffffffffffffffffffffffff168152602001908152602001600020604051806101200160405290816000820160009054906101000a900473ffffffffffffffffffffffffffffffffffffffff1673ffffffffffffffffffffffffffffffffffffffff1673ffffffffffffffffffffffffffffffffffffffff16815260200160018201805461109490614c92565b80601f01602080910402602001604051908101604052809291908181526020018280546110c090614c92565b801561110d5780601f106110e25761010080835404028352916020019161110d565b820191906000526020600020905b8154815290600101906020018083116110f057829003601f168201915b5050505050815260200160028201805461112690614c92565b80601f016020809104026020016040519081016040528092919081815260200182805461115290614c92565b801561119f5780601f106111745761010080835404028352916020019161119f565b820191906000526020600020905b81548152906001019060200180831161118257829003601f168201915b505050505081526020016003820180546111b890614c92565b80601f01602080910402602001604051908101604052809291908181526020018280546111e490614c92565b80156112315780601f1061120657610100808354040283529160200191611231565b820191906000526020600020905b81548152906001019060200180831161121457829003601f168201915b5050505050815260200160048201805461124a90614c92565b80601f016020809104026020016040519081016040528092919081815260200182805461127690614c92565b80156112c35780601f10611298576101008083540402835291602001916112c3565b820191906000526020600020905b8154815290600101906020018083116112a657829003601f168201915b505050505081526020016005820180546112dc90614c92565b80601f016020809104026020016040519081016040528092919081815260200182805461130890614c92565b80156113555780601f1061132a57610100808354040283529160200191611355565b820191906000526020600020905b81548152906001019060200180831161133857829003601f168201915b5050505050815260200160068201805461136e90614c92565b80601f016020809104026020016040519081016040528092919081815260200182805461139a90614c92565b80156113e75780601f106113bc576101008083540402835291602001916113e7565b820191906000526020600020905b8154815290600101906020018083116113ca57829003601f168201915b5050505050815260200160078201805461140090614c92565b80601f016020809104026020016040519081016040528092919081815260200182805461142c90614c92565b80156114795780601f1061144e57610100808354040283529160200191611479565b820191906000526020600020905b81548152906001019060200180831161145c57829003601f168201915b5050505050815260200160088201805461149290614c92565b80601f01602080910402602001604051908101604052809291908181526020018280546114be90614c92565b801561150b5780601f106114e05761010080835404028352916020019161150b565b820191906000526020600020905b8154815290600101906020018083116114ee57829003601f168201915b50505050508152505090508092505050919050565b6000818073ffffffffffffffffffffffffffffffffffffffff166000808373ffffffffffffffffffffffffffffffffffffffff1673ffffffffffffffffffffffffffffffffffffffff16815260200190815260200160002060000160009054906101000a900473ffffffffffffffffffffffffffffffffffffffff1673ffffffffffffffffffffffffffffffffffffffff16146115bc57600080fd5b60008060008573ffffffffffffffffffffffffffffffffffffffff1673ffffffffffffffffffffffffffffffffffffffff16815260200190815260200160002060010160009054906101000a900473ffffffffffffffffffffffffffffffffffffffff1690508092505050919050565b3373ffffffffffffffffffffffffffffffffffffffff16600160003373ffffffffffffffffffffffffffffffffffffffff1673ffffffffffffffffffffffffffffffffffffffff16815260200190815260200160002060000160009054906101000a900473ffffffffffffffffffffffffffffffffffffffff1673ffffffffffffffffffffffffffffffffffffffff16148061175457503373ffffffffffffffffffffffffffffffffffffffff166000803373ffffffffffffffffffffffffffffffffffffffff1673ffffffffffffffffffffffffffffffffffffffff16815260200190815260200160002060000160009054906101000a900473ffffffffffffffffffffffffffffffffffffffff1673ffffffffffffffffffffffffffffffffffffffff16145b1561178b576040517f06d6763e00000000000000000000000000000000000000000000000000000000815260040160405180910390fd5b6040518061012001604052803373ffffffffffffffffffffffffffffffffffffffff16815260200189815260200188815260200187815260200186815260200185815260200184815260200183815260200182815250600160003373ffffffffffffffffffffffffffffffffffffffff1673ffffffffffffffffffffffffffffffffffffffff16815260200190815260200160002060008201518160000160006101000a81548173ffffffffffffffffffffffffffffffffffffffff021916908373ffffffffffffffffffffffffffffffffffffffff160217905550602082015181600101908161187c9190614e6f565b5060408201518160020190816118929190614e6f565b5060608201518160030190816118a89190614e6f565b5060808201518160040190816118be9190614e6f565b5060a08201518160050190816118d49190614e6f565b5060c08201518160060190816118ea9190614e6f565b5060e08201518160070190816119009190614e6f565b506101008201518160080190816119179190614e6f565b509050507f4c228560b35aca1b4219ad14c68cd752e8944c36ee85f6c9b024da620b0e894033898960405161194e93929190614f8b565b60405180910390a15050505050505050565b6119686137d9565b818073ffffffffffffffffffffffffffffffffffffffff166000808373ffffffffffffffffffffffffffffffffffffffff1673ffffffffffffffffffffffffffffffffffffffff16815260200190815260200160002060000160009054906101000a900473ffffffffffffffffffffffffffffffffffffffff1673ffffffffffffffffffffffffffffffffffffffff1614611a0257600080fd5b8273ffffffffffffffffffffffffffffffffffffffff163373ffffffffffffffffffffffffffffffffffffffff160361205a5760008060008573ffffffffffffffffffffffffffffffffffffffff1673ffffffffffffffffffffffffffffffffffffffff168152602001908152602001600020604051806101600160405290816000820160009054906101000a900473ffffffffffffffffffffffffffffffffffffffff1673ffffffffffffffffffffffffffffffffffffffff1673ffffffffffffffffffffffffffffffffffffffff1681526020016001820160009054906101000a900473ffffffffffffffffffffffffffffffffffffffff1673ffffffffffffffffffffffffffffffffffffffff1673ffffffffffffffffffffffffffffffffffffffff168152602001600282018054611b3d90614c92565b80601f0160208091040260200160405190810160405280929190818152602001828054611b6990614c92565b8015611bb65780601f10611b8b57610100808354040283529160200191611bb6565b820191906000526020600020905b815481529060010190602001808311611b9957829003601f168201915b50505050508152602001600382018054611bcf90614c92565b80601f0160208091040260200160405190810160405280929190818152602001828054611bfb90614c92565b8015611c485780601f10611c1d57610100808354040283529160200191611c48565b820191906000526020600020905b815481529060010190602001808311611c2b57829003601f168201915b50505050508152602001600482018054611c6190614c92565b80601f0160208091040260200160405190810160405280929190818152602001828054611c8d90614c92565b8015611cda5780601f10611caf57610100808354040283529160200191611cda565b820191906000526020600020905b815481529060010190602001808311611cbd57829003601f168201915b50505050508152602001600582018054611cf390614c92565b80601f0160208091040260200160405190810160405280929190818152602001828054611d1f90614c92565b8015611d6c5780601f10611d4157610100808354040283529160200191611d6c565b820191906000526020600020905b815481529060010190602001808311611d4f57829003601f168201915b50505050508152602001600682018054611d8590614c92565b80601f0160208091040260200160405190810160405280929190818152602001828054611db190614c92565b8015611dfe5780601f10611dd357610100808354040283529160200191611dfe565b820191906000526020600020905b815481529060010190602001808311611de157829003601f168201915b50505050508152602001600782018054611e1790614c92565b80601f0160208091040260200160405190810160405280929190818152602001828054611e4390614c92565b8015611e905780601f10611e6557610100808354040283529160200191611e90565b820191906000526020600020905b815481529060010190602001808311611e7357829003601f168201915b50505050508152602001600882018054611ea990614c92565b80601f0160208091040260200160405190810160405280929190818152602001828054611ed590614c92565b8015611f225780601f10611ef757610100808354040283529160200191611f22565b820191906000526020600020905b815481529060010190602001808311611f0557829003601f168201915b50505050508152602001600982018054611f3b90614c92565b80601f0160208091040260200160405190810160405280929190818152602001828054611f6790614c92565b8015611fb45780601f10611f8957610100808354040283529160200191611fb4565b820191906000526020600020905b815481529060010190602001808311611f9757829003601f168201915b50505050508152602001600a82018054611fcd90614c92565b80601f0160208091040260200160405190810160405280929190818152602001828054611ff990614c92565b80156120465780601f1061201b57610100808354040283529160200191612046565b820191906000526020600020905b81548152906001019060200180831161202957829003601f168201915b50505050508152505090508092505061208c565b6040517fd05e4aeb00000000000000000000000000000000000000000000000000000000815260040160405180910390fd5b50919050565b60608173ffffffffffffffffffffffffffffffffffffffff163373ffffffffffffffffffffffffffffffffffffffff160361225e57600360008373ffffffffffffffffffffffffffffffffffffffff1673ffffffffffffffffffffffffffffffffffffffff168152602001908152602001600020805480602002602001604051908101604052809291908181526020016000905b8282101561225357838290600052602060002090600502016040518060a0016040529081600082015481526020016001820160009054906101000a900473ffffffffffffffffffffffffffffffffffffffff1673ffffffffffffffffffffffffffffffffffffffff1673ffffffffffffffffffffffffffffffffffffffff1681526020016002820160009054906101000a900473ffffffffffffffffffffffffffffffffffffffff1673ffffffffffffffffffffffffffffffffffffffff1673ffffffffffffffffffffffffffffffffffffffff168152602001600382015481526020016004820160009054906101000a900460ff16600381111561222e5761222d614277565b5b60038111156122405761223f614277565b5b8152505081526020019060010190612126565b505050509050612290565b6040517f57c0ff9e00000000000000000000000000000000000000000000000000000000815260040160405180910390fd5b919050565b3373ffffffffffffffffffffffffffffffffffffffff16600160003373ffffffffffffffffffffffffffffffffffffffff1673ffffffffffffffffffffffffffffffffffffffff16815260200190815260200160002060000160009054906101000a900473ffffffffffffffffffffffffffffffffffffffff1673ffffffffffffffffffffffffffffffffffffffff161461232f57600080fd5b888073ffffffffffffffffffffffffffffffffffffffff16600160008373ffffffffffffffffffffffffffffffffffffffff1673ffffffffffffffffffffffffffffffffffffffff16815260200190815260200160002060000160009054906101000a900473ffffffffffffffffffffffffffffffffffffffff1673ffffffffffffffffffffffffffffffffffffffff16146123ca57600080fd5b6000600160003373ffffffffffffffffffffffffffffffffffffffff1673ffffffffffffffffffffffffffffffffffffffff16815260200190815260200160002090508a73ffffffffffffffffffffffffffffffffffffffff168160000160009054906101000a900473ffffffffffffffffffffffffffffffffffffffff1673ffffffffffffffffffffffffffffffffffffffff1614612496576040517f57c0ff9e00000000000000000000000000000000000000000000000000000000815260040160405180910390fd5b898160010190816124a79190614e6f565b50888160020190816124b99190614e6f565b50878160030190816124cb9190614e6f565b50868160040190816124dd9190614e6f565b50858160050190816124ef9190614e6f565b50848160060190816125019190614e6f565b50838160070190816125139190614e6f565b50828160080190816125259190614e6f565b507ff30e1da68c9578cb8eb176920ac0459c9a8744c373b44a2981dcf5b6ba4bf0198b8b8b60405161255993929190614f8b565b60405180910390a15050505050505050505050565b61257661385f565b6000600260008473ffffffffffffffffffffffffffffffffffffffff1673ffffffffffffffffffffffffffffffffffffffff168152602001908152602001600020805480602002602001604051908101604052809291908181526020016000905b8282101561287f57838290600052602060002090600702016040518060e001604052908160008201548152602001600182015481526020016002820160009054906101000a900473ffffffffffffffffffffffffffffffffffffffff1673ffffffffffffffffffffffffffffffffffffffff1673ffffffffffffffffffffffffffffffffffffffff1681526020016003820160009054906101000a900473ffffffffffffffffffffffffffffffffffffffff1673ffffffffffffffffffffffffffffffffffffffff1673ffffffffffffffffffffffffffffffffffffffff1681526020016004820180546126ca90614c92565b80601f01602080910402602001604051908101604052809291908181526020018280546126f690614c92565b80156127435780601f1061271857610100808354040283529160200191612743565b820191906000526020600020905b81548152906001019060200180831161272657829003601f168201915b5050505050815260200160058201805461275c90614c92565b80601f016020809104026020016040519081016040528092919081815260200182805461278890614c92565b80156127d55780601f106127aa576101008083540402835291602001916127d5565b820191906000526020600020905b8154815290600101906020018083116127b857829003601f168201915b505050505081526020016006820180546127ee90614c92565b80601f016020809104026020016040519081016040528092919081815260200182805461281a90614c92565b80156128675780601f1061283c57610100808354040283529160200191612867565b820191906000526020600020905b81548152906001019060200180831161284a57829003601f168201915b505050505081525050815260200190600101906125d7565b5050505090508273ffffffffffffffffffffffffffffffffffffffff163373ffffffffffffffffffffffffffffffffffffffff16036129535760005b815181101561292057848282815181106128d8576128d7614fd0565b5b6020026020010151600001510361290d578181815181106128fc576128fb614fd0565b5b602002602001015192505050612985565b80806129189061502e565b9150506128bb565b506040517f7c2ee70a00000000000000000000000000000000000000000000000000000000815260040160405180910390fd5b6040517fd05e4aeb00000000000000000000000000000000000000000000000000000000815260040160405180910390fd5b92915050565b60608173ffffffffffffffffffffffffffffffffffffffff163373ffffffffffffffffffffffffffffffffffffffff1603612cd257600260008373ffffffffffffffffffffffffffffffffffffffff1673ffffffffffffffffffffffffffffffffffffffff168152602001908152602001600020805480602002602001604051908101604052809291908181526020016000905b82821015612cc757838290600052602060002090600702016040518060e001604052908160008201548152602001600182015481526020016002820160009054906101000a900473ffffffffffffffffffffffffffffffffffffffff1673ffffffffffffffffffffffffffffffffffffffff1673ffffffffffffffffffffffffffffffffffffffff1681526020016003820160009054906101000a900473ffffffffffffffffffffffffffffffffffffffff1673ffffffffffffffffffffffffffffffffffffffff1673ffffffffffffffffffffffffffffffffffffffff168152602001600482018054612b1290614c92565b80601f0160208091040260200160405190810160405280929190818152602001828054612b3e90614c92565b8015612b8b5780601f10612b6057610100808354040283529160200191612b8b565b820191906000526020600020905b815481529060010190602001808311612b6e57829003601f168201915b50505050508152602001600582018054612ba490614c92565b80601f0160208091040260200160405190810160405280929190818152602001828054612bd090614c92565b8015612c1d5780601f10612bf257610100808354040283529160200191612c1d565b820191906000526020600020905b815481529060010190602001808311612c0057829003601f168201915b50505050508152602001600682018054612c3690614c92565b80601f0160208091040260200160405190810160405280929190818152602001828054612c6290614c92565b8015612caf5780601f10612c8457610100808354040283529160200191612caf565b820191906000526020600020905b815481529060010190602001808311612c9257829003601f168201915b50505050508152505081526020019060010190612a1f565b505050509050612d04565b6040517fd05e4aeb00000000000000000000000000000000000000000000000000000000815260040160405180910390fd5b919050565b3373ffffffffffffffffffffffffffffffffffffffff166000803373ffffffffffffffffffffffffffffffffffffffff1673ffffffffffffffffffffffffffffffffffffffff16815260200190815260200160002060000160009054906101000a900473ffffffffffffffffffffffffffffffffffffffff1673ffffffffffffffffffffffffffffffffffffffff1614612da257600080fd5b6000600360003373ffffffffffffffffffffffffffffffffffffffff1673ffffffffffffffffffffffffffffffffffffffff16815260200190815260200160002090506000805b82805490508110156130375784838281548110612e0957612e08614fd0565b5b906000526020600020906005020160000154148015612e9757503373ffffffffffffffffffffffffffffffffffffffff16838281548110612e4d57612e4c614fd0565b5b906000526020600020906005020160010160009054906101000a900473ffffffffffffffffffffffffffffffffffffffff1673ffffffffffffffffffffffffffffffffffffffff16145b8015612ef8575060006003811115612eb257612eb1614277565b5b838281548110612ec557612ec4614fd0565b5b906000526020600020906005020160040160009054906101000a900460ff166003811115612ef657612ef5614277565b5b145b1561302457600191506001151584151503612f98576001838281548110612f2257612f21614fd0565b5b906000526020600020906005020160040160006101000a81548160ff02191690836003811115612f5557612f54614277565b5b02179055507f018d20fd47cfe9d9fbbb820b1382a761202af36a6ac915250998f3bf6fbd3d7d8533604051612f8b929190615076565b60405180910390a161301f565b6002838281548110612fad57612fac614fd0565b5b906000526020600020906005020160040160006101000a81548160ff02191690836003811115612fe057612fdf614277565b5b02179055507f8a72a3ba2466ad2f9a4ce076580545941f36596a0d91500a2f6e6b2e291d1f0d8533604051613016929190615076565b60405180910390a15b613037565b808061302f9061502e565b915050612de9565b508061306f576040517fcbf74bb600000000000000000000000000000000000000000000000000000000815260040160405180910390fd5b50505050565b3373ffffffffffffffffffffffffffffffffffffffff16600160003373ffffffffffffffffffffffffffffffffffffffff1673ffffffffffffffffffffffffffffffffffffffff16815260200190815260200160002060000160009054906101000a900473ffffffffffffffffffffffffffffffffffffffff1673ffffffffffffffffffffffffffffffffffffffff161461310f57600080fd5b6000600360008873ffffffffffffffffffffffffffffffffffffffff1673ffffffffffffffffffffffffffffffffffffffff16815260200190815260200160002090506000805b82805490508110156132d3578683828154811061317657613175614fd0565b5b90600052602060002090600502016000015414801561320457503373ffffffffffffffffffffffffffffffffffffffff168382815481106131ba576131b9614fd0565b5b906000526020600020906005020160020160009054906101000a900473ffffffffffffffffffffffffffffffffffffffff1673ffffffffffffffffffffffffffffffffffffffff16145b801561326557506001600381111561321f5761321e614277565b5b83828154811061323257613231614fd0565b5b906000526020600020906005020160040160009054906101000a900460ff16600381111561326357613262614277565b5b145b156132c05760019150600383828154811061328357613282614fd0565b5b906000526020600020906005020160040160006101000a81548160ff021916908360038111156132b6576132b5614277565b5b02179055506132d3565b80806132cb9061502e565b915050613156565b508061330b576040517fae97f79000000000000000000000000000000000000000000000000000000000815260040160405180910390fd5b6000600260008a73ffffffffffffffffffffffffffffffffffffffff1673ffffffffffffffffffffffffffffffffffffffff16815260200190815260200160002090506000805b828054905081101561349f578983828154811061337257613371614fd0565b5b9060005260206000209060070201600001540361348c5760019150878382815481106133a1576133a0614fd0565b5b906000526020600020906007020160040190816133be9190614e6f565b50868382815481106133d3576133d2614fd0565b5b906000526020600020906007020160050190816133f09190614e6f565b508583828154811061340557613404614fd0565b5b906000526020600020906007020160060190816134229190614e6f565b504283828154811061343757613436614fd0565b5b9060005260206000209060070201600101819055507f2db782a0c3495e8ab207b4c5b1b4274529d615e5e061b512e440d4c070634d188a8c3360405161347f93929190614c2c565b60405180910390a161349f565b80806134979061502e565b915050613352565b50806134d7576040517f7c2ee70a00000000000000000000000000000000000000000000000000000000815260040160405180910390fd5b50505050505050505050565b8a8073ffffffffffffffffffffffffffffffffffffffff166000808373ffffffffffffffffffffffffffffffffffffffff1673ffffffffffffffffffffffffffffffffffffffff16815260200190815260200160002060000160009054906101000a900473ffffffffffffffffffffffffffffffffffffffff1673ffffffffffffffffffffffffffffffffffffffff161461357d57600080fd5b60008060003373ffffffffffffffffffffffffffffffffffffffff1673ffffffffffffffffffffffffffffffffffffffff16815260200190815260200160002090508c73ffffffffffffffffffffffffffffffffffffffff168160000160009054906101000a900473ffffffffffffffffffffffffffffffffffffffff1673ffffffffffffffffffffffffffffffffffffffff1614613648576040517f57c0ff9e00000000000000000000000000000000000000000000000000000000815260040160405180910390fd5b8b8160010160006101000a81548173ffffffffffffffffffffffffffffffffffffffff021916908373ffffffffffffffffffffffffffffffffffffffff1602179055508a81600201908161369c9190614e6f565b50898160030190816136ae9190614e6f565b50888160040190816136c09190614e6f565b50878160050190816136d29190614e6f565b50868160060190816136e49190614e6f565b50858160070190816136f69190614e6f565b50848160080190816137089190614e6f565b508381600901908161371a9190614e6f565b508281600a01908161372c9190614e6f565b507fb9155cf7f016b79957e9d131dc5d56a394abf9933886292c9e760fe98e4c55d48d8c8c60405161376093929190614f8b565b60405180910390a150505050505050505050505050565b604051806101200160405280600073ffffffffffffffffffffffffffffffffffffffff16815260200160608152602001606081526020016060815260200160608152602001606081526020016060815260200160608152602001606081525090565b604051806101600160405280600073ffffffffffffffffffffffffffffffffffffffff168152602001600073ffffffffffffffffffffffffffffffffffffffff1681526020016060815260200160608152602001606081526020016060815260200160608152602001606081526020016060815260200160608152602001606081525090565b6040518060e001604052806000815260200160008152602001600073ffffffffffffffffffffffffffffffffffffffff168152602001600073ffffffffffffffffffffffffffffffffffffffff1681526020016060815260200160608152602001606081525090565b6000604051905090565b600080fd5b600080fd5b600073ffffffffffffffffffffffffffffffffffffffff82169050919050565b6000613907826138dc565b9050919050565b613917816138fc565b811461392257600080fd5b50565b6000813590506139348161390e565b92915050565b6000602082840312156139505761394f6138d2565b5b600061395e84828501613925565b91505092915050565b600080fd5b600080fd5b6000601f19601f8301169050919050565b7f4e487b7100000000000000000000000000000000000000000000000000000000600052604160045260246000fd5b6139ba82613971565b810181811067ffffffffffffffff821117156139d9576139d8613982565b5b80604052505050565b60006139ec6138c8565b90506139f882826139b1565b919050565b600067ffffffffffffffff821115613a1857613a17613982565b5b613a2182613971565b9050602081019050919050565b82818337600083830152505050565b6000613a50613a4b846139fd565b6139e2565b905082815260208101848484011115613a6c57613a6b61396c565b5b613a77848285613a2e565b509392505050565b600082601f830112613a9457613a93613967565b5b8135613aa4848260208601613a3d565b91505092915050565b6000806000806000806000806000806101408b8d031215613ad157613ad06138d2565b5b6000613adf8d828e01613925565b9a505060208b013567ffffffffffffffff811115613b0057613aff6138d7565b5b613b0c8d828e01613a7f565b99505060408b013567ffffffffffffffff811115613b2d57613b2c6138d7565b5b613b398d828e01613a7f565b98505060608b013567ffffffffffffffff811115613b5a57613b596138d7565b5b613b668d828e01613a7f565b97505060808b013567ffffffffffffffff811115613b8757613b866138d7565b5b613b938d828e01613a7f565b96505060a08b013567ffffffffffffffff811115613bb457613bb36138d7565b5b613bc08d828e01613a7f565b95505060c08b013567ffffffffffffffff811115613be157613be06138d7565b5b613bed8d828e01613a7f565b94505060e08b013567ffffffffffffffff811115613c0e57613c0d6138d7565b5b613c1a8d828e01613a7f565b9350506101008b013567ffffffffffffffff811115613c3c57613c3b6138d7565b5b613c488d828e01613a7f565b9250506101208b013567ffffffffffffffff811115613c6a57613c696138d7565b5b613c768d828e01613a7f565b9150509295989b9194979a5092959850565b6000819050919050565b613c9b81613c88565b8114613ca657600080fd5b50565b600081359050613cb881613c92565b92915050565b600080600080600060a08688031215613cda57613cd96138d2565b5b6000613ce888828901613ca9565b9550506020613cf988828901613925565b945050604086013567ffffffffffffffff811115613d1a57613d196138d7565b5b613d2688828901613a7f565b935050606086013567ffffffffffffffff811115613d4757613d466138d7565b5b613d5388828901613a7f565b925050608086013567ffffffffffffffff811115613d7457613d736138d7565b5b613d8088828901613a7f565b9150509295509295909350565b613d96816138fc565b82525050565b600081519050919050565b600082825260208201905092915050565b60005b83811015613dd6578082015181840152602081019050613dbb565b60008484015250505050565b6000613ded82613d9c565b613df78185613da7565b9350613e07818560208601613db8565b613e1081613971565b840191505092915050565b600061012083016000830151613e346000860182613d8d565b5060208301518482036020860152613e4c8282613de2565b91505060408301518482036040860152613e668282613de2565b91505060608301518482036060860152613e808282613de2565b91505060808301518482036080860152613e9a8282613de2565b91505060a083015184820360a0860152613eb48282613de2565b91505060c083015184820360c0860152613ece8282613de2565b91505060e083015184820360e0860152613ee88282613de2565b915050610100830151848203610100860152613f048282613de2565b9150508091505092915050565b60006020820190508181036000830152613f2b8184613e1b565b905092915050565b613f3c816138fc565b82525050565b6000602082019050613f576000830184613f33565b92915050565b600080600080600080600080610100898b031215613f7e57613f7d6138d2565b5b600089013567ffffffffffffffff811115613f9c57613f9b6138d7565b5b613fa88b828c01613a7f565b985050602089013567ffffffffffffffff811115613fc957613fc86138d7565b5b613fd58b828c01613a7f565b975050604089013567ffffffffffffffff811115613ff657613ff56138d7565b5b6140028b828c01613a7f565b965050606089013567ffffffffffffffff811115614023576140226138d7565b5b61402f8b828c01613a7f565b955050608089013567ffffffffffffffff8111156140505761404f6138d7565b5b61405c8b828c01613a7f565b94505060a089013567ffffffffffffffff81111561407d5761407c6138d7565b5b6140898b828c01613a7f565b93505060c089013567ffffffffffffffff8111156140aa576140a96138d7565b5b6140b68b828c01613a7f565b92505060e089013567ffffffffffffffff8111156140d7576140d66138d7565b5b6140e38b828c01613a7f565b9150509295985092959890939650565b60006101608301600083015161410c6000860182613d8d565b50602083015161411f6020860182613d8d565b50604083015184820360408601526141378282613de2565b915050606083015184820360608601526141518282613de2565b9150506080830151848203608086015261416b8282613de2565b91505060a083015184820360a08601526141858282613de2565b91505060c083015184820360c086015261419f8282613de2565b91505060e083015184820360e08601526141b98282613de2565b9150506101008301518482036101008601526141d58282613de2565b9150506101208301518482036101208601526141f18282613de2565b91505061014083015184820361014086015261420d8282613de2565b9150508091505092915050565b6000602082019050818103600083015261423481846140f3565b905092915050565b600081519050919050565b600082825260208201905092915050565b6000819050602082019050919050565b61427181613c88565b82525050565b7f4e487b7100000000000000000000000000000000000000000000000000000000600052602160045260246000fd5b600481106142b7576142b6614277565b5b50565b60008190506142c8826142a6565b919050565b60006142d8826142ba565b9050919050565b6142e8816142cd565b82525050565b60a0820160008201516143046000850182614268565b5060208201516143176020850182613d8d565b50604082015161432a6040850182613d8d565b50606082015161433d6060850182614268565b50608082015161435060808501826142df565b50505050565b600061436283836142ee565b60a08301905092915050565b6000602082019050919050565b60006143868261423c565b6143908185614247565b935061439b83614258565b8060005b838110156143cc5781516143b38882614356565b97506143be8361436e565b92505060018101905061439f565b5085935050505092915050565b600060208201905081810360008301526143f3818461437b565b905092915050565b60008060008060008060008060006101208a8c03121561441e5761441d6138d2565b5b600061442c8c828d01613925565b99505060208a013567ffffffffffffffff81111561444d5761444c6138d7565b5b6144598c828d01613a7f565b98505060408a013567ffffffffffffffff81111561447a576144796138d7565b5b6144868c828d01613a7f565b97505060608a013567ffffffffffffffff8111156144a7576144a66138d7565b5b6144b38c828d01613a7f565b96505060808a013567ffffffffffffffff8111156144d4576144d36138d7565b5b6144e08c828d01613a7f565b95505060a08a013567ffffffffffffffff811115614501576145006138d7565b5b61450d8c828d01613a7f565b94505060c08a013567ffffffffffffffff81111561452e5761452d6138d7565b5b61453a8c828d01613a7f565b93505060e08a013567ffffffffffffffff81111561455b5761455a6138d7565b5b6145678c828d01613a7f565b9250506101008a013567ffffffffffffffff811115614589576145886138d7565b5b6145958c828d01613a7f565b9150509295985092959850929598565b600080604083850312156145bc576145bb6138d2565b5b60006145ca85828601613ca9565b92505060206145db85828601613925565b9150509250929050565b600060e0830160008301516145fd6000860182614268565b5060208301516146106020860182614268565b5060408301516146236040860182613d8d565b5060608301516146366060860182613d8d565b506080830151848203608086015261464e8282613de2565b91505060a083015184820360a08601526146688282613de2565b91505060c083015184820360c08601526146828282613de2565b9150508091505092915050565b600060208201905081810360008301526146a981846145e5565b905092915050565b600081519050919050565b600082825260208201905092915050565b6000819050602082019050919050565b600060e0830160008301516146f56000860182614268565b5060208301516147086020860182614268565b50604083015161471b6040860182613d8d565b50606083015161472e6060860182613d8d565b50608083015184820360808601526147468282613de2565b91505060a083015184820360a08601526147608282613de2565b91505060c083015184820360c086015261477a8282613de2565b9150508091505092915050565b600061479383836146dd565b905092915050565b6000602082019050919050565b60006147b3826146b1565b6147bd81856146bc565b9350836020820285016147cf856146cd565b8060005b8581101561480b57848403895281516147ec8582614787565b94506147f78361479b565b925060208a019950506001810190506147d3565b50829750879550505050505092915050565b6000602082019050818103600083015261483781846147a8565b905092915050565b60008115159050919050565b6148548161483f565b811461485f57600080fd5b50565b6000813590506148718161484b565b92915050565b6000806040838503121561488e5761488d6138d2565b5b600061489c85828601613ca9565b92505060206148ad85828601614862565b9150509250929050565b60008060008060008060c087890312156148d4576148d36138d2565b5b60006148e289828a01613925565b96505060206148f389828a01613ca9565b955050604061490489828a01613ca9565b945050606087013567ffffffffffffffff811115614925576149246138d7565b5b61493189828a01613a7f565b935050608087013567ffffffffffffffff811115614952576149516138d7565b5b61495e89828a01613a7f565b92505060a087013567ffffffffffffffff81111561497f5761497e6138d7565b5b61498b89828a01613a7f565b9150509295509295509295565b60008060008060008060008060008060006101608c8e0312156149be576149bd6138d2565b5b60006149cc8e828f01613925565b9b505060206149dd8e828f01613925565b9a505060408c013567ffffffffffffffff8111156149fe576149fd6138d7565b5b614a0a8e828f01613a7f565b99505060608c013567ffffffffffffffff811115614a2b57614a2a6138d7565b5b614a378e828f01613a7f565b98505060808c013567ffffffffffffffff811115614a5857614a576138d7565b5b614a648e828f01613a7f565b97505060a08c013567ffffffffffffffff811115614a8557614a846138d7565b5b614a918e828f01613a7f565b96505060c08c013567ffffffffffffffff811115614ab257614ab16138d7565b5b614abe8e828f01613a7f565b95505060e08c013567ffffffffffffffff811115614adf57614ade6138d7565b5b614aeb8e828f01613a7f565b9450506101008c013567ffffffffffffffff811115614b0d57614b0c6138d7565b5b614b198e828f01613a7f565b9350506101208c013567ffffffffffffffff811115614b3b57614b3a6138d7565b5b614b478e828f01613a7f565b9250506101408c013567ffffffffffffffff811115614b6957614b686138d7565b5b614b758e828f01613a7f565b9150509295989b509295989b9093969950565b6000819050919050565b614ba3614b9e82613c88565b614b88565b82525050565b60008160601b9050919050565b6000614bc182614ba9565b9050919050565b6000614bd382614bb6565b9050919050565b614beb614be6826138fc565b614bc8565b82525050565b6000614bfd8285614b92565b602082019150614c0d8284614bda565b6014820191508190509392505050565b614c2681613c88565b82525050565b6000606082019050614c416000830186614c1d565b614c4e6020830185613f33565b614c5b6040830184613f33565b949350505050565b7f4e487b7100000000000000000000000000000000000000000000000000000000600052602260045260246000fd5b60006002820490506001821680614caa57607f821691505b602082108103614cbd57614cbc614c63565b5b50919050565b60008190508160005260206000209050919050565b60006020601f8301049050919050565b600082821b905092915050565b600060088302614d257fffffffffffffffffffffffffffffffffffffffffffffffffffffffffffffffff82614ce8565b614d2f8683614ce8565b95508019841693508086168417925050509392505050565b6000819050919050565b6000614d6c614d67614d6284613c88565b614d47565b613c88565b9050919050565b6000819050919050565b614d8683614d51565b614d9a614d9282614d73565b848454614cf5565b825550505050565b600090565b614daf614da2565b614dba818484614d7d565b505050565b5b81811015614dde57614dd3600082614da7565b600181019050614dc0565b5050565b601f821115614e2357614df481614cc3565b614dfd84614cd8565b81016020851015614e0c578190505b614e20614e1885614cd8565b830182614dbf565b50505b505050565b600082821c905092915050565b6000614e4660001984600802614e28565b1980831691505092915050565b6000614e5f8383614e35565b9150826002028217905092915050565b614e7882613d9c565b67ffffffffffffffff811115614e9157614e90613982565b5b614e9b8254614c92565b614ea6828285614de2565b600060209050601f831160018114614ed95760008415614ec7578287015190505b614ed18582614e53565b865550614f39565b601f198416614ee786614cc3565b60005b82811015614f0f57848901518255600182019150602085019450602081019050614eea565b86831015614f2c5784890151614f28601f891682614e35565b8355505b6001600288020188555050505b505050505050565b600082825260208201905092915050565b6000614f5d82613d9c565b614f678185614f41565b9350614f77818560208601613db8565b614f8081613971565b840191505092915050565b6000606082019050614fa06000830186613f33565b8181036020830152614fb28185614f52565b90508181036040830152614fc68184614f52565b9050949350505050565b7f4e487b7100000000000000000000000000000000000000000000000000000000600052603260045260246000fd5b7f4e487b7100000000000000000000000000000000000000000000000000000000600052601160045260246000fd5b600061503982613c88565b91507fffffffffffffffffffffffffffffffffffffffffffffffffffffffffffffffff820361506b5761506a614fff565b5b600182019050919050565b600060408201905061508b6000830185614c1d565b6150986020830184613f33565b939250505056fea26469706673582212204b122ba6db635b0cec89d7935ac8e5c9ddc3f04b2848a740064aa58373d52bb764736f6c63430008120033",
  "devdoc": {
    "author": "Alberto Toscano",
    "kind": "dev",
    "methods": {},
    "title": "HealthChain",
    "version": 1
  },
  "userdoc": {
    "kind": "user",
    "methods": {},
    "notice": "HealthChain is a decentralized health records management system. It allows doctors to create and update medical records for their patients, while ensuring patient privacy and control over their data. Patients can grant access to their medical records to specific doctors by approving requests.",
    "version": 1
  },
  "storageLayout": {
    "storage": [
      {
        "astId": 93,
        "contract": "contracts/Healthchain.sol:HealthChain",
        "label": "s_patients",
        "offset": 0,
        "slot": "0",
        "type": "t_mapping(t_address,t_struct(Patient)61_storage)"
      },
      {
        "astId": 98,
        "contract": "contracts/Healthchain.sol:HealthChain",
        "label": "s_doctors",
        "offset": 0,
        "slot": "1",
        "type": "t_mapping(t_address,t_struct(Doctor)38_storage)"
      },
      {
        "astId": 104,
        "contract": "contracts/Healthchain.sol:HealthChain",
        "label": "s_medicalRecords",
        "offset": 0,
        "slot": "2",
        "type": "t_mapping(t_address,t_array(t_struct(MedicalRecord)76_storage)dyn_storage)"
      },
      {
        "astId": 110,
        "contract": "contracts/Healthchain.sol:HealthChain",
        "label": "s_requests",
        "offset": 0,
        "slot": "3",
        "type": "t_mapping(t_address,t_array(t_struct(Request)88_storage)dyn_storage)"
      }
    ],
    "types": {
      "t_address": {
        "encoding": "inplace",
        "label": "address",
        "numberOfBytes": "20"
      },
      "t_array(t_struct(MedicalRecord)76_storage)dyn_storage": {
        "base": "t_struct(MedicalRecord)76_storage",
        "encoding": "dynamic_array",
        "label": "struct HealthChain.MedicalRecord[]",
        "numberOfBytes": "32"
      },
      "t_array(t_struct(Request)88_storage)dyn_storage": {
        "base": "t_struct(Request)88_storage",
        "encoding": "dynamic_array",
        "label": "struct HealthChain.Request[]",
        "numberOfBytes": "32"
      },
      "t_enum(RequestStatus)19": {
        "encoding": "inplace",
        "label": "enum HealthChain.RequestStatus",
        "numberOfBytes": "1"
      },
      "t_mapping(t_address,t_array(t_struct(MedicalRecord)76_storage)dyn_storage)": {
        "encoding": "mapping",
        "key": "t_address",
        "label": "mapping(address => struct HealthChain.MedicalRecord[])",
        "numberOfBytes": "32",
        "value": "t_array(t_struct(MedicalRecord)76_storage)dyn_storage"
      },
      "t_mapping(t_address,t_array(t_struct(Request)88_storage)dyn_storage)": {
        "encoding": "mapping",
        "key": "t_address",
        "label": "mapping(address => struct HealthChain.Request[])",
        "numberOfBytes": "32",
        "value": "t_array(t_struct(Request)88_storage)dyn_storage"
      },
      "t_mapping(t_address,t_struct(Doctor)38_storage)": {
        "encoding": "mapping",
        "key": "t_address",
        "label": "mapping(address => struct HealthChain.Doctor)",
        "numberOfBytes": "32",
        "value": "t_struct(Doctor)38_storage"
      },
      "t_mapping(t_address,t_struct(Patient)61_storage)": {
        "encoding": "mapping",
        "key": "t_address",
        "label": "mapping(address => struct HealthChain.Patient)",
        "numberOfBytes": "32",
        "value": "t_struct(Patient)61_storage"
      },
      "t_string_storage": {
        "encoding": "bytes",
        "label": "string",
        "numberOfBytes": "32"
      },
      "t_struct(Doctor)38_storage": {
        "encoding": "inplace",
        "label": "struct HealthChain.Doctor",
        "members": [
          {
            "astId": 21,
            "contract": "contracts/Healthchain.sol:HealthChain",
            "label": "id",
            "offset": 0,
            "slot": "0",
            "type": "t_address"
          },
          {
            "astId": 23,
            "contract": "contracts/Healthchain.sol:HealthChain",
            "label": "name",
            "offset": 0,
            "slot": "1",
            "type": "t_string_storage"
          },
          {
            "astId": 25,
            "contract": "contracts/Healthchain.sol:HealthChain",
            "label": "surname",
            "offset": 0,
            "slot": "2",
            "type": "t_string_storage"
          },
          {
            "astId": 27,
            "contract": "contracts/Healthchain.sol:HealthChain",
            "label": "dateOfBirth",
            "offset": 0,
            "slot": "3",
            "type": "t_string_storage"
          },
          {
            "astId": 29,
            "contract": "contracts/Healthchain.sol:HealthChain",
            "label": "email",
            "offset": 0,
            "slot": "4",
            "type": "t_string_storage"
          },
          {
            "astId": 31,
            "contract": "contracts/Healthchain.sol:HealthChain",
            "label": "telephone",
            "offset": 0,
            "slot": "5",
            "type": "t_string_storage"
          },
          {
            "astId": 33,
            "contract": "contracts/Healthchain.sol:HealthChain",
            "label": "zipCode",
            "offset": 0,
            "slot": "6",
            "type": "t_string_storage"
          },
          {
            "astId": 35,
            "contract": "contracts/Healthchain.sol:HealthChain",
            "label": "city",
            "offset": 0,
            "slot": "7",
            "type": "t_string_storage"
          },
          {
            "astId": 37,
            "contract": "contracts/Healthchain.sol:HealthChain",
            "label": "country",
            "offset": 0,
            "slot": "8",
            "type": "t_string_storage"
          }
        ],
        "numberOfBytes": "288"
      },
      "t_struct(MedicalRecord)76_storage": {
        "encoding": "inplace",
        "label": "struct HealthChain.MedicalRecord",
        "members": [
          {
            "astId": 63,
            "contract": "contracts/Healthchain.sol:HealthChain",
            "label": "id",
            "offset": 0,
            "slot": "0",
            "type": "t_uint256"
          },
          {
            "astId": 65,
            "contract": "contracts/Healthchain.sol:HealthChain",
            "label": "timeAdded",
            "offset": 0,
            "slot": "1",
            "type": "t_uint256"
          },
          {
            "astId": 67,
            "contract": "contracts/Healthchain.sol:HealthChain",
            "label": "patientId",
            "offset": 0,
            "slot": "2",
            "type": "t_address"
          },
          {
            "astId": 69,
            "contract": "contracts/Healthchain.sol:HealthChain",
            "label": "doctorId",
            "offset": 0,
            "slot": "3",
            "type": "t_address"
          },
          {
            "astId": 71,
            "contract": "contracts/Healthchain.sol:HealthChain",
            "label": "fileName",
            "offset": 0,
            "slot": "4",
            "type": "t_string_storage"
          },
          {
            "astId": 73,
            "contract": "contracts/Healthchain.sol:HealthChain",
            "label": "hospital",
            "offset": 0,
            "slot": "5",
            "type": "t_string_storage"
          },
          {
            "astId": 75,
            "contract": "contracts/Healthchain.sol:HealthChain",
            "label": "details",
            "offset": 0,
            "slot": "6",
            "type": "t_string_storage"
          }
        ],
        "numberOfBytes": "224"
      },
      "t_struct(Patient)61_storage": {
        "encoding": "inplace",
        "label": "struct HealthChain.Patient",
        "members": [
          {
            "astId": 40,
            "contract": "contracts/Healthchain.sol:HealthChain",
            "label": "id",
            "offset": 0,
            "slot": "0",
            "type": "t_address"
          },
          {
            "astId": 42,
            "contract": "contracts/Healthchain.sol:HealthChain",
            "label": "doctorId",
            "offset": 0,
            "slot": "1",
            "type": "t_address"
          },
          {
            "astId": 44,
            "contract": "contracts/Healthchain.sol:HealthChain",
            "label": "name",
            "offset": 0,
            "slot": "2",
            "type": "t_string_storage"
          },
          {
            "astId": 46,
            "contract": "contracts/Healthchain.sol:HealthChain",
            "label": "surname",
            "offset": 0,
            "slot": "3",
            "type": "t_string_storage"
          },
          {
            "astId": 48,
            "contract": "contracts/Healthchain.sol:HealthChain",
            "label": "dateOfBirth",
            "offset": 0,
            "slot": "4",
            "type": "t_string_storage"
          },
          {
            "astId": 50,
            "contract": "contracts/Healthchain.sol:HealthChain",
            "label": "email",
            "offset": 0,
            "slot": "5",
            "type": "t_string_storage"
          },
          {
            "astId": 52,
            "contract": "contracts/Healthchain.sol:HealthChain",
            "label": "telephone",
            "offset": 0,
            "slot": "6",
            "type": "t_string_storage"
          },
          {
            "astId": 54,
            "contract": "contracts/Healthchain.sol:HealthChain",
            "label": "telephone2",
            "offset": 0,
            "slot": "7",
            "type": "t_string_storage"
          },
          {
            "astId": 56,
            "contract": "contracts/Healthchain.sol:HealthChain",
            "label": "zipCode",
            "offset": 0,
            "slot": "8",
            "type": "t_string_storage"
          },
          {
            "astId": 58,
            "contract": "contracts/Healthchain.sol:HealthChain",
            "label": "city",
            "offset": 0,
            "slot": "9",
            "type": "t_string_storage"
          },
          {
            "astId": 60,
            "contract": "contracts/Healthchain.sol:HealthChain",
            "label": "country",
            "offset": 0,
            "slot": "10",
            "type": "t_string_storage"
          }
        ],
        "numberOfBytes": "352"
      },
      "t_struct(Request)88_storage": {
        "encoding": "inplace",
        "label": "struct HealthChain.Request",
        "members": [
          {
            "astId": 78,
            "contract": "contracts/Healthchain.sol:HealthChain",
            "label": "requestId",
            "offset": 0,
            "slot": "0",
            "type": "t_uint256"
          },
          {
            "astId": 80,
            "contract": "contracts/Healthchain.sol:HealthChain",
            "label": "patientId",
            "offset": 0,
            "slot": "1",
            "type": "t_address"
          },
          {
            "astId": 82,
            "contract": "contracts/Healthchain.sol:HealthChain",
            "label": "doctorId",
            "offset": 0,
            "slot": "2",
            "type": "t_address"
          },
          {
            "astId": 84,
            "contract": "contracts/Healthchain.sol:HealthChain",
            "label": "timestamp",
            "offset": 0,
            "slot": "3",
            "type": "t_uint256"
          },
          {
            "astId": 87,
            "contract": "contracts/Healthchain.sol:HealthChain",
            "label": "status",
            "offset": 0,
            "slot": "4",
            "type": "t_enum(RequestStatus)19"
          }
        ],
        "numberOfBytes": "160"
      },
      "t_uint256": {
        "encoding": "inplace",
        "label": "uint256",
        "numberOfBytes": "32"
      }
    }
  }
}