{
  "address": "0x5268153C5e93ebCfc490Ce3c0B06AB77973A9Ca2",
  "abi": [
    {
      "inputs": [],
      "name": "HealthChain__MedicalRecordNotFound",
      "type": "error"
    },
    {
      "inputs": [],
      "name": "HealthChain__cantAccessData",
      "type": "error"
    },
    {
      "inputs": [],
      "name": "HealthChain__notYourData",
      "type": "error"
    },
    {
      "inputs": [],
      "name": "HealthChain__requestNotApprovedYet",
      "type": "error"
    },
    {
      "inputs": [],
      "name": "HealthChain__requestNotFound",
      "type": "error"
    },
    {
      "inputs": [],
      "name": "HealthChain__youAlreadyHaveAnAccount",
      "type": "error"
    },
    {
      "anonymous": false,
      "inputs": [
        {
          "indexed": false,
          "internalType": "uint256",
          "name": "requestId",
          "type": "uint256"
        },
        {
          "indexed": false,
          "internalType": "address",
          "name": "patientAddress",
          "type": "address"
        }
      ],
      "name": "RequestApproved",
      "type": "event"
    },
    {
      "anonymous": false,
      "inputs": [
        {
          "indexed": false,
          "internalType": "uint256",
          "name": "requestId",
          "type": "uint256"
        },
        {
          "indexed": false,
          "internalType": "address",
          "name": "patientAddress",
          "type": "address"
        },
        {
          "indexed": false,
          "internalType": "address",
          "name": "doctorAddress",
          "type": "address"
        }
      ],
      "name": "RequestCreated",
      "type": "event"
    },
    {
      "anonymous": false,
      "inputs": [
        {
          "indexed": false,
          "internalType": "uint256",
          "name": "requestId",
          "type": "uint256"
        },
        {
          "indexed": false,
          "internalType": "address",
          "name": "patientAddress",
          "type": "address"
        }
      ],
      "name": "RequestRejected",
      "type": "event"
    },
    {
      "anonymous": false,
      "inputs": [
        {
          "indexed": false,
          "internalType": "address",
          "name": "id",
          "type": "address"
        },
        {
          "indexed": false,
          "internalType": "string",
          "name": "name",
          "type": "string"
        },
        {
          "indexed": false,
          "internalType": "string",
          "name": "surname",
          "type": "string"
        }
      ],
      "name": "doctorCreated",
      "type": "event"
    },
    {
      "anonymous": false,
      "inputs": [
        {
          "indexed": false,
          "internalType": "address",
          "name": "id",
          "type": "address"
        },
        {
          "indexed": false,
          "internalType": "string",
          "name": "name",
          "type": "string"
        },
        {
          "indexed": false,
          "internalType": "string",
          "name": "surname",
          "type": "string"
        }
      ],
      "name": "doctorUpdated",
      "type": "event"
    },
    {
      "anonymous": false,
      "inputs": [
        {
          "indexed": false,
          "internalType": "uint256",
          "name": "medicalRecordId",
          "type": "uint256"
        }
      ],
      "name": "medicalRecordCreated",
      "type": "event"
    },
    {
      "anonymous": false,
      "inputs": [
        {
          "indexed": false,
          "internalType": "uint256",
          "name": "medicalRecordId",
          "type": "uint256"
        }
      ],
      "name": "medicalRecordDeleted",
      "type": "event"
    },
    {
      "anonymous": false,
      "inputs": [
        {
          "indexed": false,
          "internalType": "uint256",
          "name": "medicalRecordId",
          "type": "uint256"
        }
      ],
      "name": "medicalRecordUpdated",
      "type": "event"
    },
    {
      "anonymous": false,
      "inputs": [
        {
          "indexed": false,
          "internalType": "address",
          "name": "id",
          "type": "address"
        },
        {
          "indexed": false,
          "internalType": "string",
          "name": "name",
          "type": "string"
        },
        {
          "indexed": false,
          "internalType": "string",
          "name": "surname",
          "type": "string"
        }
      ],
      "name": "patientCreated",
      "type": "event"
    },
    {
      "anonymous": false,
      "inputs": [
        {
          "indexed": false,
          "internalType": "address",
          "name": "id",
          "type": "address"
        },
        {
          "indexed": false,
          "internalType": "string",
          "name": "name",
          "type": "string"
        },
        {
          "indexed": false,
          "internalType": "string",
          "name": "surname",
          "type": "string"
        }
      ],
      "name": "patientUpdated",
      "type": "event"
    },
    {
      "inputs": [
        {
          "internalType": "string",
          "name": "name",
          "type": "string"
        },
        {
          "internalType": "string",
          "name": "surname",
          "type": "string"
        },
        {
          "internalType": "string",
          "name": "dateOfBirth",
          "type": "string"
        },
        {
          "internalType": "string",
          "name": "email",
          "type": "string"
        },
        {
          "internalType": "string",
          "name": "telephone",
          "type": "string"
        },
        {
          "internalType": "string",
          "name": "zipCode",
          "type": "string"
        },
        {
          "internalType": "string",
          "name": "city",
          "type": "string"
        },
        {
          "internalType": "string",
          "name": "country",
          "type": "string"
        }
      ],
      "name": "createDoctor",
      "outputs": [],
      "stateMutability": "nonpayable",
      "type": "function"
    },
    {
      "inputs": [
        {
          "internalType": "uint256",
          "name": "requestId",
          "type": "uint256"
        },
        {
          "internalType": "address",
          "name": "patientId",
          "type": "address"
        },
        {
          "internalType": "string",
          "name": "fileName",
          "type": "string"
        },
        {
          "internalType": "string",
          "name": "hospital",
          "type": "string"
        },
        {
          "internalType": "string",
          "name": "details",
          "type": "string"
        }
      ],
      "name": "createMedicalRecord",
      "outputs": [],
      "stateMutability": "nonpayable",
      "type": "function"
    },
    {
      "inputs": [
        {
          "internalType": "string",
          "name": "name",
          "type": "string"
        },
        {
          "internalType": "string",
          "name": "surname",
          "type": "string"
        },
        {
          "internalType": "string",
          "name": "dateOfBirth",
          "type": "string"
        },
        {
          "internalType": "string",
          "name": "email",
          "type": "string"
        },
        {
          "internalType": "string",
          "name": "telephone",
          "type": "string"
        },
        {
          "internalType": "string",
          "name": "telephone2",
          "type": "string"
        },
        {
          "internalType": "string",
          "name": "doctorTelephone",
          "type": "string"
        },
        {
          "internalType": "string",
          "name": "zipCode",
          "type": "string"
        },
        {
          "internalType": "string",
          "name": "city",
          "type": "string"
        },
        {
          "internalType": "string",
          "name": "country",
          "type": "string"
        }
      ],
      "name": "createPatient",
      "outputs": [],
      "stateMutability": "nonpayable",
      "type": "function"
    },
    {
      "inputs": [
        {
          "internalType": "address",
          "name": "patientAddress",
          "type": "address"
        }
      ],
      "name": "createRequest",
      "outputs": [],
      "stateMutability": "nonpayable",
      "type": "function"
    },
    {
      "inputs": [
        {
          "internalType": "address",
          "name": "doctorId",
          "type": "address"
        }
      ],
      "name": "getDoctorData",
      "outputs": [
        {
          "components": [
            {
              "internalType": "address",
              "name": "id",
              "type": "address"
            },
            {
              "internalType": "string",
              "name": "name",
              "type": "string"
            },
            {
              "internalType": "string",
              "name": "surname",
              "type": "string"
            },
            {
              "internalType": "string",
              "name": "dateOfBirth",
              "type": "string"
            },
            {
              "internalType": "string",
              "name": "email",
              "type": "string"
            },
            {
              "internalType": "string",
              "name": "telephone",
              "type": "string"
            },
            {
              "internalType": "string",
              "name": "zipCode",
              "type": "string"
            },
            {
              "internalType": "string",
              "name": "city",
              "type": "string"
            },
            {
              "internalType": "string",
              "name": "country",
              "type": "string"
            }
          ],
          "internalType": "struct HealthChain.Doctor",
          "name": "",
          "type": "tuple"
        }
      ],
      "stateMutability": "view",
      "type": "function"
    },
    {
      "inputs": [
        {
          "internalType": "uint256",
          "name": "medicalRecordId",
          "type": "uint256"
        },
        {
          "internalType": "address",
          "name": "patientId",
          "type": "address"
        }
      ],
      "name": "getMedicalRecordById",
      "outputs": [
        {
          "components": [
            {
              "internalType": "uint256",
              "name": "id",
              "type": "uint256"
            },
            {
              "internalType": "uint256",
              "name": "timeAdded",
              "type": "uint256"
            },
            {
              "internalType": "address",
              "name": "patientId",
              "type": "address"
            },
            {
              "internalType": "address",
              "name": "doctorId",
              "type": "address"
            },
            {
              "internalType": "string",
              "name": "fileName",
              "type": "string"
            },
            {
              "internalType": "string",
              "name": "hospital",
              "type": "string"
            },
            {
              "internalType": "string",
              "name": "details",
              "type": "string"
            }
          ],
          "internalType": "struct HealthChain.MedicalRecord",
          "name": "",
          "type": "tuple"
        }
      ],
      "stateMutability": "view",
      "type": "function"
    },
    {
      "inputs": [
        {
          "internalType": "address",
          "name": "patientId",
          "type": "address"
        }
      ],
      "name": "getMedicalRecords",
      "outputs": [
        {
          "components": [
            {
              "internalType": "uint256",
              "name": "id",
              "type": "uint256"
            },
            {
              "internalType": "uint256",
              "name": "timeAdded",
              "type": "uint256"
            },
            {
              "internalType": "address",
              "name": "patientId",
              "type": "address"
            },
            {
              "internalType": "address",
              "name": "doctorId",
              "type": "address"
            },
            {
              "internalType": "string",
              "name": "fileName",
              "type": "string"
            },
            {
              "internalType": "string",
              "name": "hospital",
              "type": "string"
            },
            {
              "internalType": "string",
              "name": "details",
              "type": "string"
            }
          ],
          "internalType": "struct HealthChain.MedicalRecord[]",
          "name": "",
          "type": "tuple[]"
        }
      ],
      "stateMutability": "view",
      "type": "function"
    },
    {
      "inputs": [
        {
          "internalType": "address",
          "name": "patientId",
          "type": "address"
        }
      ],
      "name": "getNumMedicalRecords",
      "outputs": [
        {
          "internalType": "uint256",
          "name": "",
          "type": "uint256"
        }
      ],
      "stateMutability": "view",
      "type": "function"
    },
    {
      "inputs": [
        {
          "internalType": "address",
          "name": "patientId",
          "type": "address"
        }
      ],
      "name": "getPatientData",
      "outputs": [
        {
          "components": [
            {
              "internalType": "address",
              "name": "id",
              "type": "address"
            },
            {
              "internalType": "string",
              "name": "name",
              "type": "string"
            },
            {
              "internalType": "string",
              "name": "surname",
              "type": "string"
            },
            {
              "internalType": "string",
              "name": "dateOfBirth",
              "type": "string"
            },
            {
              "internalType": "string",
              "name": "email",
              "type": "string"
            },
            {
              "internalType": "string",
              "name": "telephone",
              "type": "string"
            },
            {
              "internalType": "string",
              "name": "telephone2",
              "type": "string"
            },
            {
              "internalType": "string",
              "name": "doctorTelephone",
              "type": "string"
            },
            {
              "internalType": "string",
              "name": "zipCode",
              "type": "string"
            },
            {
              "internalType": "string",
              "name": "city",
              "type": "string"
            },
            {
              "internalType": "string",
              "name": "country",
              "type": "string"
            }
          ],
          "internalType": "struct HealthChain.Patient",
          "name": "",
          "type": "tuple"
        }
      ],
      "stateMutability": "view",
      "type": "function"
    },
    {
      "inputs": [
        {
          "internalType": "address",
          "name": "patientId",
          "type": "address"
        }
      ],
      "name": "getPatientsDoctorNumber",
      "outputs": [
        {
          "internalType": "string",
          "name": "",
          "type": "string"
        }
      ],
      "stateMutability": "view",
      "type": "function"
    },
    {
      "inputs": [
        {
          "internalType": "address",
          "name": "patientId",
          "type": "address"
        }
      ],
      "name": "getPendingRequests",
      "outputs": [
        {
          "components": [
            {
              "internalType": "uint256",
              "name": "requestId",
              "type": "uint256"
            },
            {
              "internalType": "address",
              "name": "patientAddress",
              "type": "address"
            },
            {
              "internalType": "address",
              "name": "doctorAddress",
              "type": "address"
            },
            {
              "internalType": "uint256",
              "name": "timestamp",
              "type": "uint256"
            },
            {
              "internalType": "enum HealthChain.RequestStatus",
              "name": "status",
              "type": "uint8"
            }
          ],
          "internalType": "struct HealthChain.Request[]",
          "name": "",
          "type": "tuple[]"
        }
      ],
      "stateMutability": "view",
      "type": "function"
    },
    {
      "inputs": [
        {
          "internalType": "uint256",
          "name": "requestId",
          "type": "uint256"
        },
        {
          "internalType": "bool",
          "name": "approved",
          "type": "bool"
        }
      ],
      "name": "respondToRequest",
      "outputs": [],
      "stateMutability": "nonpayable",
      "type": "function"
    },
    {
      "inputs": [
        {
          "internalType": "address",
          "name": "doctorId",
          "type": "address"
        },
        {
          "internalType": "string",
          "name": "name",
          "type": "string"
        },
        {
          "internalType": "string",
          "name": "surname",
          "type": "string"
        },
        {
          "internalType": "string",
          "name": "dateOfBirth",
          "type": "string"
        },
        {
          "internalType": "string",
          "name": "email",
          "type": "string"
        },
        {
          "internalType": "string",
          "name": "telephone",
          "type": "string"
        },
        {
          "internalType": "string",
          "name": "zipCode",
          "type": "string"
        },
        {
          "internalType": "string",
          "name": "city",
          "type": "string"
        },
        {
          "internalType": "string",
          "name": "country",
          "type": "string"
        }
      ],
      "name": "updateDoctor",
      "outputs": [],
      "stateMutability": "nonpayable",
      "type": "function"
    },
    {
      "inputs": [
        {
          "internalType": "address",
          "name": "patientId",
          "type": "address"
        },
        {
          "internalType": "uint256",
          "name": "medicalRecordId",
          "type": "uint256"
        },
        {
          "internalType": "uint256",
          "name": "requestId",
          "type": "uint256"
        },
        {
          "internalType": "string",
          "name": "fileName",
          "type": "string"
        },
        {
          "internalType": "string",
          "name": "hospital",
          "type": "string"
        },
        {
          "internalType": "string",
          "name": "details",
          "type": "string"
        }
      ],
      "name": "updateMedicalRecord",
      "outputs": [],
      "stateMutability": "nonpayable",
      "type": "function"
    },
    {
      "inputs": [
        {
          "internalType": "address",
          "name": "patientId",
          "type": "address"
        },
        {
          "internalType": "string",
          "name": "name",
          "type": "string"
        },
        {
          "internalType": "string",
          "name": "surname",
          "type": "string"
        },
        {
          "internalType": "string",
          "name": "dateOfBirth",
          "type": "string"
        },
        {
          "internalType": "string",
          "name": "email",
          "type": "string"
        },
        {
          "internalType": "string",
          "name": "telephone",
          "type": "string"
        },
        {
          "internalType": "string",
          "name": "telephone2",
          "type": "string"
        },
        {
          "internalType": "string",
          "name": "doctorTelephone",
          "type": "string"
        },
        {
          "internalType": "string",
          "name": "zipCode",
          "type": "string"
        },
        {
          "internalType": "string",
          "name": "city",
          "type": "string"
        },
        {
          "internalType": "string",
          "name": "country",
          "type": "string"
        }
      ],
      "name": "updatePatient",
      "outputs": [],
      "stateMutability": "nonpayable",
      "type": "function"
    }
  ],
  "transactionHash": "0x7ab380c059adb0d8317d81f9f7990dd38eaa9371fca4c41c7e726edf0b4f40f6",
  "args": [],
  "numDeployments": 1,
  "solcInputHash": "0e349db2bcea0c08baeb67cdb792cd13",
  "bytecode": "0x608060405234801561001057600080fd5b506157bb80620000216000396000f3fe608060405234801561001057600080fd5b50600436106100f55760003560e01c80639e2e516a11610097578063ba2d3f3811610066578063ba2d3f3814610292578063c67feeac146102ae578063f05bfa7b146102ca578063f05f672f146102fa576100f5565b80639e2e516a146101fa578063a42a0de214610216578063afd8297c14610246578063b4e1256314610276576100f5565b80632e8ff13c116100d35780632e8ff13c1461014e57806340af39a81461017e57806348e818521461019a5780634dde436a146101ca576100f5565b806314ee93a2146100fa5780631da0ec51146101165780632997addc14610132575b600080fd5b610114600480360381019061010f9190613f93565b61032a565b005b610130600480360381019061012b919061413c565b610670565b005b61014c6004803603810190610147919061420b565b610c2a565b005b61016860048036038101906101639190613f93565b610e8d565b604051610175919061459b565b60405180910390f35b610198600480360381019061019391906145bd565b61146f565b005b6101b460048036038101906101af9190613f93565b6117a4565b6040516101c19190614881565b60405180910390f35b6101e460048036038101906101df9190613f93565b61200a565b6040516101f191906148b2565b60405180910390f35b610214600480360381019061020f91906148cd565b612250565b005b610230600480360381019061022b9190614a77565b612529565b60405161023d9190614b70565b60405180910390f35b610260600480360381019061025b9190613f93565b612a07565b60405161026d9190614cfe565b60405180910390f35b610290600480360381019061028b9190614d20565b612e7d565b005b6102ac60048036038101906102a79190614f4f565b6131ed565b005b6102c860048036038101906102c39190614f8f565b61355a565b005b6102e460048036038101906102df9190613f93565b613977565b6040516102f191906151fe565b60405180910390f35b610314600480360381019061030f9190613f93565b613c72565b604051610321919061526a565b60405180910390f35b3373ffffffffffffffffffffffffffffffffffffffff16600160003373ffffffffffffffffffffffffffffffffffffffff1673ffffffffffffffffffffffffffffffffffffffff16815260200190815260200160002060000160009054906101000a900473ffffffffffffffffffffffffffffffffffffffff1673ffffffffffffffffffffffffffffffffffffffff16146103c457600080fd5b808073ffffffffffffffffffffffffffffffffffffffff166000808373ffffffffffffffffffffffffffffffffffffffff1673ffffffffffffffffffffffffffffffffffffffff16815260200190815260200160002060000160009054906101000a900473ffffffffffffffffffffffffffffffffffffffff1673ffffffffffffffffffffffffffffffffffffffff161461045e57600080fd5b600042336040516020016104739291906152f5565b6040516020818303038152906040528051906020012060001c9050600360008473ffffffffffffffffffffffffffffffffffffffff1673ffffffffffffffffffffffffffffffffffffffff1681526020019081526020016000206040518060a001604052808381526020018573ffffffffffffffffffffffffffffffffffffffff1681526020013373ffffffffffffffffffffffffffffffffffffffff168152602001428152602001600060028111156105305761052f61509c565b5b81525090806001815401808255809150506001900390600052602060002090600502016000909190919091506000820151816000015560208201518160010160006101000a81548173ffffffffffffffffffffffffffffffffffffffff021916908373ffffffffffffffffffffffffffffffffffffffff16021790555060408201518160020160006101000a81548173ffffffffffffffffffffffffffffffffffffffff021916908373ffffffffffffffffffffffffffffffffffffffff1602179055506060820151816003015560808201518160040160006101000a81548160ff021916908360028111156106295761062861509c565b5b021790555050507f792a58c0f08f2721abcea9d1ce73f5e2edf43028d6582961791f0a66e7958e7b81843360405161066393929190615330565b60405180910390a1505050565b3373ffffffffffffffffffffffffffffffffffffffff16600160003373ffffffffffffffffffffffffffffffffffffffff1673ffffffffffffffffffffffffffffffffffffffff16815260200190815260200160002060000160009054906101000a900473ffffffffffffffffffffffffffffffffffffffff1673ffffffffffffffffffffffffffffffffffffffff161461070a57600080fd5b838073ffffffffffffffffffffffffffffffffffffffff166000808373ffffffffffffffffffffffffffffffffffffffff1673ffffffffffffffffffffffffffffffffffffffff16815260200190815260200160002060000160009054906101000a900473ffffffffffffffffffffffffffffffffffffffff1673ffffffffffffffffffffffffffffffffffffffff16146107a457600080fd5b6000600360008773ffffffffffffffffffffffffffffffffffffffff1673ffffffffffffffffffffffffffffffffffffffff16815260200190815260200160002090506000805b8280549050811015610be8578883828154811061080b5761080a615367565b5b90600052602060002090600502016000015414801561089957503373ffffffffffffffffffffffffffffffffffffffff1683828154811061084f5761084e615367565b5b906000526020600020906005020160020160009054906101000a900473ffffffffffffffffffffffffffffffffffffffff1673ffffffffffffffffffffffffffffffffffffffff16145b80156108fa5750600160028111156108b4576108b361509c565b5b8382815481106108c7576108c6615367565b5b906000526020600020906005020160040160009054906101000a900460ff1660028111156108f8576108f761509c565b5b145b15610bd5576001915060003342604051602001610918929190615396565b6040516020818303038152906040528051906020012060601c73ffffffffffffffffffffffffffffffffffffffff169050600260008a73ffffffffffffffffffffffffffffffffffffffff1673ffffffffffffffffffffffffffffffffffffffff1681526020019081526020016000206040518060e001604052808381526020014281526020018b73ffffffffffffffffffffffffffffffffffffffff1681526020013373ffffffffffffffffffffffffffffffffffffffff1681526020018a8152602001898152602001888152509080600181540180825580915050600190039060005260206000209060070201600090919091909150600082015181600001556020820151816001015560408201518160020160006101000a81548173ffffffffffffffffffffffffffffffffffffffff021916908373ffffffffffffffffffffffffffffffffffffffff16021790555060608201518160030160006101000a81548173ffffffffffffffffffffffffffffffffffffffff021916908373ffffffffffffffffffffffffffffffffffffffff1602179055506080820151816004019081610ac791906155ce565b5060a0820151816005019081610add91906155ce565b5060c0820151816006019081610af391906155ce565b505050600460008a73ffffffffffffffffffffffffffffffffffffffff1673ffffffffffffffffffffffffffffffffffffffff1681526020019081526020016000206000815480929190610b46906156cf565b91905055507ff0976b2e6f07c862d78af8fa73d01ce644b69f23574f2213275a040c180c06c781604051610b7a91906148b2565b60405180910390a16000848381548110610b9757610b96615367565b5b906000526020600020906005020160040160006101000a81548160ff02191690836002811115610bca57610bc961509c565b5b021790555050610be8565b8080610be0906156cf565b9150506107eb565b5080610c20576040517fae97f79000000000000000000000000000000000000000000000000000000000815260040160405180910390fd5b5050505050505050565b8a8073ffffffffffffffffffffffffffffffffffffffff166000808373ffffffffffffffffffffffffffffffffffffffff1673ffffffffffffffffffffffffffffffffffffffff16815260200190815260200160002060000160009054906101000a900473ffffffffffffffffffffffffffffffffffffffff1673ffffffffffffffffffffffffffffffffffffffff1614610cc457600080fd5b60008060003373ffffffffffffffffffffffffffffffffffffffff1673ffffffffffffffffffffffffffffffffffffffff16815260200190815260200160002090508c73ffffffffffffffffffffffffffffffffffffffff168160000160009054906101000a900473ffffffffffffffffffffffffffffffffffffffff1673ffffffffffffffffffffffffffffffffffffffff1614610d8f576040517f57c0ff9e00000000000000000000000000000000000000000000000000000000815260040160405180910390fd5b8b816001019081610da091906155ce565b508a816002019081610db291906155ce565b5089816003019081610dc491906155ce565b5088816004019081610dd691906155ce565b5087816005019081610de891906155ce565b5086816006019081610dfa91906155ce565b5085816007019081610e0c91906155ce565b5084816008019081610e1e91906155ce565b5083816009019081610e3091906155ce565b508281600a019081610e4291906155ce565b507fb9155cf7f016b79957e9d131dc5d56a394abf9933886292c9e760fe98e4c55d48d8d8d604051610e7693929190615717565b60405180910390a150505050505050505050505050565b610e95613de6565b818073ffffffffffffffffffffffffffffffffffffffff16600160008373ffffffffffffffffffffffffffffffffffffffff1673ffffffffffffffffffffffffffffffffffffffff16815260200190815260200160002060000160009054906101000a900473ffffffffffffffffffffffffffffffffffffffff1673ffffffffffffffffffffffffffffffffffffffff1614610f3057600080fd5b6000600160008573ffffffffffffffffffffffffffffffffffffffff1673ffffffffffffffffffffffffffffffffffffffff168152602001908152602001600020604051806101200160405290816000820160009054906101000a900473ffffffffffffffffffffffffffffffffffffffff1673ffffffffffffffffffffffffffffffffffffffff1673ffffffffffffffffffffffffffffffffffffffff168152602001600182018054610fe3906153f1565b80601f016020809104026020016040519081016040528092919081815260200182805461100f906153f1565b801561105c5780601f106110315761010080835404028352916020019161105c565b820191906000526020600020905b81548152906001019060200180831161103f57829003601f168201915b50505050508152602001600282018054611075906153f1565b80601f01602080910402602001604051908101604052809291908181526020018280546110a1906153f1565b80156110ee5780601f106110c3576101008083540402835291602001916110ee565b820191906000526020600020905b8154815290600101906020018083116110d157829003601f168201915b50505050508152602001600382018054611107906153f1565b80601f0160208091040260200160405190810160405280929190818152602001828054611133906153f1565b80156111805780601f1061115557610100808354040283529160200191611180565b820191906000526020600020905b81548152906001019060200180831161116357829003601f168201915b50505050508152602001600482018054611199906153f1565b80601f01602080910402602001604051908101604052809291908181526020018280546111c5906153f1565b80156112125780601f106111e757610100808354040283529160200191611212565b820191906000526020600020905b8154815290600101906020018083116111f557829003601f168201915b5050505050815260200160058201805461122b906153f1565b80601f0160208091040260200160405190810160405280929190818152602001828054611257906153f1565b80156112a45780601f10611279576101008083540402835291602001916112a4565b820191906000526020600020905b81548152906001019060200180831161128757829003601f168201915b505050505081526020016006820180546112bd906153f1565b80601f01602080910402602001604051908101604052809291908181526020018280546112e9906153f1565b80156113365780601f1061130b57610100808354040283529160200191611336565b820191906000526020600020905b81548152906001019060200180831161131957829003601f168201915b5050505050815260200160078201805461134f906153f1565b80601f016020809104026020016040519081016040528092919081815260200182805461137b906153f1565b80156113c85780601f1061139d576101008083540402835291602001916113c8565b820191906000526020600020905b8154815290600101906020018083116113ab57829003601f168201915b505050505081526020016008820180546113e1906153f1565b80601f016020809104026020016040519081016040528092919081815260200182805461140d906153f1565b801561145a5780601f1061142f5761010080835404028352916020019161145a565b820191906000526020600020905b81548152906001019060200180831161143d57829003601f168201915b50505050508152505090508092505050919050565b3373ffffffffffffffffffffffffffffffffffffffff16600160003373ffffffffffffffffffffffffffffffffffffffff1673ffffffffffffffffffffffffffffffffffffffff16815260200190815260200160002060000160009054906101000a900473ffffffffffffffffffffffffffffffffffffffff1673ffffffffffffffffffffffffffffffffffffffff1614801561159857503373ffffffffffffffffffffffffffffffffffffffff166000803373ffffffffffffffffffffffffffffffffffffffff1673ffffffffffffffffffffffffffffffffffffffff16815260200190815260200160002060000160009054906101000a900473ffffffffffffffffffffffffffffffffffffffff1673ffffffffffffffffffffffffffffffffffffffff16145b156115cf576040517f06d6763e00000000000000000000000000000000000000000000000000000000815260040160405180910390fd5b6040518061012001604052803373ffffffffffffffffffffffffffffffffffffffff16815260200189815260200188815260200187815260200186815260200185815260200184815260200183815260200182815250600160003373ffffffffffffffffffffffffffffffffffffffff1673ffffffffffffffffffffffffffffffffffffffff16815260200190815260200160002060008201518160000160006101000a81548173ffffffffffffffffffffffffffffffffffffffff021916908373ffffffffffffffffffffffffffffffffffffffff16021790555060208201518160010190816116c091906155ce565b5060408201518160020190816116d691906155ce565b5060608201518160030190816116ec91906155ce565b50608082015181600401908161170291906155ce565b5060a082015181600501908161171891906155ce565b5060c082015181600601908161172e91906155ce565b5060e082015181600701908161174491906155ce565b5061010082015181600801908161175b91906155ce565b509050507f4c228560b35aca1b4219ad14c68cd752e8944c36ee85f6c9b024da620b0e894033898960405161179293929190615717565b60405180910390a15050505050505050565b6117ac613e48565b818073ffffffffffffffffffffffffffffffffffffffff166000808373ffffffffffffffffffffffffffffffffffffffff1673ffffffffffffffffffffffffffffffffffffffff16815260200190815260200160002060000160009054906101000a900473ffffffffffffffffffffffffffffffffffffffff1673ffffffffffffffffffffffffffffffffffffffff161461184657600080fd5b3373ffffffffffffffffffffffffffffffffffffffff166000808573ffffffffffffffffffffffffffffffffffffffff1673ffffffffffffffffffffffffffffffffffffffff16815260200190815260200160002060000160009054906101000a900473ffffffffffffffffffffffffffffffffffffffff1673ffffffffffffffffffffffffffffffffffffffff161415801561197157503373ffffffffffffffffffffffffffffffffffffffff16600160003373ffffffffffffffffffffffffffffffffffffffff1673ffffffffffffffffffffffffffffffffffffffff16815260200190815260200160002060000160009054906101000a900473ffffffffffffffffffffffffffffffffffffffff1673ffffffffffffffffffffffffffffffffffffffff1614155b156119a8576040517fd05e4aeb00000000000000000000000000000000000000000000000000000000815260040160405180910390fd5b60008060008573ffffffffffffffffffffffffffffffffffffffff1673ffffffffffffffffffffffffffffffffffffffff168152602001908152602001600020604051806101600160405290816000820160009054906101000a900473ffffffffffffffffffffffffffffffffffffffff1673ffffffffffffffffffffffffffffffffffffffff1673ffffffffffffffffffffffffffffffffffffffff168152602001600182018054611a5a906153f1565b80601f0160208091040260200160405190810160405280929190818152602001828054611a86906153f1565b8015611ad35780601f10611aa857610100808354040283529160200191611ad3565b820191906000526020600020905b815481529060010190602001808311611ab657829003601f168201915b50505050508152602001600282018054611aec906153f1565b80601f0160208091040260200160405190810160405280929190818152602001828054611b18906153f1565b8015611b655780601f10611b3a57610100808354040283529160200191611b65565b820191906000526020600020905b815481529060010190602001808311611b4857829003601f168201915b50505050508152602001600382018054611b7e906153f1565b80601f0160208091040260200160405190810160405280929190818152602001828054611baa906153f1565b8015611bf75780601f10611bcc57610100808354040283529160200191611bf7565b820191906000526020600020905b815481529060010190602001808311611bda57829003601f168201915b50505050508152602001600482018054611c10906153f1565b80601f0160208091040260200160405190810160405280929190818152602001828054611c3c906153f1565b8015611c895780601f10611c5e57610100808354040283529160200191611c89565b820191906000526020600020905b815481529060010190602001808311611c6c57829003601f168201915b50505050508152602001600582018054611ca2906153f1565b80601f0160208091040260200160405190810160405280929190818152602001828054611cce906153f1565b8015611d1b5780601f10611cf057610100808354040283529160200191611d1b565b820191906000526020600020905b815481529060010190602001808311611cfe57829003601f168201915b50505050508152602001600682018054611d34906153f1565b80601f0160208091040260200160405190810160405280929190818152602001828054611d60906153f1565b8015611dad5780601f10611d8257610100808354040283529160200191611dad565b820191906000526020600020905b815481529060010190602001808311611d9057829003601f168201915b50505050508152602001600782018054611dc6906153f1565b80601f0160208091040260200160405190810160405280929190818152602001828054611df2906153f1565b8015611e3f5780601f10611e1457610100808354040283529160200191611e3f565b820191906000526020600020905b815481529060010190602001808311611e2257829003601f168201915b50505050508152602001600882018054611e58906153f1565b80601f0160208091040260200160405190810160405280929190818152602001828054611e84906153f1565b8015611ed15780601f10611ea657610100808354040283529160200191611ed1565b820191906000526020600020905b815481529060010190602001808311611eb457829003601f168201915b50505050508152602001600982018054611eea906153f1565b80601f0160208091040260200160405190810160405280929190818152602001828054611f16906153f1565b8015611f635780601f10611f3857610100808354040283529160200191611f63565b820191906000526020600020905b815481529060010190602001808311611f4657829003601f168201915b50505050508152602001600a82018054611f7c906153f1565b80601f0160208091040260200160405190810160405280929190818152602001828054611fa8906153f1565b8015611ff55780601f10611fca57610100808354040283529160200191611ff5565b820191906000526020600020905b815481529060010190602001808311611fd857829003601f168201915b50505050508152505090508092505050919050565b6000818073ffffffffffffffffffffffffffffffffffffffff166000808373ffffffffffffffffffffffffffffffffffffffff1673ffffffffffffffffffffffffffffffffffffffff16815260200190815260200160002060000160009054906101000a900473ffffffffffffffffffffffffffffffffffffffff1673ffffffffffffffffffffffffffffffffffffffff16146120a657600080fd5b3373ffffffffffffffffffffffffffffffffffffffff166000808573ffffffffffffffffffffffffffffffffffffffff1673ffffffffffffffffffffffffffffffffffffffff16815260200190815260200160002060000160009054906101000a900473ffffffffffffffffffffffffffffffffffffffff1673ffffffffffffffffffffffffffffffffffffffff16141580156121d157503373ffffffffffffffffffffffffffffffffffffffff16600160003373ffffffffffffffffffffffffffffffffffffffff1673ffffffffffffffffffffffffffffffffffffffff16815260200190815260200160002060000160009054906101000a900473ffffffffffffffffffffffffffffffffffffffff1673ffffffffffffffffffffffffffffffffffffffff1614155b15612208576040517fd05e4aeb00000000000000000000000000000000000000000000000000000000815260040160405180910390fd5b600460008473ffffffffffffffffffffffffffffffffffffffff1673ffffffffffffffffffffffffffffffffffffffff16815260200190815260200160002054915050919050565b3373ffffffffffffffffffffffffffffffffffffffff16600160003373ffffffffffffffffffffffffffffffffffffffff1673ffffffffffffffffffffffffffffffffffffffff16815260200190815260200160002060000160009054906101000a900473ffffffffffffffffffffffffffffffffffffffff1673ffffffffffffffffffffffffffffffffffffffff16146122ea57600080fd5b888073ffffffffffffffffffffffffffffffffffffffff16600160008373ffffffffffffffffffffffffffffffffffffffff1673ffffffffffffffffffffffffffffffffffffffff16815260200190815260200160002060000160009054906101000a900473ffffffffffffffffffffffffffffffffffffffff1673ffffffffffffffffffffffffffffffffffffffff161461238557600080fd5b6000600160003373ffffffffffffffffffffffffffffffffffffffff1673ffffffffffffffffffffffffffffffffffffffff16815260200190815260200160002090508a73ffffffffffffffffffffffffffffffffffffffff168160000160009054906101000a900473ffffffffffffffffffffffffffffffffffffffff1673ffffffffffffffffffffffffffffffffffffffff1614612451576040517f57c0ff9e00000000000000000000000000000000000000000000000000000000815260040160405180910390fd5b8981600101908161246291906155ce565b508881600201908161247491906155ce565b508781600301908161248691906155ce565b508681600401908161249891906155ce565b50858160050190816124aa91906155ce565b50848160060190816124bc91906155ce565b50838160070190816124ce91906155ce565b50828160080190816124e091906155ce565b507ff30e1da68c9578cb8eb176920ac0459c9a8744c373b44a2981dcf5b6ba4bf0198b8b8b60405161251493929190615717565b60405180910390a15050505050505050505050565b612531613eb8565b3373ffffffffffffffffffffffffffffffffffffffff166000808473ffffffffffffffffffffffffffffffffffffffff1673ffffffffffffffffffffffffffffffffffffffff16815260200190815260200160002060000160009054906101000a900473ffffffffffffffffffffffffffffffffffffffff1673ffffffffffffffffffffffffffffffffffffffff161415801561265c57503373ffffffffffffffffffffffffffffffffffffffff16600160003373ffffffffffffffffffffffffffffffffffffffff1673ffffffffffffffffffffffffffffffffffffffff16815260200190815260200160002060000160009054906101000a900473ffffffffffffffffffffffffffffffffffffffff1673ffffffffffffffffffffffffffffffffffffffff1614155b15612693576040517fd05e4aeb00000000000000000000000000000000000000000000000000000000815260040160405180910390fd5b6000600260008473ffffffffffffffffffffffffffffffffffffffff1673ffffffffffffffffffffffffffffffffffffffff168152602001908152602001600020905060005b81805490508110156129ce57848282815481106126f9576126f8615367565b5b906000526020600020906007020160000154036129bb5781818154811061272357612722615367565b5b90600052602060002090600702016040518060e001604052908160008201548152602001600182015481526020016002820160009054906101000a900473ffffffffffffffffffffffffffffffffffffffff1673ffffffffffffffffffffffffffffffffffffffff1673ffffffffffffffffffffffffffffffffffffffff1681526020016003820160009054906101000a900473ffffffffffffffffffffffffffffffffffffffff1673ffffffffffffffffffffffffffffffffffffffff1673ffffffffffffffffffffffffffffffffffffffff16815260200160048201805461280c906153f1565b80601f0160208091040260200160405190810160405280929190818152602001828054612838906153f1565b80156128855780601f1061285a57610100808354040283529160200191612885565b820191906000526020600020905b81548152906001019060200180831161286857829003601f168201915b5050505050815260200160058201805461289e906153f1565b80601f01602080910402602001604051908101604052809291908181526020018280546128ca906153f1565b80156129175780601f106128ec57610100808354040283529160200191612917565b820191906000526020600020905b8154815290600101906020018083116128fa57829003601f168201915b50505050508152602001600682018054612930906153f1565b80601f016020809104026020016040519081016040528092919081815260200182805461295c906153f1565b80156129a95780601f1061297e576101008083540402835291602001916129a9565b820191906000526020600020905b81548152906001019060200180831161298c57829003601f168201915b50505050508152505092505050612a01565b80806129c6906156cf565b9150506126d9565b506040517f7c2ee70a00000000000000000000000000000000000000000000000000000000815260040160405180910390fd5b92915050565b60603373ffffffffffffffffffffffffffffffffffffffff166000808473ffffffffffffffffffffffffffffffffffffffff1673ffffffffffffffffffffffffffffffffffffffff16815260200190815260200160002060000160009054906101000a900473ffffffffffffffffffffffffffffffffffffffff1673ffffffffffffffffffffffffffffffffffffffff1614158015612b3457503373ffffffffffffffffffffffffffffffffffffffff16600160003373ffffffffffffffffffffffffffffffffffffffff1673ffffffffffffffffffffffffffffffffffffffff16815260200190815260200160002060000160009054906101000a900473ffffffffffffffffffffffffffffffffffffffff1673ffffffffffffffffffffffffffffffffffffffff1614155b15612b6b576040517fd05e4aeb00000000000000000000000000000000000000000000000000000000815260040160405180910390fd5b600260008373ffffffffffffffffffffffffffffffffffffffff1673ffffffffffffffffffffffffffffffffffffffff168152602001908152602001600020805480602002602001604051908101604052809291908181526020016000905b82821015612e7257838290600052602060002090600702016040518060e001604052908160008201548152602001600182015481526020016002820160009054906101000a900473ffffffffffffffffffffffffffffffffffffffff1673ffffffffffffffffffffffffffffffffffffffff1673ffffffffffffffffffffffffffffffffffffffff1681526020016003820160009054906101000a900473ffffffffffffffffffffffffffffffffffffffff1673ffffffffffffffffffffffffffffffffffffffff1673ffffffffffffffffffffffffffffffffffffffff168152602001600482018054612cbd906153f1565b80601f0160208091040260200160405190810160405280929190818152602001828054612ce9906153f1565b8015612d365780601f10612d0b57610100808354040283529160200191612d36565b820191906000526020600020905b815481529060010190602001808311612d1957829003601f168201915b50505050508152602001600582018054612d4f906153f1565b80601f0160208091040260200160405190810160405280929190818152602001828054612d7b906153f1565b8015612dc85780601f10612d9d57610100808354040283529160200191612dc8565b820191906000526020600020905b815481529060010190602001808311612dab57829003601f168201915b50505050508152602001600682018054612de1906153f1565b80601f0160208091040260200160405190810160405280929190818152602001828054612e0d906153f1565b8015612e5a5780601f10612e2f57610100808354040283529160200191612e5a565b820191906000526020600020905b815481529060010190602001808311612e3d57829003601f168201915b50505050508152505081526020019060010190612bca565b505050509050919050565b3373ffffffffffffffffffffffffffffffffffffffff166000803373ffffffffffffffffffffffffffffffffffffffff1673ffffffffffffffffffffffffffffffffffffffff16815260200190815260200160002060000160009054906101000a900473ffffffffffffffffffffffffffffffffffffffff1673ffffffffffffffffffffffffffffffffffffffff16148015612fa657503373ffffffffffffffffffffffffffffffffffffffff16600160003373ffffffffffffffffffffffffffffffffffffffff1673ffffffffffffffffffffffffffffffffffffffff16815260200190815260200160002060000160009054906101000a900473ffffffffffffffffffffffffffffffffffffffff1673ffffffffffffffffffffffffffffffffffffffff16145b15612fdd576040517f06d6763e00000000000000000000000000000000000000000000000000000000815260040160405180910390fd5b6040518061016001604052803373ffffffffffffffffffffffffffffffffffffffff1681526020018b81526020018a8152602001898152602001888152602001878152602001868152602001858152602001848152602001838152602001828152506000803373ffffffffffffffffffffffffffffffffffffffff1673ffffffffffffffffffffffffffffffffffffffff16815260200190815260200160002060008201518160000160006101000a81548173ffffffffffffffffffffffffffffffffffffffff021916908373ffffffffffffffffffffffffffffffffffffffff16021790555060208201518160010190816130d991906155ce565b5060408201518160020190816130ef91906155ce565b50606082015181600301908161310591906155ce565b50608082015181600401908161311b91906155ce565b5060a082015181600501908161313191906155ce565b5060c082015181600601908161314791906155ce565b5060e082015181600701908161315d91906155ce565b5061010082015181600801908161317491906155ce565b5061012082015181600901908161318b91906155ce565b5061014082015181600a0190816131a291906155ce565b509050507f2ebd0466e7f37c1b237d3558e4b06b95b9eac254029aab5b1ba131bf543943c5338b8b6040516131d993929190615717565b60405180910390a150505050505050505050565b3373ffffffffffffffffffffffffffffffffffffffff166000803373ffffffffffffffffffffffffffffffffffffffff1673ffffffffffffffffffffffffffffffffffffffff16815260200190815260200160002060000160009054906101000a900473ffffffffffffffffffffffffffffffffffffffff1673ffffffffffffffffffffffffffffffffffffffff161461328657600080fd5b6000600360003373ffffffffffffffffffffffffffffffffffffffff1673ffffffffffffffffffffffffffffffffffffffff16815260200190815260200160002090506000805b828054905081101561351c57848382815481106132ed576132ec615367565b5b90600052602060002090600502016000015414801561337b57503373ffffffffffffffffffffffffffffffffffffffff1683828154811061333157613330615367565b5b906000526020600020906005020160010160009054906101000a900473ffffffffffffffffffffffffffffffffffffffff1673ffffffffffffffffffffffffffffffffffffffff16145b80156133dd5750600160028111156133965761339561509c565b5b8382815481106133a9576133a8615367565b5b906000526020600020906005020160040160009054906101000a900460ff1660028111156133da576133d961509c565b5b14155b156135095760019150600115158415150361347d57600183828154811061340757613406615367565b5b906000526020600020906005020160040160006101000a81548160ff0219169083600281111561343a5761343961509c565b5b02179055507ff3dc904660a0ea05aba8dfa1e21fbc4fb2914be2a3029da7b0fdd3e5eee20ddb853360405161347092919061575c565b60405180910390a1613504565b600283828154811061349257613491615367565b5b906000526020600020906005020160040160006101000a81548160ff021916908360028111156134c5576134c461509c565b5b02179055507f490ad67e4c8b3b9c1d11dfcd7f02e155190b8f6feff3a9d9e9df3721f0f74e5785336040516134fb92919061575c565b60405180910390a15b61351c565b8080613514906156cf565b9150506132cd565b5080613554576040517fcbf74bb600000000000000000000000000000000000000000000000000000000815260040160405180910390fd5b50505050565b3373ffffffffffffffffffffffffffffffffffffffff16600160003373ffffffffffffffffffffffffffffffffffffffff1673ffffffffffffffffffffffffffffffffffffffff16815260200190815260200160002060000160009054906101000a900473ffffffffffffffffffffffffffffffffffffffff1673ffffffffffffffffffffffffffffffffffffffff16146135f457600080fd5b6000600360008873ffffffffffffffffffffffffffffffffffffffff1673ffffffffffffffffffffffffffffffffffffffff16815260200190815260200160002090506000805b828054905081101561376b578683828154811061365b5761365a615367565b5b9060005260206000209060050201600001541480156136e957503373ffffffffffffffffffffffffffffffffffffffff1683828154811061369f5761369e615367565b5b906000526020600020906005020160020160009054906101000a900473ffffffffffffffffffffffffffffffffffffffff1673ffffffffffffffffffffffffffffffffffffffff16145b801561374a5750600160028111156137045761370361509c565b5b83828154811061371757613716615367565b5b906000526020600020906005020160040160009054906101000a900460ff1660028111156137485761374761509c565b5b145b15613758576001915061376b565b8080613763906156cf565b91505061363b565b50806137a3576040517fae97f79000000000000000000000000000000000000000000000000000000000815260040160405180910390fd5b6000600260008a73ffffffffffffffffffffffffffffffffffffffff1673ffffffffffffffffffffffffffffffffffffffff16815260200190815260200160002090506000805b8280549050811015613933578983828154811061380a57613809615367565b5b9060005260206000209060070201600001540361392057600191508783828154811061383957613838615367565b5b9060005260206000209060070201600401908161385691906155ce565b508683828154811061386b5761386a615367565b5b9060005260206000209060070201600501908161388891906155ce565b508583828154811061389d5761389c615367565b5b906000526020600020906007020160060190816138ba91906155ce565b50428382815481106138cf576138ce615367565b5b9060005260206000209060070201600101819055507f8b5c256b782c4ca109a9f25f295f63e5736b6160825424ff4205098c17d1cc0e8a60405161391391906148b2565b60405180910390a1613933565b808061392b906156cf565b9150506137ea565b508061396b576040517f7c2ee70a00000000000000000000000000000000000000000000000000000000815260040160405180910390fd5b50505050505050505050565b60603373ffffffffffffffffffffffffffffffffffffffff166000808473ffffffffffffffffffffffffffffffffffffffff1673ffffffffffffffffffffffffffffffffffffffff16815260200190815260200160002060000160009054906101000a900473ffffffffffffffffffffffffffffffffffffffff1673ffffffffffffffffffffffffffffffffffffffff1614158015613aa457503373ffffffffffffffffffffffffffffffffffffffff16600160003373ffffffffffffffffffffffffffffffffffffffff1673ffffffffffffffffffffffffffffffffffffffff16815260200190815260200160002060000160009054906101000a900473ffffffffffffffffffffffffffffffffffffffff1673ffffffffffffffffffffffffffffffffffffffff1614155b15613adb576040517fd05e4aeb00000000000000000000000000000000000000000000000000000000815260040160405180910390fd5b600360008373ffffffffffffffffffffffffffffffffffffffff1673ffffffffffffffffffffffffffffffffffffffff168152602001908152602001600020805480602002602001604051908101604052809291908181526020016000905b82821015613c6757838290600052602060002090600502016040518060a0016040529081600082015481526020016001820160009054906101000a900473ffffffffffffffffffffffffffffffffffffffff1673ffffffffffffffffffffffffffffffffffffffff1673ffffffffffffffffffffffffffffffffffffffff1681526020016002820160009054906101000a900473ffffffffffffffffffffffffffffffffffffffff1673ffffffffffffffffffffffffffffffffffffffff1673ffffffffffffffffffffffffffffffffffffffff168152602001600382015481526020016004820160009054906101000a900460ff166002811115613c4257613c4161509c565b5b6002811115613c5457613c5361509c565b5b8152505081526020019060010190613b3a565b505050509050919050565b6060818073ffffffffffffffffffffffffffffffffffffffff166000808373ffffffffffffffffffffffffffffffffffffffff1673ffffffffffffffffffffffffffffffffffffffff16815260200190815260200160002060000160009054906101000a900473ffffffffffffffffffffffffffffffffffffffff1673ffffffffffffffffffffffffffffffffffffffff1614613d0e57600080fd5b60008060008573ffffffffffffffffffffffffffffffffffffffff1673ffffffffffffffffffffffffffffffffffffffff1681526020019081526020016000206007018054613d5c906153f1565b80601f0160208091040260200160405190810160405280929190818152602001828054613d88906153f1565b8015613dd55780601f10613daa57610100808354040283529160200191613dd5565b820191906000526020600020905b815481529060010190602001808311613db857829003601f168201915b505050505090508092505050919050565b604051806101200160405280600073ffffffffffffffffffffffffffffffffffffffff16815260200160608152602001606081526020016060815260200160608152602001606081526020016060815260200160608152602001606081525090565b604051806101600160405280600073ffffffffffffffffffffffffffffffffffffffff168152602001606081526020016060815260200160608152602001606081526020016060815260200160608152602001606081526020016060815260200160608152602001606081525090565b6040518060e001604052806000815260200160008152602001600073ffffffffffffffffffffffffffffffffffffffff168152602001600073ffffffffffffffffffffffffffffffffffffffff1681526020016060815260200160608152602001606081525090565b6000604051905090565b600080fd5b600080fd5b600073ffffffffffffffffffffffffffffffffffffffff82169050919050565b6000613f6082613f35565b9050919050565b613f7081613f55565b8114613f7b57600080fd5b50565b600081359050613f8d81613f67565b92915050565b600060208284031215613fa957613fa8613f2b565b5b6000613fb784828501613f7e565b91505092915050565b6000819050919050565b613fd381613fc0565b8114613fde57600080fd5b50565b600081359050613ff081613fca565b92915050565b600080fd5b600080fd5b6000601f19601f8301169050919050565b7f4e487b7100000000000000000000000000000000000000000000000000000000600052604160045260246000fd5b61404982614000565b810181811067ffffffffffffffff8211171561406857614067614011565b5b80604052505050565b600061407b613f21565b90506140878282614040565b919050565b600067ffffffffffffffff8211156140a7576140a6614011565b5b6140b082614000565b9050602081019050919050565b82818337600083830152505050565b60006140df6140da8461408c565b614071565b9050828152602081018484840111156140fb576140fa613ffb565b5b6141068482856140bd565b509392505050565b600082601f83011261412357614122613ff6565b5b81356141338482602086016140cc565b91505092915050565b600080600080600060a0868803121561415857614157613f2b565b5b600061416688828901613fe1565b955050602061417788828901613f7e565b945050604086013567ffffffffffffffff81111561419857614197613f30565b5b6141a48882890161410e565b935050606086013567ffffffffffffffff8111156141c5576141c4613f30565b5b6141d18882890161410e565b925050608086013567ffffffffffffffff8111156141f2576141f1613f30565b5b6141fe8882890161410e565b9150509295509295909350565b60008060008060008060008060008060006101608c8e03121561423157614230613f2b565b5b600061423f8e828f01613f7e565b9b505060208c013567ffffffffffffffff8111156142605761425f613f30565b5b61426c8e828f0161410e565b9a505060408c013567ffffffffffffffff81111561428d5761428c613f30565b5b6142998e828f0161410e565b99505060608c013567ffffffffffffffff8111156142ba576142b9613f30565b5b6142c68e828f0161410e565b98505060808c013567ffffffffffffffff8111156142e7576142e6613f30565b5b6142f38e828f0161410e565b97505060a08c013567ffffffffffffffff81111561431457614313613f30565b5b6143208e828f0161410e565b96505060c08c013567ffffffffffffffff81111561434157614340613f30565b5b61434d8e828f0161410e565b95505060e08c013567ffffffffffffffff81111561436e5761436d613f30565b5b61437a8e828f0161410e565b9450506101008c013567ffffffffffffffff81111561439c5761439b613f30565b5b6143a88e828f0161410e565b9350506101208c013567ffffffffffffffff8111156143ca576143c9613f30565b5b6143d68e828f0161410e565b9250506101408c013567ffffffffffffffff8111156143f8576143f7613f30565b5b6144048e828f0161410e565b9150509295989b509295989b9093969950565b61442081613f55565b82525050565b600081519050919050565b600082825260208201905092915050565b60005b83811015614460578082015181840152602081019050614445565b60008484015250505050565b600061447782614426565b6144818185614431565b9350614491818560208601614442565b61449a81614000565b840191505092915050565b6000610120830160008301516144be6000860182614417565b50602083015184820360208601526144d6828261446c565b915050604083015184820360408601526144f0828261446c565b9150506060830151848203606086015261450a828261446c565b91505060808301518482036080860152614524828261446c565b91505060a083015184820360a086015261453e828261446c565b91505060c083015184820360c0860152614558828261446c565b91505060e083015184820360e0860152614572828261446c565b91505061010083015184820361010086015261458e828261446c565b9150508091505092915050565b600060208201905081810360008301526145b581846144a5565b905092915050565b600080600080600080600080610100898b0312156145de576145dd613f2b565b5b600089013567ffffffffffffffff8111156145fc576145fb613f30565b5b6146088b828c0161410e565b985050602089013567ffffffffffffffff81111561462957614628613f30565b5b6146358b828c0161410e565b975050604089013567ffffffffffffffff81111561465657614655613f30565b5b6146628b828c0161410e565b965050606089013567ffffffffffffffff81111561468357614682613f30565b5b61468f8b828c0161410e565b955050608089013567ffffffffffffffff8111156146b0576146af613f30565b5b6146bc8b828c0161410e565b94505060a089013567ffffffffffffffff8111156146dd576146dc613f30565b5b6146e98b828c0161410e565b93505060c089013567ffffffffffffffff81111561470a57614709613f30565b5b6147168b828c0161410e565b92505060e089013567ffffffffffffffff81111561473757614736613f30565b5b6147438b828c0161410e565b9150509295985092959890939650565b60006101608301600083015161476c6000860182614417565b5060208301518482036020860152614784828261446c565b9150506040830151848203604086015261479e828261446c565b915050606083015184820360608601526147b8828261446c565b915050608083015184820360808601526147d2828261446c565b91505060a083015184820360a08601526147ec828261446c565b91505060c083015184820360c0860152614806828261446c565b91505060e083015184820360e0860152614820828261446c565b91505061010083015184820361010086015261483c828261446c565b915050610120830151848203610120860152614858828261446c565b915050610140830151848203610140860152614874828261446c565b9150508091505092915050565b6000602082019050818103600083015261489b8184614753565b905092915050565b6148ac81613fc0565b82525050565b60006020820190506148c760008301846148a3565b92915050565b60008060008060008060008060006101208a8c0312156148f0576148ef613f2b565b5b60006148fe8c828d01613f7e565b99505060208a013567ffffffffffffffff81111561491f5761491e613f30565b5b61492b8c828d0161410e565b98505060408a013567ffffffffffffffff81111561494c5761494b613f30565b5b6149588c828d0161410e565b97505060608a013567ffffffffffffffff81111561497957614978613f30565b5b6149858c828d0161410e565b96505060808a013567ffffffffffffffff8111156149a6576149a5613f30565b5b6149b28c828d0161410e565b95505060a08a013567ffffffffffffffff8111156149d3576149d2613f30565b5b6149df8c828d0161410e565b94505060c08a013567ffffffffffffffff811115614a00576149ff613f30565b5b614a0c8c828d0161410e565b93505060e08a013567ffffffffffffffff811115614a2d57614a2c613f30565b5b614a398c828d0161410e565b9250506101008a013567ffffffffffffffff811115614a5b57614a5a613f30565b5b614a678c828d0161410e565b9150509295985092959850929598565b60008060408385031215614a8e57614a8d613f2b565b5b6000614a9c85828601613fe1565b9250506020614aad85828601613f7e565b9150509250929050565b614ac081613fc0565b82525050565b600060e083016000830151614ade6000860182614ab7565b506020830151614af16020860182614ab7565b506040830151614b046040860182614417565b506060830151614b176060860182614417565b5060808301518482036080860152614b2f828261446c565b91505060a083015184820360a0860152614b49828261446c565b91505060c083015184820360c0860152614b63828261446c565b9150508091505092915050565b60006020820190508181036000830152614b8a8184614ac6565b905092915050565b600081519050919050565b600082825260208201905092915050565b6000819050602082019050919050565b600060e083016000830151614bd66000860182614ab7565b506020830151614be96020860182614ab7565b506040830151614bfc6040860182614417565b506060830151614c0f6060860182614417565b5060808301518482036080860152614c27828261446c565b91505060a083015184820360a0860152614c41828261446c565b91505060c083015184820360c0860152614c5b828261446c565b9150508091505092915050565b6000614c748383614bbe565b905092915050565b6000602082019050919050565b6000614c9482614b92565b614c9e8185614b9d565b935083602082028501614cb085614bae565b8060005b85811015614cec5784840389528151614ccd8582614c68565b9450614cd883614c7c565b925060208a01995050600181019050614cb4565b50829750879550505050505092915050565b60006020820190508181036000830152614d188184614c89565b905092915050565b6000806000806000806000806000806101408b8d031215614d4457614d43613f2b565b5b60008b013567ffffffffffffffff811115614d6257614d61613f30565b5b614d6e8d828e0161410e565b9a505060208b013567ffffffffffffffff811115614d8f57614d8e613f30565b5b614d9b8d828e0161410e565b99505060408b013567ffffffffffffffff811115614dbc57614dbb613f30565b5b614dc88d828e0161410e565b98505060608b013567ffffffffffffffff811115614de957614de8613f30565b5b614df58d828e0161410e565b97505060808b013567ffffffffffffffff811115614e1657614e15613f30565b5b614e228d828e0161410e565b96505060a08b013567ffffffffffffffff811115614e4357614e42613f30565b5b614e4f8d828e0161410e565b95505060c08b013567ffffffffffffffff811115614e7057614e6f613f30565b5b614e7c8d828e0161410e565b94505060e08b013567ffffffffffffffff811115614e9d57614e9c613f30565b5b614ea98d828e0161410e565b9350506101008b013567ffffffffffffffff811115614ecb57614eca613f30565b5b614ed78d828e0161410e565b9250506101208b013567ffffffffffffffff811115614ef957614ef8613f30565b5b614f058d828e0161410e565b9150509295989b9194979a5092959850565b60008115159050919050565b614f2c81614f17565b8114614f3757600080fd5b50565b600081359050614f4981614f23565b92915050565b60008060408385031215614f6657614f65613f2b565b5b6000614f7485828601613fe1565b9250506020614f8585828601614f3a565b9150509250929050565b60008060008060008060c08789031215614fac57614fab613f2b565b5b6000614fba89828a01613f7e565b9650506020614fcb89828a01613fe1565b9550506040614fdc89828a01613fe1565b945050606087013567ffffffffffffffff811115614ffd57614ffc613f30565b5b61500989828a0161410e565b935050608087013567ffffffffffffffff81111561502a57615029613f30565b5b61503689828a0161410e565b92505060a087013567ffffffffffffffff81111561505757615056613f30565b5b61506389828a0161410e565b9150509295509295509295565b600081519050919050565b600082825260208201905092915050565b6000819050602082019050919050565b7f4e487b7100000000000000000000000000000000000000000000000000000000600052602160045260246000fd5b600381106150dc576150db61509c565b5b50565b60008190506150ed826150cb565b919050565b60006150fd826150df565b9050919050565b61510d816150f2565b82525050565b60a0820160008201516151296000850182614ab7565b50602082015161513c6020850182614417565b50604082015161514f6040850182614417565b5060608201516151626060850182614ab7565b5060808201516151756080850182615104565b50505050565b60006151878383615113565b60a08301905092915050565b6000602082019050919050565b60006151ab82615070565b6151b5818561507b565b93506151c08361508c565b8060005b838110156151f15781516151d8888261517b565b97506151e383615193565b9250506001810190506151c4565b5085935050505092915050565b6000602082019050818103600083015261521881846151a0565b905092915050565b600082825260208201905092915050565b600061523c82614426565b6152468185615220565b9350615256818560208601614442565b61525f81614000565b840191505092915050565b600060208201905081810360008301526152848184615231565b905092915050565b6000819050919050565b6152a76152a282613fc0565b61528c565b82525050565b60008160601b9050919050565b60006152c5826152ad565b9050919050565b60006152d7826152ba565b9050919050565b6152ef6152ea82613f55565b6152cc565b82525050565b60006153018285615296565b60208201915061531182846152de565b6014820191508190509392505050565b61532a81613f55565b82525050565b600060608201905061534560008301866148a3565b6153526020830185615321565b61535f6040830184615321565b949350505050565b7f4e487b7100000000000000000000000000000000000000000000000000000000600052603260045260246000fd5b60006153a282856152de565b6014820191506153b28284615296565b6020820191508190509392505050565b7f4e487b7100000000000000000000000000000000000000000000000000000000600052602260045260246000fd5b6000600282049050600182168061540957607f821691505b60208210810361541c5761541b6153c2565b5b50919050565b60008190508160005260206000209050919050565b60006020601f8301049050919050565b600082821b905092915050565b6000600883026154847fffffffffffffffffffffffffffffffffffffffffffffffffffffffffffffffff82615447565b61548e8683615447565b95508019841693508086168417925050509392505050565b6000819050919050565b60006154cb6154c66154c184613fc0565b6154a6565b613fc0565b9050919050565b6000819050919050565b6154e5836154b0565b6154f96154f1826154d2565b848454615454565b825550505050565b600090565b61550e615501565b6155198184846154dc565b505050565b5b8181101561553d57615532600082615506565b60018101905061551f565b5050565b601f8211156155825761555381615422565b61555c84615437565b8101602085101561556b578190505b61557f61557785615437565b83018261551e565b50505b505050565b600082821c905092915050565b60006155a560001984600802615587565b1980831691505092915050565b60006155be8383615594565b9150826002028217905092915050565b6155d782614426565b67ffffffffffffffff8111156155f0576155ef614011565b5b6155fa82546153f1565b615605828285615541565b600060209050601f8311600181146156385760008415615626578287015190505b61563085826155b2565b865550615698565b601f19841661564686615422565b60005b8281101561566e57848901518255600182019150602085019450602081019050615649565b8683101561568b5784890151615687601f891682615594565b8355505b6001600288020188555050505b505050505050565b7f4e487b7100000000000000000000000000000000000000000000000000000000600052601160045260246000fd5b60006156da82613fc0565b91507fffffffffffffffffffffffffffffffffffffffffffffffffffffffffffffffff820361570c5761570b6156a0565b5b600182019050919050565b600060608201905061572c6000830186615321565b818103602083015261573e8185615231565b905081810360408301526157528184615231565b9050949350505050565b600060408201905061577160008301856148a3565b61577e6020830184615321565b939250505056fea2646970667358221220a55d926aafb9f6c6c677bb6e6633e6c0e03c1bd3bee7fb5d7a40039cfd325c6364736f6c63430008120033",
  "devdoc": {
    "author": "Alberto Toscano",
    "kind": "dev",
    "methods": {},
    "title": "HealthChain",
    "version": 1
  },
  "userdoc": {
    "kind": "user",
    "methods": {},
    "notice": "HealthChain is a decentralized health records management system. It allows doctors to create and update medical records for their patients, while ensuring patient privacy and control over their data. Patients can grant access to their medical records to specific doctors by approving requests.",
    "version": 1
  },
  "storageLayout": {
    "storage": [
      {
        "astId": 106,
        "contract": "contracts/Healthchain.sol:HealthChain",
        "label": "s_patients",
        "offset": 0,
        "slot": "0",
        "type": "t_mapping(t_address,t_struct(Patient)74_storage)"
      },
      {
        "astId": 111,
        "contract": "contracts/Healthchain.sol:HealthChain",
        "label": "s_doctors",
        "offset": 0,
        "slot": "1",
        "type": "t_mapping(t_address,t_struct(Doctor)51_storage)"
      },
      {
        "astId": 117,
        "contract": "contracts/Healthchain.sol:HealthChain",
        "label": "s_medicalRecords",
        "offset": 0,
        "slot": "2",
        "type": "t_mapping(t_address,t_array(t_struct(MedicalRecord)89_storage)dyn_storage)"
      },
      {
        "astId": 123,
        "contract": "contracts/Healthchain.sol:HealthChain",
        "label": "s_pendingRequests",
        "offset": 0,
        "slot": "3",
        "type": "t_mapping(t_address,t_array(t_struct(Request)101_storage)dyn_storage)"
      },
      {
        "astId": 127,
        "contract": "contracts/Healthchain.sol:HealthChain",
        "label": "s_numMedicalRecords",
        "offset": 0,
        "slot": "4",
        "type": "t_mapping(t_address,t_uint256)"
      },
      {
        "astId": 131,
        "contract": "contracts/Healthchain.sol:HealthChain",
        "label": "s_numPendingRequests",
        "offset": 0,
        "slot": "5",
        "type": "t_mapping(t_address,t_uint256)"
      }
    ],
    "types": {
      "t_address": {
        "encoding": "inplace",
        "label": "address",
        "numberOfBytes": "20"
      },
      "t_array(t_struct(MedicalRecord)89_storage)dyn_storage": {
        "base": "t_struct(MedicalRecord)89_storage",
        "encoding": "dynamic_array",
        "label": "struct HealthChain.MedicalRecord[]",
        "numberOfBytes": "32"
      },
      "t_array(t_struct(Request)101_storage)dyn_storage": {
        "base": "t_struct(Request)101_storage",
        "encoding": "dynamic_array",
        "label": "struct HealthChain.Request[]",
        "numberOfBytes": "32"
      },
      "t_enum(RequestStatus)32": {
        "encoding": "inplace",
        "label": "enum HealthChain.RequestStatus",
        "numberOfBytes": "1"
      },
      "t_mapping(t_address,t_array(t_struct(MedicalRecord)89_storage)dyn_storage)": {
        "encoding": "mapping",
        "key": "t_address",
        "label": "mapping(address => struct HealthChain.MedicalRecord[])",
        "numberOfBytes": "32",
        "value": "t_array(t_struct(MedicalRecord)89_storage)dyn_storage"
      },
      "t_mapping(t_address,t_array(t_struct(Request)101_storage)dyn_storage)": {
        "encoding": "mapping",
        "key": "t_address",
        "label": "mapping(address => struct HealthChain.Request[])",
        "numberOfBytes": "32",
        "value": "t_array(t_struct(Request)101_storage)dyn_storage"
      },
      "t_mapping(t_address,t_struct(Doctor)51_storage)": {
        "encoding": "mapping",
        "key": "t_address",
        "label": "mapping(address => struct HealthChain.Doctor)",
        "numberOfBytes": "32",
        "value": "t_struct(Doctor)51_storage"
      },
      "t_mapping(t_address,t_struct(Patient)74_storage)": {
        "encoding": "mapping",
        "key": "t_address",
        "label": "mapping(address => struct HealthChain.Patient)",
        "numberOfBytes": "32",
        "value": "t_struct(Patient)74_storage"
      },
      "t_mapping(t_address,t_uint256)": {
        "encoding": "mapping",
        "key": "t_address",
        "label": "mapping(address => uint256)",
        "numberOfBytes": "32",
        "value": "t_uint256"
      },
      "t_string_storage": {
        "encoding": "bytes",
        "label": "string",
        "numberOfBytes": "32"
      },
      "t_struct(Doctor)51_storage": {
        "encoding": "inplace",
        "label": "struct HealthChain.Doctor",
        "members": [
          {
            "astId": 34,
            "contract": "contracts/Healthchain.sol:HealthChain",
            "label": "id",
            "offset": 0,
            "slot": "0",
            "type": "t_address"
          },
          {
            "astId": 36,
            "contract": "contracts/Healthchain.sol:HealthChain",
            "label": "name",
            "offset": 0,
            "slot": "1",
            "type": "t_string_storage"
          },
          {
            "astId": 38,
            "contract": "contracts/Healthchain.sol:HealthChain",
            "label": "surname",
            "offset": 0,
            "slot": "2",
            "type": "t_string_storage"
          },
          {
            "astId": 40,
            "contract": "contracts/Healthchain.sol:HealthChain",
            "label": "dateOfBirth",
            "offset": 0,
            "slot": "3",
            "type": "t_string_storage"
          },
          {
            "astId": 42,
            "contract": "contracts/Healthchain.sol:HealthChain",
            "label": "email",
            "offset": 0,
            "slot": "4",
            "type": "t_string_storage"
          },
          {
            "astId": 44,
            "contract": "contracts/Healthchain.sol:HealthChain",
            "label": "telephone",
            "offset": 0,
            "slot": "5",
            "type": "t_string_storage"
          },
          {
            "astId": 46,
            "contract": "contracts/Healthchain.sol:HealthChain",
            "label": "zipCode",
            "offset": 0,
            "slot": "6",
            "type": "t_string_storage"
          },
          {
            "astId": 48,
            "contract": "contracts/Healthchain.sol:HealthChain",
            "label": "city",
            "offset": 0,
            "slot": "7",
            "type": "t_string_storage"
          },
          {
            "astId": 50,
            "contract": "contracts/Healthchain.sol:HealthChain",
            "label": "country",
            "offset": 0,
            "slot": "8",
            "type": "t_string_storage"
          }
        ],
        "numberOfBytes": "288"
      },
      "t_struct(MedicalRecord)89_storage": {
        "encoding": "inplace",
        "label": "struct HealthChain.MedicalRecord",
        "members": [
          {
            "astId": 76,
            "contract": "contracts/Healthchain.sol:HealthChain",
            "label": "id",
            "offset": 0,
            "slot": "0",
            "type": "t_uint256"
          },
          {
            "astId": 78,
            "contract": "contracts/Healthchain.sol:HealthChain",
            "label": "timeAdded",
            "offset": 0,
            "slot": "1",
            "type": "t_uint256"
          },
          {
            "astId": 80,
            "contract": "contracts/Healthchain.sol:HealthChain",
            "label": "patientId",
            "offset": 0,
            "slot": "2",
            "type": "t_address"
          },
          {
            "astId": 82,
            "contract": "contracts/Healthchain.sol:HealthChain",
            "label": "doctorId",
            "offset": 0,
            "slot": "3",
            "type": "t_address"
          },
          {
            "astId": 84,
            "contract": "contracts/Healthchain.sol:HealthChain",
            "label": "fileName",
            "offset": 0,
            "slot": "4",
            "type": "t_string_storage"
          },
          {
            "astId": 86,
            "contract": "contracts/Healthchain.sol:HealthChain",
            "label": "hospital",
            "offset": 0,
            "slot": "5",
            "type": "t_string_storage"
          },
          {
            "astId": 88,
            "contract": "contracts/Healthchain.sol:HealthChain",
            "label": "details",
            "offset": 0,
            "slot": "6",
            "type": "t_string_storage"
          }
        ],
        "numberOfBytes": "224"
      },
      "t_struct(Patient)74_storage": {
        "encoding": "inplace",
        "label": "struct HealthChain.Patient",
        "members": [
          {
            "astId": 53,
            "contract": "contracts/Healthchain.sol:HealthChain",
            "label": "id",
            "offset": 0,
            "slot": "0",
            "type": "t_address"
          },
          {
            "astId": 55,
            "contract": "contracts/Healthchain.sol:HealthChain",
            "label": "name",
            "offset": 0,
            "slot": "1",
            "type": "t_string_storage"
          },
          {
            "astId": 57,
            "contract": "contracts/Healthchain.sol:HealthChain",
            "label": "surname",
            "offset": 0,
            "slot": "2",
            "type": "t_string_storage"
          },
          {
            "astId": 59,
            "contract": "contracts/Healthchain.sol:HealthChain",
            "label": "dateOfBirth",
            "offset": 0,
            "slot": "3",
            "type": "t_string_storage"
          },
          {
            "astId": 61,
            "contract": "contracts/Healthchain.sol:HealthChain",
            "label": "email",
            "offset": 0,
            "slot": "4",
            "type": "t_string_storage"
          },
          {
            "astId": 63,
            "contract": "contracts/Healthchain.sol:HealthChain",
            "label": "telephone",
            "offset": 0,
            "slot": "5",
            "type": "t_string_storage"
          },
          {
            "astId": 65,
            "contract": "contracts/Healthchain.sol:HealthChain",
            "label": "telephone2",
            "offset": 0,
            "slot": "6",
            "type": "t_string_storage"
          },
          {
            "astId": 67,
            "contract": "contracts/Healthchain.sol:HealthChain",
            "label": "doctorTelephone",
            "offset": 0,
            "slot": "7",
            "type": "t_string_storage"
          },
          {
            "astId": 69,
            "contract": "contracts/Healthchain.sol:HealthChain",
            "label": "zipCode",
            "offset": 0,
            "slot": "8",
            "type": "t_string_storage"
          },
          {
            "astId": 71,
            "contract": "contracts/Healthchain.sol:HealthChain",
            "label": "city",
            "offset": 0,
            "slot": "9",
            "type": "t_string_storage"
          },
          {
            "astId": 73,
            "contract": "contracts/Healthchain.sol:HealthChain",
            "label": "country",
            "offset": 0,
            "slot": "10",
            "type": "t_string_storage"
          }
        ],
        "numberOfBytes": "352"
      },
      "t_struct(Request)101_storage": {
        "encoding": "inplace",
        "label": "struct HealthChain.Request",
        "members": [
          {
            "astId": 91,
            "contract": "contracts/Healthchain.sol:HealthChain",
            "label": "requestId",
            "offset": 0,
            "slot": "0",
            "type": "t_uint256"
          },
          {
            "astId": 93,
            "contract": "contracts/Healthchain.sol:HealthChain",
            "label": "patientAddress",
            "offset": 0,
            "slot": "1",
            "type": "t_address"
          },
          {
            "astId": 95,
            "contract": "contracts/Healthchain.sol:HealthChain",
            "label": "doctorAddress",
            "offset": 0,
            "slot": "2",
            "type": "t_address"
          },
          {
            "astId": 97,
            "contract": "contracts/Healthchain.sol:HealthChain",
            "label": "timestamp",
            "offset": 0,
            "slot": "3",
            "type": "t_uint256"
          },
          {
            "astId": 100,
            "contract": "contracts/Healthchain.sol:HealthChain",
            "label": "status",
            "offset": 0,
            "slot": "4",
            "type": "t_enum(RequestStatus)32"
          }
        ],
        "numberOfBytes": "160"
      },
      "t_uint256": {
        "encoding": "inplace",
        "label": "uint256",
        "numberOfBytes": "32"
      }
    }
  }
}