{
  "address": "0x5b49360C87c9bc58b8A6B7FF3C26b8C3B98a2db5",
  "abi": [
    {
      "inputs": [],
      "name": "HealthChain__MedicalRecordNotFound",
      "type": "error"
    },
    {
      "inputs": [],
      "name": "HealthChain__cantAccessData",
      "type": "error"
    },
    {
      "inputs": [],
      "name": "HealthChain__notYourData",
      "type": "error"
    },
    {
      "inputs": [],
      "name": "HealthChain__requestNotApprovedYet",
      "type": "error"
    },
    {
      "inputs": [],
      "name": "HealthChain__requestNotFound",
      "type": "error"
    },
    {
      "inputs": [],
      "name": "HealthChain__youAlreadyHaveAnAccount",
      "type": "error"
    },
    {
      "anonymous": false,
      "inputs": [
        {
          "indexed": false,
          "internalType": "address",
          "name": "id",
          "type": "address"
        },
        {
          "indexed": false,
          "internalType": "string",
          "name": "name",
          "type": "string"
        },
        {
          "indexed": false,
          "internalType": "string",
          "name": "surname",
          "type": "string"
        }
      ],
      "name": "doctorCreated",
      "type": "event"
    },
    {
      "anonymous": false,
      "inputs": [
        {
          "indexed": false,
          "internalType": "address",
          "name": "id",
          "type": "address"
        },
        {
          "indexed": false,
          "internalType": "string",
          "name": "name",
          "type": "string"
        },
        {
          "indexed": false,
          "internalType": "string",
          "name": "surname",
          "type": "string"
        }
      ],
      "name": "doctorUpdated",
      "type": "event"
    },
    {
      "anonymous": false,
      "inputs": [
        {
          "indexed": false,
          "internalType": "uint256",
          "name": "medicalRecordId",
          "type": "uint256"
        },
        {
          "indexed": false,
          "internalType": "address",
          "name": "patientAddress",
          "type": "address"
        },
        {
          "indexed": false,
          "internalType": "address",
          "name": "doctorAddress",
          "type": "address"
        }
      ],
      "name": "medicalRecordCreated",
      "type": "event"
    },
    {
      "anonymous": false,
      "inputs": [
        {
          "indexed": false,
          "internalType": "uint256",
          "name": "medicalRecordId",
          "type": "uint256"
        },
        {
          "indexed": false,
          "internalType": "address",
          "name": "patientAddress",
          "type": "address"
        },
        {
          "indexed": false,
          "internalType": "address",
          "name": "doctorAddress",
          "type": "address"
        }
      ],
      "name": "medicalRecordUpdated",
      "type": "event"
    },
    {
      "anonymous": false,
      "inputs": [
        {
          "indexed": false,
          "internalType": "address",
          "name": "id",
          "type": "address"
        },
        {
          "indexed": false,
          "internalType": "string",
          "name": "name",
          "type": "string"
        },
        {
          "indexed": false,
          "internalType": "string",
          "name": "surname",
          "type": "string"
        }
      ],
      "name": "patientCreated",
      "type": "event"
    },
    {
      "anonymous": false,
      "inputs": [
        {
          "indexed": false,
          "internalType": "address",
          "name": "id",
          "type": "address"
        },
        {
          "indexed": false,
          "internalType": "string",
          "name": "name",
          "type": "string"
        },
        {
          "indexed": false,
          "internalType": "string",
          "name": "surname",
          "type": "string"
        }
      ],
      "name": "patientUpdated",
      "type": "event"
    },
    {
      "anonymous": false,
      "inputs": [
        {
          "indexed": false,
          "internalType": "uint256",
          "name": "requestId",
          "type": "uint256"
        },
        {
          "indexed": false,
          "internalType": "address",
          "name": "patientAddress",
          "type": "address"
        }
      ],
      "name": "requestApproved",
      "type": "event"
    },
    {
      "anonymous": false,
      "inputs": [
        {
          "indexed": false,
          "internalType": "uint256",
          "name": "requestId",
          "type": "uint256"
        },
        {
          "indexed": false,
          "internalType": "address",
          "name": "patientAddress",
          "type": "address"
        },
        {
          "indexed": false,
          "internalType": "address",
          "name": "doctorAddress",
          "type": "address"
        }
      ],
      "name": "requestCreated",
      "type": "event"
    },
    {
      "anonymous": false,
      "inputs": [
        {
          "indexed": false,
          "internalType": "uint256",
          "name": "requestId",
          "type": "uint256"
        },
        {
          "indexed": false,
          "internalType": "address",
          "name": "patientAddress",
          "type": "address"
        }
      ],
      "name": "requestRejected",
      "type": "event"
    },
    {
      "inputs": [
        {
          "internalType": "string",
          "name": "name",
          "type": "string"
        },
        {
          "internalType": "string",
          "name": "surname",
          "type": "string"
        },
        {
          "internalType": "string",
          "name": "dateOfBirth",
          "type": "string"
        },
        {
          "internalType": "string",
          "name": "email",
          "type": "string"
        },
        {
          "internalType": "string",
          "name": "telephone",
          "type": "string"
        },
        {
          "internalType": "string",
          "name": "zipCode",
          "type": "string"
        },
        {
          "internalType": "string",
          "name": "city",
          "type": "string"
        },
        {
          "internalType": "string",
          "name": "country",
          "type": "string"
        }
      ],
      "name": "createDoctor",
      "outputs": [],
      "stateMutability": "nonpayable",
      "type": "function"
    },
    {
      "inputs": [
        {
          "internalType": "uint256",
          "name": "requestId",
          "type": "uint256"
        },
        {
          "internalType": "address",
          "name": "patientId",
          "type": "address"
        },
        {
          "internalType": "string",
          "name": "fileName",
          "type": "string"
        },
        {
          "internalType": "string",
          "name": "hospital",
          "type": "string"
        },
        {
          "internalType": "string",
          "name": "details",
          "type": "string"
        }
      ],
      "name": "createMedicalRecord",
      "outputs": [],
      "stateMutability": "nonpayable",
      "type": "function"
    },
    {
      "inputs": [
        {
          "internalType": "string",
          "name": "name",
          "type": "string"
        },
        {
          "internalType": "string",
          "name": "surname",
          "type": "string"
        },
        {
          "internalType": "string",
          "name": "dateOfBirth",
          "type": "string"
        },
        {
          "internalType": "string",
          "name": "email",
          "type": "string"
        },
        {
          "internalType": "string",
          "name": "telephone",
          "type": "string"
        },
        {
          "internalType": "string",
          "name": "telephone2",
          "type": "string"
        },
        {
          "internalType": "string",
          "name": "doctorTelephone",
          "type": "string"
        },
        {
          "internalType": "string",
          "name": "zipCode",
          "type": "string"
        },
        {
          "internalType": "string",
          "name": "city",
          "type": "string"
        },
        {
          "internalType": "string",
          "name": "country",
          "type": "string"
        }
      ],
      "name": "createPatient",
      "outputs": [],
      "stateMutability": "nonpayable",
      "type": "function"
    },
    {
      "inputs": [
        {
          "internalType": "address",
          "name": "patientAddress",
          "type": "address"
        }
      ],
      "name": "createRequest",
      "outputs": [],
      "stateMutability": "nonpayable",
      "type": "function"
    },
    {
      "inputs": [
        {
          "internalType": "address",
          "name": "doctorId",
          "type": "address"
        }
      ],
      "name": "getDoctorData",
      "outputs": [
        {
          "components": [
            {
              "internalType": "address",
              "name": "id",
              "type": "address"
            },
            {
              "internalType": "string",
              "name": "name",
              "type": "string"
            },
            {
              "internalType": "string",
              "name": "surname",
              "type": "string"
            },
            {
              "internalType": "string",
              "name": "dateOfBirth",
              "type": "string"
            },
            {
              "internalType": "string",
              "name": "email",
              "type": "string"
            },
            {
              "internalType": "string",
              "name": "telephone",
              "type": "string"
            },
            {
              "internalType": "string",
              "name": "zipCode",
              "type": "string"
            },
            {
              "internalType": "string",
              "name": "city",
              "type": "string"
            },
            {
              "internalType": "string",
              "name": "country",
              "type": "string"
            }
          ],
          "internalType": "struct HealthChain.Doctor",
          "name": "",
          "type": "tuple"
        }
      ],
      "stateMutability": "view",
      "type": "function"
    },
    {
      "inputs": [
        {
          "internalType": "uint256",
          "name": "medicalRecordId",
          "type": "uint256"
        },
        {
          "internalType": "address",
          "name": "patientId",
          "type": "address"
        }
      ],
      "name": "getMedicalRecordById",
      "outputs": [
        {
          "components": [
            {
              "internalType": "uint256",
              "name": "id",
              "type": "uint256"
            },
            {
              "internalType": "uint256",
              "name": "timeAdded",
              "type": "uint256"
            },
            {
              "internalType": "address",
              "name": "patientId",
              "type": "address"
            },
            {
              "internalType": "address",
              "name": "doctorId",
              "type": "address"
            },
            {
              "internalType": "string",
              "name": "fileName",
              "type": "string"
            },
            {
              "internalType": "string",
              "name": "hospital",
              "type": "string"
            },
            {
              "internalType": "string",
              "name": "details",
              "type": "string"
            }
          ],
          "internalType": "struct HealthChain.MedicalRecord",
          "name": "",
          "type": "tuple"
        }
      ],
      "stateMutability": "view",
      "type": "function"
    },
    {
      "inputs": [
        {
          "internalType": "address",
          "name": "patientId",
          "type": "address"
        }
      ],
      "name": "getMedicalRecords",
      "outputs": [
        {
          "components": [
            {
              "internalType": "uint256",
              "name": "id",
              "type": "uint256"
            },
            {
              "internalType": "uint256",
              "name": "timeAdded",
              "type": "uint256"
            },
            {
              "internalType": "address",
              "name": "patientId",
              "type": "address"
            },
            {
              "internalType": "address",
              "name": "doctorId",
              "type": "address"
            },
            {
              "internalType": "string",
              "name": "fileName",
              "type": "string"
            },
            {
              "internalType": "string",
              "name": "hospital",
              "type": "string"
            },
            {
              "internalType": "string",
              "name": "details",
              "type": "string"
            }
          ],
          "internalType": "struct HealthChain.MedicalRecord[]",
          "name": "",
          "type": "tuple[]"
        }
      ],
      "stateMutability": "view",
      "type": "function"
    },
    {
      "inputs": [
        {
          "internalType": "address",
          "name": "patientId",
          "type": "address"
        }
      ],
      "name": "getPatientData",
      "outputs": [
        {
          "components": [
            {
              "internalType": "address",
              "name": "id",
              "type": "address"
            },
            {
              "internalType": "string",
              "name": "name",
              "type": "string"
            },
            {
              "internalType": "string",
              "name": "surname",
              "type": "string"
            },
            {
              "internalType": "string",
              "name": "dateOfBirth",
              "type": "string"
            },
            {
              "internalType": "string",
              "name": "email",
              "type": "string"
            },
            {
              "internalType": "string",
              "name": "telephone",
              "type": "string"
            },
            {
              "internalType": "string",
              "name": "telephone2",
              "type": "string"
            },
            {
              "internalType": "string",
              "name": "doctorTelephone",
              "type": "string"
            },
            {
              "internalType": "string",
              "name": "zipCode",
              "type": "string"
            },
            {
              "internalType": "string",
              "name": "city",
              "type": "string"
            },
            {
              "internalType": "string",
              "name": "country",
              "type": "string"
            }
          ],
          "internalType": "struct HealthChain.Patient",
          "name": "",
          "type": "tuple"
        }
      ],
      "stateMutability": "view",
      "type": "function"
    },
    {
      "inputs": [
        {
          "internalType": "address",
          "name": "patientId",
          "type": "address"
        }
      ],
      "name": "getPatientsDoctorNumber",
      "outputs": [
        {
          "internalType": "string",
          "name": "",
          "type": "string"
        }
      ],
      "stateMutability": "view",
      "type": "function"
    },
    {
      "inputs": [
        {
          "internalType": "address",
          "name": "patientId",
          "type": "address"
        }
      ],
      "name": "getRequests",
      "outputs": [
        {
          "components": [
            {
              "internalType": "uint256",
              "name": "requestId",
              "type": "uint256"
            },
            {
              "internalType": "address",
              "name": "patientAddress",
              "type": "address"
            },
            {
              "internalType": "address",
              "name": "doctorAddress",
              "type": "address"
            },
            {
              "internalType": "uint256",
              "name": "timestamp",
              "type": "uint256"
            },
            {
              "internalType": "enum HealthChain.RequestStatus",
              "name": "status",
              "type": "uint8"
            }
          ],
          "internalType": "struct HealthChain.Request[]",
          "name": "",
          "type": "tuple[]"
        }
      ],
      "stateMutability": "view",
      "type": "function"
    },
    {
      "inputs": [
        {
          "internalType": "uint256",
          "name": "requestId",
          "type": "uint256"
        },
        {
          "internalType": "bool",
          "name": "approved",
          "type": "bool"
        }
      ],
      "name": "respondToRequest",
      "outputs": [],
      "stateMutability": "nonpayable",
      "type": "function"
    },
    {
      "inputs": [
        {
          "internalType": "address",
          "name": "doctorId",
          "type": "address"
        },
        {
          "internalType": "string",
          "name": "name",
          "type": "string"
        },
        {
          "internalType": "string",
          "name": "surname",
          "type": "string"
        },
        {
          "internalType": "string",
          "name": "dateOfBirth",
          "type": "string"
        },
        {
          "internalType": "string",
          "name": "email",
          "type": "string"
        },
        {
          "internalType": "string",
          "name": "telephone",
          "type": "string"
        },
        {
          "internalType": "string",
          "name": "zipCode",
          "type": "string"
        },
        {
          "internalType": "string",
          "name": "city",
          "type": "string"
        },
        {
          "internalType": "string",
          "name": "country",
          "type": "string"
        }
      ],
      "name": "updateDoctor",
      "outputs": [],
      "stateMutability": "nonpayable",
      "type": "function"
    },
    {
      "inputs": [
        {
          "internalType": "address",
          "name": "patientId",
          "type": "address"
        },
        {
          "internalType": "uint256",
          "name": "medicalRecordId",
          "type": "uint256"
        },
        {
          "internalType": "uint256",
          "name": "requestId",
          "type": "uint256"
        },
        {
          "internalType": "string",
          "name": "fileName",
          "type": "string"
        },
        {
          "internalType": "string",
          "name": "hospital",
          "type": "string"
        },
        {
          "internalType": "string",
          "name": "details",
          "type": "string"
        }
      ],
      "name": "updateMedicalRecord",
      "outputs": [],
      "stateMutability": "nonpayable",
      "type": "function"
    },
    {
      "inputs": [
        {
          "internalType": "address",
          "name": "patientId",
          "type": "address"
        },
        {
          "internalType": "string",
          "name": "name",
          "type": "string"
        },
        {
          "internalType": "string",
          "name": "surname",
          "type": "string"
        },
        {
          "internalType": "string",
          "name": "dateOfBirth",
          "type": "string"
        },
        {
          "internalType": "string",
          "name": "email",
          "type": "string"
        },
        {
          "internalType": "string",
          "name": "telephone",
          "type": "string"
        },
        {
          "internalType": "string",
          "name": "telephone2",
          "type": "string"
        },
        {
          "internalType": "string",
          "name": "doctorTelephone",
          "type": "string"
        },
        {
          "internalType": "string",
          "name": "zipCode",
          "type": "string"
        },
        {
          "internalType": "string",
          "name": "city",
          "type": "string"
        },
        {
          "internalType": "string",
          "name": "country",
          "type": "string"
        }
      ],
      "name": "updatePatient",
      "outputs": [],
      "stateMutability": "nonpayable",
      "type": "function"
    }
  ],
  "transactionHash": "0xcada0687917805ac54dff15de21436ecd7277a48a0c890407179792099936814",
  "args": [],
  "numDeployments": 1,
  "solcInputHash": "b51aac929cda244275e0e1fd5c703d62",
  "bytecode": "0x608060405234801561001057600080fd5b50615134806100206000396000f3fe608060405234801561001057600080fd5b50600436106100ea5760003560e01c80639e2e516a1161008c578063b4e1256311610066578063b4e125631461026b578063ba2d3f3814610287578063c67feeac146102a3578063f05f672f146102bf576100ea565b80639e2e516a146101ef578063a42a0de21461020b578063afd8297c1461023b576100ea565b80632e8ff13c116100c85780632e8ff13c1461014357806340af39a81461017357806348e818521461018f578063804e44f3146101bf576100ea565b806314ee93a2146100ef5780631da0ec511461010b5780632997addc14610127575b600080fd5b61010960048036038101906101049190613953565b6102ef565b005b61012560048036038101906101209190613afc565b610635565b005b610141600480360381019061013c9190613bcb565b610b88565b005b61015d60048036038101906101589190613953565b610deb565b60405161016a9190613f5b565b60405180910390f35b61018d60048036038101906101889190613f7d565b6113cd565b005b6101a960048036038101906101a49190613953565b611702565b6040516101b69190614241565b60405180910390f35b6101d960048036038101906101d49190613953565b611e70565b6040516101e69190614400565b60405180910390f35b61020960048036038101906102049190614422565b612073565b005b610225600480360381019061022091906145cc565b61234c565b60405161023291906146b6565b60405180910390f35b61025560048036038101906102509190613953565b612769565b6040516102629190614844565b60405180910390f35b61028560048036038101906102809190614866565b612ae7565b005b6102a1600480360381019061029c9190614a95565b612e57565b005b6102bd60048036038101906102b89190614ad5565b6131c4565b005b6102d960048036038101906102d49190613953565b613632565b6040516102e69190614c00565b60405180910390f35b3373ffffffffffffffffffffffffffffffffffffffff16600160003373ffffffffffffffffffffffffffffffffffffffff1673ffffffffffffffffffffffffffffffffffffffff16815260200190815260200160002060000160009054906101000a900473ffffffffffffffffffffffffffffffffffffffff1673ffffffffffffffffffffffffffffffffffffffff161461038957600080fd5b808073ffffffffffffffffffffffffffffffffffffffff166000808373ffffffffffffffffffffffffffffffffffffffff1673ffffffffffffffffffffffffffffffffffffffff16815260200190815260200160002060000160009054906101000a900473ffffffffffffffffffffffffffffffffffffffff1673ffffffffffffffffffffffffffffffffffffffff161461042357600080fd5b60004233604051602001610438929190614c8b565b6040516020818303038152906040528051906020012060001c9050600360008473ffffffffffffffffffffffffffffffffffffffff1673ffffffffffffffffffffffffffffffffffffffff1681526020019081526020016000206040518060a001604052808381526020018573ffffffffffffffffffffffffffffffffffffffff1681526020013373ffffffffffffffffffffffffffffffffffffffff168152602001428152602001600060028111156104f5576104f461429e565b5b81525090806001815401808255809150506001900390600052602060002090600502016000909190919091506000820151816000015560208201518160010160006101000a81548173ffffffffffffffffffffffffffffffffffffffff021916908373ffffffffffffffffffffffffffffffffffffffff16021790555060408201518160020160006101000a81548173ffffffffffffffffffffffffffffffffffffffff021916908373ffffffffffffffffffffffffffffffffffffffff1602179055506060820151816003015560808201518160040160006101000a81548160ff021916908360028111156105ee576105ed61429e565b5b021790555050507fdc9c1562357b214dca4098ed4b4971f2c4f1250d8829987448c12abc7b9f001681843360405161062893929190614cd5565b60405180910390a1505050565b3373ffffffffffffffffffffffffffffffffffffffff16600160003373ffffffffffffffffffffffffffffffffffffffff1673ffffffffffffffffffffffffffffffffffffffff16815260200190815260200160002060000160009054906101000a900473ffffffffffffffffffffffffffffffffffffffff1673ffffffffffffffffffffffffffffffffffffffff16146106cf57600080fd5b838073ffffffffffffffffffffffffffffffffffffffff166000808373ffffffffffffffffffffffffffffffffffffffff1673ffffffffffffffffffffffffffffffffffffffff16815260200190815260200160002060000160009054906101000a900473ffffffffffffffffffffffffffffffffffffffff1673ffffffffffffffffffffffffffffffffffffffff161461076957600080fd5b6000600360008773ffffffffffffffffffffffffffffffffffffffff1673ffffffffffffffffffffffffffffffffffffffff16815260200190815260200160002090506000805b8280549050811015610b4657888382815481106107d0576107cf614d0c565b5b90600052602060002090600502016000015414801561085e57503373ffffffffffffffffffffffffffffffffffffffff1683828154811061081457610813614d0c565b5b906000526020600020906005020160020160009054906101000a900473ffffffffffffffffffffffffffffffffffffffff1673ffffffffffffffffffffffffffffffffffffffff16145b80156108bf5750600160028111156108795761087861429e565b5b83828154811061088c5761088b614d0c565b5b906000526020600020906005020160040160009054906101000a900460ff1660028111156108bd576108bc61429e565b5b145b15610b33576001915060008382815481106108dd576108dc614d0c565b5b906000526020600020906005020160040160006101000a81548160ff021916908360028111156109105761090f61429e565b5b02179055506000423360405160200161092a929190614c8b565b6040516020818303038152906040528051906020012060001c9050600260008a73ffffffffffffffffffffffffffffffffffffffff1673ffffffffffffffffffffffffffffffffffffffff1681526020019081526020016000206040518060e001604052808381526020014281526020018b73ffffffffffffffffffffffffffffffffffffffff1681526020013373ffffffffffffffffffffffffffffffffffffffff1681526020018a8152602001898152602001888152509080600181540180825580915050600190039060005260206000209060070201600090919091909150600082015181600001556020820151816001015560408201518160020160006101000a81548173ffffffffffffffffffffffffffffffffffffffff021916908373ffffffffffffffffffffffffffffffffffffffff16021790555060608201518160030160006101000a81548173ffffffffffffffffffffffffffffffffffffffff021916908373ffffffffffffffffffffffffffffffffffffffff1602179055506080820151816004019081610ac39190614f47565b5060a0820151816005019081610ad99190614f47565b5060c0820151816006019081610aef9190614f47565b5050507f376ba5f7b0478da4e779373c3279fbc87e2b4298e93d4018376ded0bdc7471ee818a33604051610b2593929190614cd5565b60405180910390a150610b46565b8080610b3e90615048565b9150506107b0565b5080610b7e576040517fae97f79000000000000000000000000000000000000000000000000000000000815260040160405180910390fd5b5050505050505050565b8a8073ffffffffffffffffffffffffffffffffffffffff166000808373ffffffffffffffffffffffffffffffffffffffff1673ffffffffffffffffffffffffffffffffffffffff16815260200190815260200160002060000160009054906101000a900473ffffffffffffffffffffffffffffffffffffffff1673ffffffffffffffffffffffffffffffffffffffff1614610c2257600080fd5b60008060003373ffffffffffffffffffffffffffffffffffffffff1673ffffffffffffffffffffffffffffffffffffffff16815260200190815260200160002090508c73ffffffffffffffffffffffffffffffffffffffff168160000160009054906101000a900473ffffffffffffffffffffffffffffffffffffffff1673ffffffffffffffffffffffffffffffffffffffff1614610ced576040517f57c0ff9e00000000000000000000000000000000000000000000000000000000815260040160405180910390fd5b8b816001019081610cfe9190614f47565b508a816002019081610d109190614f47565b5089816003019081610d229190614f47565b5088816004019081610d349190614f47565b5087816005019081610d469190614f47565b5086816006019081610d589190614f47565b5085816007019081610d6a9190614f47565b5084816008019081610d7c9190614f47565b5083816009019081610d8e9190614f47565b508281600a019081610da09190614f47565b507fb9155cf7f016b79957e9d131dc5d56a394abf9933886292c9e760fe98e4c55d48d8d8d604051610dd493929190615090565b60405180910390a150505050505050505050505050565b610df36137a6565b818073ffffffffffffffffffffffffffffffffffffffff16600160008373ffffffffffffffffffffffffffffffffffffffff1673ffffffffffffffffffffffffffffffffffffffff16815260200190815260200160002060000160009054906101000a900473ffffffffffffffffffffffffffffffffffffffff1673ffffffffffffffffffffffffffffffffffffffff1614610e8e57600080fd5b6000600160008573ffffffffffffffffffffffffffffffffffffffff1673ffffffffffffffffffffffffffffffffffffffff168152602001908152602001600020604051806101200160405290816000820160009054906101000a900473ffffffffffffffffffffffffffffffffffffffff1673ffffffffffffffffffffffffffffffffffffffff1673ffffffffffffffffffffffffffffffffffffffff168152602001600182018054610f4190614d6a565b80601f0160208091040260200160405190810160405280929190818152602001828054610f6d90614d6a565b8015610fba5780601f10610f8f57610100808354040283529160200191610fba565b820191906000526020600020905b815481529060010190602001808311610f9d57829003601f168201915b50505050508152602001600282018054610fd390614d6a565b80601f0160208091040260200160405190810160405280929190818152602001828054610fff90614d6a565b801561104c5780601f106110215761010080835404028352916020019161104c565b820191906000526020600020905b81548152906001019060200180831161102f57829003601f168201915b5050505050815260200160038201805461106590614d6a565b80601f016020809104026020016040519081016040528092919081815260200182805461109190614d6a565b80156110de5780601f106110b3576101008083540402835291602001916110de565b820191906000526020600020905b8154815290600101906020018083116110c157829003601f168201915b505050505081526020016004820180546110f790614d6a565b80601f016020809104026020016040519081016040528092919081815260200182805461112390614d6a565b80156111705780601f1061114557610100808354040283529160200191611170565b820191906000526020600020905b81548152906001019060200180831161115357829003601f168201915b5050505050815260200160058201805461118990614d6a565b80601f01602080910402602001604051908101604052809291908181526020018280546111b590614d6a565b80156112025780601f106111d757610100808354040283529160200191611202565b820191906000526020600020905b8154815290600101906020018083116111e557829003601f168201915b5050505050815260200160068201805461121b90614d6a565b80601f016020809104026020016040519081016040528092919081815260200182805461124790614d6a565b80156112945780601f1061126957610100808354040283529160200191611294565b820191906000526020600020905b81548152906001019060200180831161127757829003601f168201915b505050505081526020016007820180546112ad90614d6a565b80601f01602080910402602001604051908101604052809291908181526020018280546112d990614d6a565b80156113265780601f106112fb57610100808354040283529160200191611326565b820191906000526020600020905b81548152906001019060200180831161130957829003601f168201915b5050505050815260200160088201805461133f90614d6a565b80601f016020809104026020016040519081016040528092919081815260200182805461136b90614d6a565b80156113b85780601f1061138d576101008083540402835291602001916113b8565b820191906000526020600020905b81548152906001019060200180831161139b57829003601f168201915b50505050508152505090508092505050919050565b3373ffffffffffffffffffffffffffffffffffffffff16600160003373ffffffffffffffffffffffffffffffffffffffff1673ffffffffffffffffffffffffffffffffffffffff16815260200190815260200160002060000160009054906101000a900473ffffffffffffffffffffffffffffffffffffffff1673ffffffffffffffffffffffffffffffffffffffff161480156114f657503373ffffffffffffffffffffffffffffffffffffffff166000803373ffffffffffffffffffffffffffffffffffffffff1673ffffffffffffffffffffffffffffffffffffffff16815260200190815260200160002060000160009054906101000a900473ffffffffffffffffffffffffffffffffffffffff1673ffffffffffffffffffffffffffffffffffffffff16145b1561152d576040517f06d6763e00000000000000000000000000000000000000000000000000000000815260040160405180910390fd5b6040518061012001604052803373ffffffffffffffffffffffffffffffffffffffff16815260200189815260200188815260200187815260200186815260200185815260200184815260200183815260200182815250600160003373ffffffffffffffffffffffffffffffffffffffff1673ffffffffffffffffffffffffffffffffffffffff16815260200190815260200160002060008201518160000160006101000a81548173ffffffffffffffffffffffffffffffffffffffff021916908373ffffffffffffffffffffffffffffffffffffffff160217905550602082015181600101908161161e9190614f47565b5060408201518160020190816116349190614f47565b50606082015181600301908161164a9190614f47565b5060808201518160040190816116609190614f47565b5060a08201518160050190816116769190614f47565b5060c082015181600601908161168c9190614f47565b5060e08201518160070190816116a29190614f47565b506101008201518160080190816116b99190614f47565b509050507f4c228560b35aca1b4219ad14c68cd752e8944c36ee85f6c9b024da620b0e89403389896040516116f093929190615090565b60405180910390a15050505050505050565b61170a613808565b818073ffffffffffffffffffffffffffffffffffffffff166000808373ffffffffffffffffffffffffffffffffffffffff1673ffffffffffffffffffffffffffffffffffffffff16815260200190815260200160002060000160009054906101000a900473ffffffffffffffffffffffffffffffffffffffff1673ffffffffffffffffffffffffffffffffffffffff16146117a457600080fd5b8273ffffffffffffffffffffffffffffffffffffffff163373ffffffffffffffffffffffffffffffffffffffff1603611e385760008060008573ffffffffffffffffffffffffffffffffffffffff1673ffffffffffffffffffffffffffffffffffffffff168152602001908152602001600020604051806101600160405290816000820160009054906101000a900473ffffffffffffffffffffffffffffffffffffffff1673ffffffffffffffffffffffffffffffffffffffff1673ffffffffffffffffffffffffffffffffffffffff16815260200160018201805461188990614d6a565b80601f01602080910402602001604051908101604052809291908181526020018280546118b590614d6a565b80156119025780601f106118d757610100808354040283529160200191611902565b820191906000526020600020905b8154815290600101906020018083116118e557829003601f168201915b5050505050815260200160028201805461191b90614d6a565b80601f016020809104026020016040519081016040528092919081815260200182805461194790614d6a565b80156119945780601f1061196957610100808354040283529160200191611994565b820191906000526020600020905b81548152906001019060200180831161197757829003601f168201915b505050505081526020016003820180546119ad90614d6a565b80601f01602080910402602001604051908101604052809291908181526020018280546119d990614d6a565b8015611a265780601f106119fb57610100808354040283529160200191611a26565b820191906000526020600020905b815481529060010190602001808311611a0957829003601f168201915b50505050508152602001600482018054611a3f90614d6a565b80601f0160208091040260200160405190810160405280929190818152602001828054611a6b90614d6a565b8015611ab85780601f10611a8d57610100808354040283529160200191611ab8565b820191906000526020600020905b815481529060010190602001808311611a9b57829003601f168201915b50505050508152602001600582018054611ad190614d6a565b80601f0160208091040260200160405190810160405280929190818152602001828054611afd90614d6a565b8015611b4a5780601f10611b1f57610100808354040283529160200191611b4a565b820191906000526020600020905b815481529060010190602001808311611b2d57829003601f168201915b50505050508152602001600682018054611b6390614d6a565b80601f0160208091040260200160405190810160405280929190818152602001828054611b8f90614d6a565b8015611bdc5780601f10611bb157610100808354040283529160200191611bdc565b820191906000526020600020905b815481529060010190602001808311611bbf57829003601f168201915b50505050508152602001600782018054611bf590614d6a565b80601f0160208091040260200160405190810160405280929190818152602001828054611c2190614d6a565b8015611c6e5780601f10611c4357610100808354040283529160200191611c6e565b820191906000526020600020905b815481529060010190602001808311611c5157829003601f168201915b50505050508152602001600882018054611c8790614d6a565b80601f0160208091040260200160405190810160405280929190818152602001828054611cb390614d6a565b8015611d005780601f10611cd557610100808354040283529160200191611d00565b820191906000526020600020905b815481529060010190602001808311611ce357829003601f168201915b50505050508152602001600982018054611d1990614d6a565b80601f0160208091040260200160405190810160405280929190818152602001828054611d4590614d6a565b8015611d925780601f10611d6757610100808354040283529160200191611d92565b820191906000526020600020905b815481529060010190602001808311611d7557829003601f168201915b50505050508152602001600a82018054611dab90614d6a565b80601f0160208091040260200160405190810160405280929190818152602001828054611dd790614d6a565b8015611e245780601f10611df957610100808354040283529160200191611e24565b820191906000526020600020905b815481529060010190602001808311611e0757829003601f168201915b505050505081525050905080925050611e6a565b6040517fd05e4aeb00000000000000000000000000000000000000000000000000000000815260040160405180910390fd5b50919050565b60608173ffffffffffffffffffffffffffffffffffffffff163373ffffffffffffffffffffffffffffffffffffffff160361203c57600360008373ffffffffffffffffffffffffffffffffffffffff1673ffffffffffffffffffffffffffffffffffffffff168152602001908152602001600020805480602002602001604051908101604052809291908181526020016000905b8282101561203157838290600052602060002090600502016040518060a0016040529081600082015481526020016001820160009054906101000a900473ffffffffffffffffffffffffffffffffffffffff1673ffffffffffffffffffffffffffffffffffffffff1673ffffffffffffffffffffffffffffffffffffffff1681526020016002820160009054906101000a900473ffffffffffffffffffffffffffffffffffffffff1673ffffffffffffffffffffffffffffffffffffffff1673ffffffffffffffffffffffffffffffffffffffff168152602001600382015481526020016004820160009054906101000a900460ff16600281111561200c5761200b61429e565b5b600281111561201e5761201d61429e565b5b8152505081526020019060010190611f04565b50505050905061206e565b6040517f57c0ff9e00000000000000000000000000000000000000000000000000000000815260040160405180910390fd5b919050565b3373ffffffffffffffffffffffffffffffffffffffff16600160003373ffffffffffffffffffffffffffffffffffffffff1673ffffffffffffffffffffffffffffffffffffffff16815260200190815260200160002060000160009054906101000a900473ffffffffffffffffffffffffffffffffffffffff1673ffffffffffffffffffffffffffffffffffffffff161461210d57600080fd5b888073ffffffffffffffffffffffffffffffffffffffff16600160008373ffffffffffffffffffffffffffffffffffffffff1673ffffffffffffffffffffffffffffffffffffffff16815260200190815260200160002060000160009054906101000a900473ffffffffffffffffffffffffffffffffffffffff1673ffffffffffffffffffffffffffffffffffffffff16146121a857600080fd5b6000600160003373ffffffffffffffffffffffffffffffffffffffff1673ffffffffffffffffffffffffffffffffffffffff16815260200190815260200160002090508a73ffffffffffffffffffffffffffffffffffffffff168160000160009054906101000a900473ffffffffffffffffffffffffffffffffffffffff1673ffffffffffffffffffffffffffffffffffffffff1614612274576040517f57c0ff9e00000000000000000000000000000000000000000000000000000000815260040160405180910390fd5b898160010190816122859190614f47565b50888160020190816122979190614f47565b50878160030190816122a99190614f47565b50868160040190816122bb9190614f47565b50858160050190816122cd9190614f47565b50848160060190816122df9190614f47565b50838160070190816122f19190614f47565b50828160080190816123039190614f47565b507ff30e1da68c9578cb8eb176920ac0459c9a8744c373b44a2981dcf5b6ba4bf0198b8b8b60405161233793929190615090565b60405180910390a15050505050505050505050565b612354613878565b6000600260008473ffffffffffffffffffffffffffffffffffffffff1673ffffffffffffffffffffffffffffffffffffffff168152602001908152602001600020805480602002602001604051908101604052809291908181526020016000905b8282101561265d57838290600052602060002090600702016040518060e001604052908160008201548152602001600182015481526020016002820160009054906101000a900473ffffffffffffffffffffffffffffffffffffffff1673ffffffffffffffffffffffffffffffffffffffff1673ffffffffffffffffffffffffffffffffffffffff1681526020016003820160009054906101000a900473ffffffffffffffffffffffffffffffffffffffff1673ffffffffffffffffffffffffffffffffffffffff1673ffffffffffffffffffffffffffffffffffffffff1681526020016004820180546124a890614d6a565b80601f01602080910402602001604051908101604052809291908181526020018280546124d490614d6a565b80156125215780601f106124f657610100808354040283529160200191612521565b820191906000526020600020905b81548152906001019060200180831161250457829003601f168201915b5050505050815260200160058201805461253a90614d6a565b80601f016020809104026020016040519081016040528092919081815260200182805461256690614d6a565b80156125b35780601f10612588576101008083540402835291602001916125b3565b820191906000526020600020905b81548152906001019060200180831161259657829003601f168201915b505050505081526020016006820180546125cc90614d6a565b80601f01602080910402602001604051908101604052809291908181526020018280546125f890614d6a565b80156126455780601f1061261a57610100808354040283529160200191612645565b820191906000526020600020905b81548152906001019060200180831161262857829003601f168201915b505050505081525050815260200190600101906123b5565b5050505090508273ffffffffffffffffffffffffffffffffffffffff163373ffffffffffffffffffffffffffffffffffffffff16036127315760005b81518110156126fe57848282815181106126b6576126b5614d0c565b5b602002602001015160000151036126eb578181815181106126da576126d9614d0c565b5b602002602001015192505050612763565b80806126f690615048565b915050612699565b506040517f7c2ee70a00000000000000000000000000000000000000000000000000000000815260040160405180910390fd5b6040517fd05e4aeb00000000000000000000000000000000000000000000000000000000815260040160405180910390fd5b92915050565b60608173ffffffffffffffffffffffffffffffffffffffff163373ffffffffffffffffffffffffffffffffffffffff1603612ab057600260008373ffffffffffffffffffffffffffffffffffffffff1673ffffffffffffffffffffffffffffffffffffffff168152602001908152602001600020805480602002602001604051908101604052809291908181526020016000905b82821015612aa557838290600052602060002090600702016040518060e001604052908160008201548152602001600182015481526020016002820160009054906101000a900473ffffffffffffffffffffffffffffffffffffffff1673ffffffffffffffffffffffffffffffffffffffff1673ffffffffffffffffffffffffffffffffffffffff1681526020016003820160009054906101000a900473ffffffffffffffffffffffffffffffffffffffff1673ffffffffffffffffffffffffffffffffffffffff1673ffffffffffffffffffffffffffffffffffffffff1681526020016004820180546128f090614d6a565b80601f016020809104026020016040519081016040528092919081815260200182805461291c90614d6a565b80156129695780601f1061293e57610100808354040283529160200191612969565b820191906000526020600020905b81548152906001019060200180831161294c57829003601f168201915b5050505050815260200160058201805461298290614d6a565b80601f01602080910402602001604051908101604052809291908181526020018280546129ae90614d6a565b80156129fb5780601f106129d0576101008083540402835291602001916129fb565b820191906000526020600020905b8154815290600101906020018083116129de57829003601f168201915b50505050508152602001600682018054612a1490614d6a565b80601f0160208091040260200160405190810160405280929190818152602001828054612a4090614d6a565b8015612a8d5780601f10612a6257610100808354040283529160200191612a8d565b820191906000526020600020905b815481529060010190602001808311612a7057829003601f168201915b505050505081525050815260200190600101906127fd565b505050509050612ae2565b6040517fd05e4aeb00000000000000000000000000000000000000000000000000000000815260040160405180910390fd5b919050565b3373ffffffffffffffffffffffffffffffffffffffff166000803373ffffffffffffffffffffffffffffffffffffffff1673ffffffffffffffffffffffffffffffffffffffff16815260200190815260200160002060000160009054906101000a900473ffffffffffffffffffffffffffffffffffffffff1673ffffffffffffffffffffffffffffffffffffffff16148015612c1057503373ffffffffffffffffffffffffffffffffffffffff16600160003373ffffffffffffffffffffffffffffffffffffffff1673ffffffffffffffffffffffffffffffffffffffff16815260200190815260200160002060000160009054906101000a900473ffffffffffffffffffffffffffffffffffffffff1673ffffffffffffffffffffffffffffffffffffffff16145b15612c47576040517f06d6763e00000000000000000000000000000000000000000000000000000000815260040160405180910390fd5b6040518061016001604052803373ffffffffffffffffffffffffffffffffffffffff1681526020018b81526020018a8152602001898152602001888152602001878152602001868152602001858152602001848152602001838152602001828152506000803373ffffffffffffffffffffffffffffffffffffffff1673ffffffffffffffffffffffffffffffffffffffff16815260200190815260200160002060008201518160000160006101000a81548173ffffffffffffffffffffffffffffffffffffffff021916908373ffffffffffffffffffffffffffffffffffffffff1602179055506020820151816001019081612d439190614f47565b506040820151816002019081612d599190614f47565b506060820151816003019081612d6f9190614f47565b506080820151816004019081612d859190614f47565b5060a0820151816005019081612d9b9190614f47565b5060c0820151816006019081612db19190614f47565b5060e0820151816007019081612dc79190614f47565b50610100820151816008019081612dde9190614f47565b50610120820151816009019081612df59190614f47565b5061014082015181600a019081612e0c9190614f47565b509050507f2ebd0466e7f37c1b237d3558e4b06b95b9eac254029aab5b1ba131bf543943c5338b8b604051612e4393929190615090565b60405180910390a150505050505050505050565b3373ffffffffffffffffffffffffffffffffffffffff166000803373ffffffffffffffffffffffffffffffffffffffff1673ffffffffffffffffffffffffffffffffffffffff16815260200190815260200160002060000160009054906101000a900473ffffffffffffffffffffffffffffffffffffffff1673ffffffffffffffffffffffffffffffffffffffff1614612ef057600080fd5b6000600360003373ffffffffffffffffffffffffffffffffffffffff1673ffffffffffffffffffffffffffffffffffffffff16815260200190815260200160002090506000805b82805490508110156131865784838281548110612f5757612f56614d0c565b5b906000526020600020906005020160000154148015612fe557503373ffffffffffffffffffffffffffffffffffffffff16838281548110612f9b57612f9a614d0c565b5b906000526020600020906005020160010160009054906101000a900473ffffffffffffffffffffffffffffffffffffffff1673ffffffffffffffffffffffffffffffffffffffff16145b801561304757506001600281111561300057612fff61429e565b5b83828154811061301357613012614d0c565b5b906000526020600020906005020160040160009054906101000a900460ff1660028111156130445761304361429e565b5b14155b15613173576001915060011515841515036130e757600183828154811061307157613070614d0c565b5b906000526020600020906005020160040160006101000a81548160ff021916908360028111156130a4576130a361429e565b5b02179055507f018d20fd47cfe9d9fbbb820b1382a761202af36a6ac915250998f3bf6fbd3d7d85336040516130da9291906150d5565b60405180910390a161316e565b60028382815481106130fc576130fb614d0c565b5b906000526020600020906005020160040160006101000a81548160ff0219169083600281111561312f5761312e61429e565b5b02179055507f8a72a3ba2466ad2f9a4ce076580545941f36596a0d91500a2f6e6b2e291d1f0d85336040516131659291906150d5565b60405180910390a15b613186565b808061317e90615048565b915050612f37565b50806131be576040517fcbf74bb600000000000000000000000000000000000000000000000000000000815260040160405180910390fd5b50505050565b3373ffffffffffffffffffffffffffffffffffffffff16600160003373ffffffffffffffffffffffffffffffffffffffff1673ffffffffffffffffffffffffffffffffffffffff16815260200190815260200160002060000160009054906101000a900473ffffffffffffffffffffffffffffffffffffffff1673ffffffffffffffffffffffffffffffffffffffff161461325e57600080fd5b6000600360008873ffffffffffffffffffffffffffffffffffffffff1673ffffffffffffffffffffffffffffffffffffffff16815260200190815260200160002090506000805b828054905081101561342257868382815481106132c5576132c4614d0c565b5b90600052602060002090600502016000015414801561335357503373ffffffffffffffffffffffffffffffffffffffff1683828154811061330957613308614d0c565b5b906000526020600020906005020160020160009054906101000a900473ffffffffffffffffffffffffffffffffffffffff1673ffffffffffffffffffffffffffffffffffffffff16145b80156133b457506001600281111561336e5761336d61429e565b5b83828154811061338157613380614d0c565b5b906000526020600020906005020160040160009054906101000a900460ff1660028111156133b2576133b161429e565b5b145b1561340f576001915060008382815481106133d2576133d1614d0c565b5b906000526020600020906005020160040160006101000a81548160ff021916908360028111156134055761340461429e565b5b0217905550613422565b808061341a90615048565b9150506132a5565b508061345a576040517fae97f79000000000000000000000000000000000000000000000000000000000815260040160405180910390fd5b6000600260008a73ffffffffffffffffffffffffffffffffffffffff1673ffffffffffffffffffffffffffffffffffffffff16815260200190815260200160002090506000805b82805490508110156135ee57898382815481106134c1576134c0614d0c565b5b906000526020600020906007020160000154036135db5760019150878382815481106134f0576134ef614d0c565b5b9060005260206000209060070201600401908161350d9190614f47565b508683828154811061352257613521614d0c565b5b9060005260206000209060070201600501908161353f9190614f47565b508583828154811061355457613553614d0c565b5b906000526020600020906007020160060190816135719190614f47565b504283828154811061358657613585614d0c565b5b9060005260206000209060070201600101819055507f2db782a0c3495e8ab207b4c5b1b4274529d615e5e061b512e440d4c070634d188a8c336040516135ce93929190614cd5565b60405180910390a16135ee565b80806135e690615048565b9150506134a1565b5080613626576040517f7c2ee70a00000000000000000000000000000000000000000000000000000000815260040160405180910390fd5b50505050505050505050565b6060818073ffffffffffffffffffffffffffffffffffffffff166000808373ffffffffffffffffffffffffffffffffffffffff1673ffffffffffffffffffffffffffffffffffffffff16815260200190815260200160002060000160009054906101000a900473ffffffffffffffffffffffffffffffffffffffff1673ffffffffffffffffffffffffffffffffffffffff16146136ce57600080fd5b60008060008573ffffffffffffffffffffffffffffffffffffffff1673ffffffffffffffffffffffffffffffffffffffff168152602001908152602001600020600701805461371c90614d6a565b80601f016020809104026020016040519081016040528092919081815260200182805461374890614d6a565b80156137955780601f1061376a57610100808354040283529160200191613795565b820191906000526020600020905b81548152906001019060200180831161377857829003601f168201915b505050505090508092505050919050565b604051806101200160405280600073ffffffffffffffffffffffffffffffffffffffff16815260200160608152602001606081526020016060815260200160608152602001606081526020016060815260200160608152602001606081525090565b604051806101600160405280600073ffffffffffffffffffffffffffffffffffffffff168152602001606081526020016060815260200160608152602001606081526020016060815260200160608152602001606081526020016060815260200160608152602001606081525090565b6040518060e001604052806000815260200160008152602001600073ffffffffffffffffffffffffffffffffffffffff168152602001600073ffffffffffffffffffffffffffffffffffffffff1681526020016060815260200160608152602001606081525090565b6000604051905090565b600080fd5b600080fd5b600073ffffffffffffffffffffffffffffffffffffffff82169050919050565b6000613920826138f5565b9050919050565b61393081613915565b811461393b57600080fd5b50565b60008135905061394d81613927565b92915050565b600060208284031215613969576139686138eb565b5b60006139778482850161393e565b91505092915050565b6000819050919050565b61399381613980565b811461399e57600080fd5b50565b6000813590506139b08161398a565b92915050565b600080fd5b600080fd5b6000601f19601f8301169050919050565b7f4e487b7100000000000000000000000000000000000000000000000000000000600052604160045260246000fd5b613a09826139c0565b810181811067ffffffffffffffff82111715613a2857613a276139d1565b5b80604052505050565b6000613a3b6138e1565b9050613a478282613a00565b919050565b600067ffffffffffffffff821115613a6757613a666139d1565b5b613a70826139c0565b9050602081019050919050565b82818337600083830152505050565b6000613a9f613a9a84613a4c565b613a31565b905082815260208101848484011115613abb57613aba6139bb565b5b613ac6848285613a7d565b509392505050565b600082601f830112613ae357613ae26139b6565b5b8135613af3848260208601613a8c565b91505092915050565b600080600080600060a08688031215613b1857613b176138eb565b5b6000613b26888289016139a1565b9550506020613b378882890161393e565b945050604086013567ffffffffffffffff811115613b5857613b576138f0565b5b613b6488828901613ace565b935050606086013567ffffffffffffffff811115613b8557613b846138f0565b5b613b9188828901613ace565b925050608086013567ffffffffffffffff811115613bb257613bb16138f0565b5b613bbe88828901613ace565b9150509295509295909350565b60008060008060008060008060008060006101608c8e031215613bf157613bf06138eb565b5b6000613bff8e828f0161393e565b9b505060208c013567ffffffffffffffff811115613c2057613c1f6138f0565b5b613c2c8e828f01613ace565b9a505060408c013567ffffffffffffffff811115613c4d57613c4c6138f0565b5b613c598e828f01613ace565b99505060608c013567ffffffffffffffff811115613c7a57613c796138f0565b5b613c868e828f01613ace565b98505060808c013567ffffffffffffffff811115613ca757613ca66138f0565b5b613cb38e828f01613ace565b97505060a08c013567ffffffffffffffff811115613cd457613cd36138f0565b5b613ce08e828f01613ace565b96505060c08c013567ffffffffffffffff811115613d0157613d006138f0565b5b613d0d8e828f01613ace565b95505060e08c013567ffffffffffffffff811115613d2e57613d2d6138f0565b5b613d3a8e828f01613ace565b9450506101008c013567ffffffffffffffff811115613d5c57613d5b6138f0565b5b613d688e828f01613ace565b9350506101208c013567ffffffffffffffff811115613d8a57613d896138f0565b5b613d968e828f01613ace565b9250506101408c013567ffffffffffffffff811115613db857613db76138f0565b5b613dc48e828f01613ace565b9150509295989b509295989b9093969950565b613de081613915565b82525050565b600081519050919050565b600082825260208201905092915050565b60005b83811015613e20578082015181840152602081019050613e05565b60008484015250505050565b6000613e3782613de6565b613e418185613df1565b9350613e51818560208601613e02565b613e5a816139c0565b840191505092915050565b600061012083016000830151613e7e6000860182613dd7565b5060208301518482036020860152613e968282613e2c565b91505060408301518482036040860152613eb08282613e2c565b91505060608301518482036060860152613eca8282613e2c565b91505060808301518482036080860152613ee48282613e2c565b91505060a083015184820360a0860152613efe8282613e2c565b91505060c083015184820360c0860152613f188282613e2c565b91505060e083015184820360e0860152613f328282613e2c565b915050610100830151848203610100860152613f4e8282613e2c565b9150508091505092915050565b60006020820190508181036000830152613f758184613e65565b905092915050565b600080600080600080600080610100898b031215613f9e57613f9d6138eb565b5b600089013567ffffffffffffffff811115613fbc57613fbb6138f0565b5b613fc88b828c01613ace565b985050602089013567ffffffffffffffff811115613fe957613fe86138f0565b5b613ff58b828c01613ace565b975050604089013567ffffffffffffffff811115614016576140156138f0565b5b6140228b828c01613ace565b965050606089013567ffffffffffffffff811115614043576140426138f0565b5b61404f8b828c01613ace565b955050608089013567ffffffffffffffff8111156140705761406f6138f0565b5b61407c8b828c01613ace565b94505060a089013567ffffffffffffffff81111561409d5761409c6138f0565b5b6140a98b828c01613ace565b93505060c089013567ffffffffffffffff8111156140ca576140c96138f0565b5b6140d68b828c01613ace565b92505060e089013567ffffffffffffffff8111156140f7576140f66138f0565b5b6141038b828c01613ace565b9150509295985092959890939650565b60006101608301600083015161412c6000860182613dd7565b50602083015184820360208601526141448282613e2c565b9150506040830151848203604086015261415e8282613e2c565b915050606083015184820360608601526141788282613e2c565b915050608083015184820360808601526141928282613e2c565b91505060a083015184820360a08601526141ac8282613e2c565b91505060c083015184820360c08601526141c68282613e2c565b91505060e083015184820360e08601526141e08282613e2c565b9150506101008301518482036101008601526141fc8282613e2c565b9150506101208301518482036101208601526142188282613e2c565b9150506101408301518482036101408601526142348282613e2c565b9150508091505092915050565b6000602082019050818103600083015261425b8184614113565b905092915050565b600081519050919050565b600082825260208201905092915050565b6000819050602082019050919050565b61429881613980565b82525050565b7f4e487b7100000000000000000000000000000000000000000000000000000000600052602160045260246000fd5b600381106142de576142dd61429e565b5b50565b60008190506142ef826142cd565b919050565b60006142ff826142e1565b9050919050565b61430f816142f4565b82525050565b60a08201600082015161432b600085018261428f565b50602082015161433e6020850182613dd7565b5060408201516143516040850182613dd7565b506060820151614364606085018261428f565b5060808201516143776080850182614306565b50505050565b60006143898383614315565b60a08301905092915050565b6000602082019050919050565b60006143ad82614263565b6143b7818561426e565b93506143c28361427f565b8060005b838110156143f35781516143da888261437d565b97506143e583614395565b9250506001810190506143c6565b5085935050505092915050565b6000602082019050818103600083015261441a81846143a2565b905092915050565b60008060008060008060008060006101208a8c031215614445576144446138eb565b5b60006144538c828d0161393e565b99505060208a013567ffffffffffffffff811115614474576144736138f0565b5b6144808c828d01613ace565b98505060408a013567ffffffffffffffff8111156144a1576144a06138f0565b5b6144ad8c828d01613ace565b97505060608a013567ffffffffffffffff8111156144ce576144cd6138f0565b5b6144da8c828d01613ace565b96505060808a013567ffffffffffffffff8111156144fb576144fa6138f0565b5b6145078c828d01613ace565b95505060a08a013567ffffffffffffffff811115614528576145276138f0565b5b6145348c828d01613ace565b94505060c08a013567ffffffffffffffff811115614555576145546138f0565b5b6145618c828d01613ace565b93505060e08a013567ffffffffffffffff811115614582576145816138f0565b5b61458e8c828d01613ace565b9250506101008a013567ffffffffffffffff8111156145b0576145af6138f0565b5b6145bc8c828d01613ace565b9150509295985092959850929598565b600080604083850312156145e3576145e26138eb565b5b60006145f1858286016139a1565b92505060206146028582860161393e565b9150509250929050565b600060e083016000830151614624600086018261428f565b506020830151614637602086018261428f565b50604083015161464a6040860182613dd7565b50606083015161465d6060860182613dd7565b50608083015184820360808601526146758282613e2c565b91505060a083015184820360a086015261468f8282613e2c565b91505060c083015184820360c08601526146a98282613e2c565b9150508091505092915050565b600060208201905081810360008301526146d0818461460c565b905092915050565b600081519050919050565b600082825260208201905092915050565b6000819050602082019050919050565b600060e08301600083015161471c600086018261428f565b50602083015161472f602086018261428f565b5060408301516147426040860182613dd7565b5060608301516147556060860182613dd7565b506080830151848203608086015261476d8282613e2c565b91505060a083015184820360a08601526147878282613e2c565b91505060c083015184820360c08601526147a18282613e2c565b9150508091505092915050565b60006147ba8383614704565b905092915050565b6000602082019050919050565b60006147da826146d8565b6147e481856146e3565b9350836020820285016147f6856146f4565b8060005b85811015614832578484038952815161481385826147ae565b945061481e836147c2565b925060208a019950506001810190506147fa565b50829750879550505050505092915050565b6000602082019050818103600083015261485e81846147cf565b905092915050565b6000806000806000806000806000806101408b8d03121561488a576148896138eb565b5b60008b013567ffffffffffffffff8111156148a8576148a76138f0565b5b6148b48d828e01613ace565b9a505060208b013567ffffffffffffffff8111156148d5576148d46138f0565b5b6148e18d828e01613ace565b99505060408b013567ffffffffffffffff811115614902576149016138f0565b5b61490e8d828e01613ace565b98505060608b013567ffffffffffffffff81111561492f5761492e6138f0565b5b61493b8d828e01613ace565b97505060808b013567ffffffffffffffff81111561495c5761495b6138f0565b5b6149688d828e01613ace565b96505060a08b013567ffffffffffffffff811115614989576149886138f0565b5b6149958d828e01613ace565b95505060c08b013567ffffffffffffffff8111156149b6576149b56138f0565b5b6149c28d828e01613ace565b94505060e08b013567ffffffffffffffff8111156149e3576149e26138f0565b5b6149ef8d828e01613ace565b9350506101008b013567ffffffffffffffff811115614a1157614a106138f0565b5b614a1d8d828e01613ace565b9250506101208b013567ffffffffffffffff811115614a3f57614a3e6138f0565b5b614a4b8d828e01613ace565b9150509295989b9194979a5092959850565b60008115159050919050565b614a7281614a5d565b8114614a7d57600080fd5b50565b600081359050614a8f81614a69565b92915050565b60008060408385031215614aac57614aab6138eb565b5b6000614aba858286016139a1565b9250506020614acb85828601614a80565b9150509250929050565b60008060008060008060c08789031215614af257614af16138eb565b5b6000614b0089828a0161393e565b9650506020614b1189828a016139a1565b9550506040614b2289828a016139a1565b945050606087013567ffffffffffffffff811115614b4357614b426138f0565b5b614b4f89828a01613ace565b935050608087013567ffffffffffffffff811115614b7057614b6f6138f0565b5b614b7c89828a01613ace565b92505060a087013567ffffffffffffffff811115614b9d57614b9c6138f0565b5b614ba989828a01613ace565b9150509295509295509295565b600082825260208201905092915050565b6000614bd282613de6565b614bdc8185614bb6565b9350614bec818560208601613e02565b614bf5816139c0565b840191505092915050565b60006020820190508181036000830152614c1a8184614bc7565b905092915050565b6000819050919050565b614c3d614c3882613980565b614c22565b82525050565b60008160601b9050919050565b6000614c5b82614c43565b9050919050565b6000614c6d82614c50565b9050919050565b614c85614c8082613915565b614c62565b82525050565b6000614c978285614c2c565b602082019150614ca78284614c74565b6014820191508190509392505050565b614cc081613980565b82525050565b614ccf81613915565b82525050565b6000606082019050614cea6000830186614cb7565b614cf76020830185614cc6565b614d046040830184614cc6565b949350505050565b7f4e487b7100000000000000000000000000000000000000000000000000000000600052603260045260246000fd5b7f4e487b7100000000000000000000000000000000000000000000000000000000600052602260045260246000fd5b60006002820490506001821680614d8257607f821691505b602082108103614d9557614d94614d3b565b5b50919050565b60008190508160005260206000209050919050565b60006020601f8301049050919050565b600082821b905092915050565b600060088302614dfd7fffffffffffffffffffffffffffffffffffffffffffffffffffffffffffffffff82614dc0565b614e078683614dc0565b95508019841693508086168417925050509392505050565b6000819050919050565b6000614e44614e3f614e3a84613980565b614e1f565b613980565b9050919050565b6000819050919050565b614e5e83614e29565b614e72614e6a82614e4b565b848454614dcd565b825550505050565b600090565b614e87614e7a565b614e92818484614e55565b505050565b5b81811015614eb657614eab600082614e7f565b600181019050614e98565b5050565b601f821115614efb57614ecc81614d9b565b614ed584614db0565b81016020851015614ee4578190505b614ef8614ef085614db0565b830182614e97565b50505b505050565b600082821c905092915050565b6000614f1e60001984600802614f00565b1980831691505092915050565b6000614f378383614f0d565b9150826002028217905092915050565b614f5082613de6565b67ffffffffffffffff811115614f6957614f686139d1565b5b614f738254614d6a565b614f7e828285614eba565b600060209050601f831160018114614fb15760008415614f9f578287015190505b614fa98582614f2b565b865550615011565b601f198416614fbf86614d9b565b60005b82811015614fe757848901518255600182019150602085019450602081019050614fc2565b868310156150045784890151615000601f891682614f0d565b8355505b6001600288020188555050505b505050505050565b7f4e487b7100000000000000000000000000000000000000000000000000000000600052601160045260246000fd5b600061505382613980565b91507fffffffffffffffffffffffffffffffffffffffffffffffffffffffffffffffff820361508557615084615019565b5b600182019050919050565b60006060820190506150a56000830186614cc6565b81810360208301526150b78185614bc7565b905081810360408301526150cb8184614bc7565b9050949350505050565b60006040820190506150ea6000830185614cb7565b6150f76020830184614cc6565b939250505056fea2646970667358221220a467d2d59ae5e72150bbdc13209d6782839782a2758ed7626c6443bb46085f7864736f6c63430008120033",
  "devdoc": {
    "author": "Alberto Toscano",
    "kind": "dev",
    "methods": {},
    "title": "HealthChain",
    "version": 1
  },
  "userdoc": {
    "kind": "user",
    "methods": {},
    "notice": "HealthChain is a decentralized health records management system. It allows doctors to create and update medical records for their patients, while ensuring patient privacy and control over their data. Patients can grant access to their medical records to specific doctors by approving requests.",
    "version": 1
  },
  "storageLayout": {
    "storage": [
      {
        "astId": 92,
        "contract": "contracts/Healthchain.sol:HealthChain",
        "label": "s_patients",
        "offset": 0,
        "slot": "0",
        "type": "t_mapping(t_address,t_struct(Patient)60_storage)"
      },
      {
        "astId": 97,
        "contract": "contracts/Healthchain.sol:HealthChain",
        "label": "s_doctors",
        "offset": 0,
        "slot": "1",
        "type": "t_mapping(t_address,t_struct(Doctor)37_storage)"
      },
      {
        "astId": 103,
        "contract": "contracts/Healthchain.sol:HealthChain",
        "label": "s_medicalRecords",
        "offset": 0,
        "slot": "2",
        "type": "t_mapping(t_address,t_array(t_struct(MedicalRecord)75_storage)dyn_storage)"
      },
      {
        "astId": 109,
        "contract": "contracts/Healthchain.sol:HealthChain",
        "label": "s_requests",
        "offset": 0,
        "slot": "3",
        "type": "t_mapping(t_address,t_array(t_struct(Request)87_storage)dyn_storage)"
      }
    ],
    "types": {
      "t_address": {
        "encoding": "inplace",
        "label": "address",
        "numberOfBytes": "20"
      },
      "t_array(t_struct(MedicalRecord)75_storage)dyn_storage": {
        "base": "t_struct(MedicalRecord)75_storage",
        "encoding": "dynamic_array",
        "label": "struct HealthChain.MedicalRecord[]",
        "numberOfBytes": "32"
      },
      "t_array(t_struct(Request)87_storage)dyn_storage": {
        "base": "t_struct(Request)87_storage",
        "encoding": "dynamic_array",
        "label": "struct HealthChain.Request[]",
        "numberOfBytes": "32"
      },
      "t_enum(RequestStatus)18": {
        "encoding": "inplace",
        "label": "enum HealthChain.RequestStatus",
        "numberOfBytes": "1"
      },
      "t_mapping(t_address,t_array(t_struct(MedicalRecord)75_storage)dyn_storage)": {
        "encoding": "mapping",
        "key": "t_address",
        "label": "mapping(address => struct HealthChain.MedicalRecord[])",
        "numberOfBytes": "32",
        "value": "t_array(t_struct(MedicalRecord)75_storage)dyn_storage"
      },
      "t_mapping(t_address,t_array(t_struct(Request)87_storage)dyn_storage)": {
        "encoding": "mapping",
        "key": "t_address",
        "label": "mapping(address => struct HealthChain.Request[])",
        "numberOfBytes": "32",
        "value": "t_array(t_struct(Request)87_storage)dyn_storage"
      },
      "t_mapping(t_address,t_struct(Doctor)37_storage)": {
        "encoding": "mapping",
        "key": "t_address",
        "label": "mapping(address => struct HealthChain.Doctor)",
        "numberOfBytes": "32",
        "value": "t_struct(Doctor)37_storage"
      },
      "t_mapping(t_address,t_struct(Patient)60_storage)": {
        "encoding": "mapping",
        "key": "t_address",
        "label": "mapping(address => struct HealthChain.Patient)",
        "numberOfBytes": "32",
        "value": "t_struct(Patient)60_storage"
      },
      "t_string_storage": {
        "encoding": "bytes",
        "label": "string",
        "numberOfBytes": "32"
      },
      "t_struct(Doctor)37_storage": {
        "encoding": "inplace",
        "label": "struct HealthChain.Doctor",
        "members": [
          {
            "astId": 20,
            "contract": "contracts/Healthchain.sol:HealthChain",
            "label": "id",
            "offset": 0,
            "slot": "0",
            "type": "t_address"
          },
          {
            "astId": 22,
            "contract": "contracts/Healthchain.sol:HealthChain",
            "label": "name",
            "offset": 0,
            "slot": "1",
            "type": "t_string_storage"
          },
          {
            "astId": 24,
            "contract": "contracts/Healthchain.sol:HealthChain",
            "label": "surname",
            "offset": 0,
            "slot": "2",
            "type": "t_string_storage"
          },
          {
            "astId": 26,
            "contract": "contracts/Healthchain.sol:HealthChain",
            "label": "dateOfBirth",
            "offset": 0,
            "slot": "3",
            "type": "t_string_storage"
          },
          {
            "astId": 28,
            "contract": "contracts/Healthchain.sol:HealthChain",
            "label": "email",
            "offset": 0,
            "slot": "4",
            "type": "t_string_storage"
          },
          {
            "astId": 30,
            "contract": "contracts/Healthchain.sol:HealthChain",
            "label": "telephone",
            "offset": 0,
            "slot": "5",
            "type": "t_string_storage"
          },
          {
            "astId": 32,
            "contract": "contracts/Healthchain.sol:HealthChain",
            "label": "zipCode",
            "offset": 0,
            "slot": "6",
            "type": "t_string_storage"
          },
          {
            "astId": 34,
            "contract": "contracts/Healthchain.sol:HealthChain",
            "label": "city",
            "offset": 0,
            "slot": "7",
            "type": "t_string_storage"
          },
          {
            "astId": 36,
            "contract": "contracts/Healthchain.sol:HealthChain",
            "label": "country",
            "offset": 0,
            "slot": "8",
            "type": "t_string_storage"
          }
        ],
        "numberOfBytes": "288"
      },
      "t_struct(MedicalRecord)75_storage": {
        "encoding": "inplace",
        "label": "struct HealthChain.MedicalRecord",
        "members": [
          {
            "astId": 62,
            "contract": "contracts/Healthchain.sol:HealthChain",
            "label": "id",
            "offset": 0,
            "slot": "0",
            "type": "t_uint256"
          },
          {
            "astId": 64,
            "contract": "contracts/Healthchain.sol:HealthChain",
            "label": "timeAdded",
            "offset": 0,
            "slot": "1",
            "type": "t_uint256"
          },
          {
            "astId": 66,
            "contract": "contracts/Healthchain.sol:HealthChain",
            "label": "patientId",
            "offset": 0,
            "slot": "2",
            "type": "t_address"
          },
          {
            "astId": 68,
            "contract": "contracts/Healthchain.sol:HealthChain",
            "label": "doctorId",
            "offset": 0,
            "slot": "3",
            "type": "t_address"
          },
          {
            "astId": 70,
            "contract": "contracts/Healthchain.sol:HealthChain",
            "label": "fileName",
            "offset": 0,
            "slot": "4",
            "type": "t_string_storage"
          },
          {
            "astId": 72,
            "contract": "contracts/Healthchain.sol:HealthChain",
            "label": "hospital",
            "offset": 0,
            "slot": "5",
            "type": "t_string_storage"
          },
          {
            "astId": 74,
            "contract": "contracts/Healthchain.sol:HealthChain",
            "label": "details",
            "offset": 0,
            "slot": "6",
            "type": "t_string_storage"
          }
        ],
        "numberOfBytes": "224"
      },
      "t_struct(Patient)60_storage": {
        "encoding": "inplace",
        "label": "struct HealthChain.Patient",
        "members": [
          {
            "astId": 39,
            "contract": "contracts/Healthchain.sol:HealthChain",
            "label": "id",
            "offset": 0,
            "slot": "0",
            "type": "t_address"
          },
          {
            "astId": 41,
            "contract": "contracts/Healthchain.sol:HealthChain",
            "label": "name",
            "offset": 0,
            "slot": "1",
            "type": "t_string_storage"
          },
          {
            "astId": 43,
            "contract": "contracts/Healthchain.sol:HealthChain",
            "label": "surname",
            "offset": 0,
            "slot": "2",
            "type": "t_string_storage"
          },
          {
            "astId": 45,
            "contract": "contracts/Healthchain.sol:HealthChain",
            "label": "dateOfBirth",
            "offset": 0,
            "slot": "3",
            "type": "t_string_storage"
          },
          {
            "astId": 47,
            "contract": "contracts/Healthchain.sol:HealthChain",
            "label": "email",
            "offset": 0,
            "slot": "4",
            "type": "t_string_storage"
          },
          {
            "astId": 49,
            "contract": "contracts/Healthchain.sol:HealthChain",
            "label": "telephone",
            "offset": 0,
            "slot": "5",
            "type": "t_string_storage"
          },
          {
            "astId": 51,
            "contract": "contracts/Healthchain.sol:HealthChain",
            "label": "telephone2",
            "offset": 0,
            "slot": "6",
            "type": "t_string_storage"
          },
          {
            "astId": 53,
            "contract": "contracts/Healthchain.sol:HealthChain",
            "label": "doctorTelephone",
            "offset": 0,
            "slot": "7",
            "type": "t_string_storage"
          },
          {
            "astId": 55,
            "contract": "contracts/Healthchain.sol:HealthChain",
            "label": "zipCode",
            "offset": 0,
            "slot": "8",
            "type": "t_string_storage"
          },
          {
            "astId": 57,
            "contract": "contracts/Healthchain.sol:HealthChain",
            "label": "city",
            "offset": 0,
            "slot": "9",
            "type": "t_string_storage"
          },
          {
            "astId": 59,
            "contract": "contracts/Healthchain.sol:HealthChain",
            "label": "country",
            "offset": 0,
            "slot": "10",
            "type": "t_string_storage"
          }
        ],
        "numberOfBytes": "352"
      },
      "t_struct(Request)87_storage": {
        "encoding": "inplace",
        "label": "struct HealthChain.Request",
        "members": [
          {
            "astId": 77,
            "contract": "contracts/Healthchain.sol:HealthChain",
            "label": "requestId",
            "offset": 0,
            "slot": "0",
            "type": "t_uint256"
          },
          {
            "astId": 79,
            "contract": "contracts/Healthchain.sol:HealthChain",
            "label": "patientAddress",
            "offset": 0,
            "slot": "1",
            "type": "t_address"
          },
          {
            "astId": 81,
            "contract": "contracts/Healthchain.sol:HealthChain",
            "label": "doctorAddress",
            "offset": 0,
            "slot": "2",
            "type": "t_address"
          },
          {
            "astId": 83,
            "contract": "contracts/Healthchain.sol:HealthChain",
            "label": "timestamp",
            "offset": 0,
            "slot": "3",
            "type": "t_uint256"
          },
          {
            "astId": 86,
            "contract": "contracts/Healthchain.sol:HealthChain",
            "label": "status",
            "offset": 0,
            "slot": "4",
            "type": "t_enum(RequestStatus)18"
          }
        ],
        "numberOfBytes": "160"
      },
      "t_uint256": {
        "encoding": "inplace",
        "label": "uint256",
        "numberOfBytes": "32"
      }
    }
  }
}